:020000041000EA
:4000000000400208230100100D00000085010010000000000000000000000000000000000000000000000000000000008101001000000000000000008101001081010010E9
:400040008101001081010010810100108101001081010010810100108101001081010010810100108101001081010010810100108101001081010010810100108101001060
:400080008101001081010010810100108101001081010010810100108101001081010010810100108101001081010010810100108101001081010010810100108101001020
:4000C00010B5064C2378002B07D1054B002B02D0044800E000BF0123237010BD3C060008000000002C260010084B10B5002B03D00749084800E000BF07480368002B00D1D8
:4001000010BD064B002BFBD09847F9E700000000400600082C260010E8000008000000007047FFF7FDFF72B60F4C104DAC4209DA21686268A368043B02DBC858D050FAE757
:400140000C34F3E70A490B4A0020521A02DD043A8850FCDC084809490860BFF34F8F00F007F900F01DF8FEE730260010482600103C0600084C0800080000000808ED00E089
:40018000FEE7FEE700B504207146084202D0EFF3098001E0EFF30880043001F089FAFEE710B5034800F06AF9002001F03BFEFBE70000081010B5002000F0F6FF10BDC04642
:4001C00070B56249E0239B00CB580F2213401A00D0329200525807210A40032A05D0042A06D0002A12D15A4814E05A4A106811E01A00C0329200554952581F210A40112ABF
:4002000006D0132A04D0FA20C00103E0524801E080200002002B36D14C4BB222D2009A5801211140B125ED005A59120F032422405B591B0F1C4207D0444C63591B0F032458
:400240002340012B02D102E0012300E00023002B01D0002901D1032A4BD13C4BB022D2009D58AD03AD0B3D495958C904C90C9C58240E01231C40013401F086FE6843210056
:4002800001F082FE35E0012B33D1304BC822D2009A5801251540C024E4001A59120F03210A401B591B0F194207D028490B591B0F03210B40012B02D102E0012300E00023D4
:4002C000002B01D0002D01D1032A12D11F4DC022D200AB587F210B40A958090A1F263140AC58240C3440584301F04EFE210001F04BFEE0239B00154AD3581B09032213407C
:40030000D840144C6060164B1D692D0AFC32154001351969090E013101F036FEA060290001F032FE0500E06020610E4BC0180E4901F02AFE20750D4BE818FA21890001F08B
:4003400023FEA061C003E06170BDC0460000264000127A00C000000800366E0184050000000021403F420F0040420F00E703000010B5284801F002FE274CB022D200A35898
:400380005B005B08A350E0218900635830208343635080235B04A350204A214BE250A02292010433E250FF221E4BE25001F0D4FDC0225200A35801218B43A35000F010FA39
:4003C000FFF7FEFEB0235B055B78002B04D0B0235B055B78DBB200E02123212B03D1124B0022DA605A60114C22008021042000F081FC2000103000F015FD0D4B1A6851235B
:40040000D35C002B02D00B4800F082FD00F04AFB10BDC046742500100000264001000200840500008C050000E00023405806000848080008002100108023024AD35803202B
:40044000184070470000214010B501F0C2F9084980228C58074B2340074C23438B508823034AD358DB06FAD501F0B7F910BDC04600002140FCFF00000100FA0570B50500AE
:40048000830504D0E821FF310F4801F0E3F801F0A0F90400FFF7D0FF032801D1FFF7D4FF0A4AB0239B00D55080215058084B03400848034353508823044AD358DB06FAD598
:4004C000200001F08AF970BD3421001000002140FCFF00000300FA05FEE7C0460323064A1360064A136080225201054B1A60054A054B1A607047C046082031401020314012
:400500009402364001001180000E1F4130B587B0A049A022D2008B58032083438B509E490B681A6885301B58D21810689B4B184010600A6810688424125980180268120248
:40054000120A0260086805680259AA181068034080204000034313600B683E229A5C002A06D08C48E02189004258753CA24342503E229A5C002A06D08648E021890042587E
:400580003024A24342503E229B5C002B07D08149E02292008B588020000603438B500021012000F033FE0021022000F02FFE0021032000F02BFE0021042000F027FE002174
:4005C000002000F023FE01A8754903000A0032CA32C312CA12C300F047FE002802D00420FFF77AFF6B496F4A8B588020000603438B506D4800F0F4FE002802D00420FFF730
:400600006BFF644C694BE158694A0A40E250E158684A0A40E250E25880252D062A43E250043BE158644A0A40E250E158634A0A40802189010A43E250E258802109020A43BD
:40064000E2505F4A11685F4B0B40802149000B431360002001F062FC5B4BE2581543E550E158012291430A43E2506421002001F037F8494B1A683F23D35C062B06D97023EC
:40068000D35C01210B4051499068435091687423D35ACB185968414A0A405A603E4B1B6873229A5C0321914070229A5C7220185C140084402143012002400A4380210906D3
:4006C0000A438021C900986842509A6852583F229A5C132A0AD97122985C703A82401100032282400A403A49986842509A6876215B5AD2181168374B0B4037490B43136085
:40070000254B1B6873229A5C0324210091400A007021585C0231595C8840104371229A5C01219140944022000A400243802109060A438021C900986842509A6852583F22C9
:400740009A5C332A03D90021244A986881509A6874215B5AD2181168104B0B40FE2109020B4313600C4B1A687323D15C703B8B4019007023D35C7220105C83400B4380210D
:4007800009060B438021C9009068435093685B5807B030BD0000264048080008FF00FFFF4C210010087F0000400D030004050000FEFCFFFFFFFF00FFFFF0FFFFFF8FFFFF0F
:4007C00000002740FFFCFFFF0C050000180C00004C0C0000FF0000FF004FC300CC0C000070B58AB09621002000F07AFF00F050FF002814D100F03CFFC0235B00434AD35818
:40080000DB0705D41100424A8B585B005B088B503E493F4A8B588020000603438B50012001F01AFA3B4A516C3B4B0B40E82189010B435364536C1B0AFF2213403A2B07D1C4
:40084000344A516C354B0B40E82189010B435364FFF75CFE01AC324D22002B00143343CB43C243CB43C243CB43C221002D4800F021F924220021200001F012FC01230193B3
:400880002100294800F016F924220021200001F007FC264BE3602100254800F00BF922002B00383343CB43C243CB43C243CB43C22100204800F0FEF824220021200001F01E
:4008C000EFFB8623019321001B4800F0F3F822002B005C3323CB23C223CB23C223CB23C22100164800F0E6F8154923000A0023CA23C323CA23C323CA23C32100114800F062
:40090000D9F8FFF7EBFD0AB070BDC046000026400C05000000002740FF00FFFFFFC5FFDF4C21001000003240800032400086660680023240000332408003324000043240F7
:40094000CC21001000063240214B984230D00ED8402831D004D800281FD010282AD031E080282BD080235B00984229D02AE0194B984229D007D8A0231B0698420DD0164BA7
:40098000984212D01EE0154B98420AD0144B984209D0144B984215D101E0002016E0124814E0124812E0124810E0A020C0030DE007480BE00F4809E00F4807E00F4805E0F9
:4009C000034803E00E4801E0A420C0037047C04606005200010000F0090000A0040000F0050000F0030000F00100520002005200030052000100500002005000050052008A
:400A0000FF00520070B5124B1A683123D35C002B04D1C421FF310F4800F01CFE0C4B1D682C00B423EB582A6A944663441B68002B0BDB094B1868FFF787FF6B6801229A605D
:400A400063689B68002BFBD100E0044870BDC04648080008F0210010E80700080200500010B50D4B1861002805D002230370FD33437000234380094B1B6850229A5C002A33
:400A800008D051229B5C002B04D04F3A0449002000F0F8FA10BDC046E8070008480800086101000810B502481430FFF7D9FF10BDE807000870B505000C0000285DD00029F8
:400AC0005DD0FF230A689A4303D099212D4800F0C1FDFF2322699A4303D09A21294800F0B9FDA3685B0D03D09B21264800F0B2FD63685B0A03D09C21224800F0ABFDE3695C
:400B00005B0F03D09D211F4800F0A4FD236A5B0F03D09E211B4800F09DFD1B4A11688B69EB1ADB0949691B01CB18216829607D211068415C6918E06808607E211068415C36
:400B40006918206908607F211068415C6918606908607C211068415C6918A06808606168A961116880228A5CAD18A2692A60E2691A60226A5A60002002E0044800E0034847
:400B800070BDC046302200104808000801005A0070B504000D000A4B1A68B423D3581B181B68002B0ADA0B0C03D00649064800F051FD2D042D0C6560002000E0034870BDAD
:400BC00048080008D5020000B022001001008A0070B505000C000368002B01DA002300E0084B002B0BD1EA60230C03D00649074800F030FD2404240CAC60002000E00148A1
:400C000070BDC04601008A00BB020000B022001070B505000C1E03D19921084800F01AFD074B1A68B423D3585B191B68002B03DAEB682360002000E0024870BDF0220010DA
:400C40004808000801008A0070B504000D00234B1A683123D35C834236D9002936D00B68DB0635D13123D35C984204D3C421FF311B4800F0EFFC194B1B681A6AB0215B5A13
:400C80005C431419174E34602B68DA080021686801F006FA00212000FFF77AFF3468002D03D111490E4800F0D5FC2A0000212000FFF78EFF00280DD10A4B18680021FFF77A
:400CC00067FF002808D108E0084806E0074804E0064802E0064800E0054870BD48080008B0220010000800089303000003018A0001018A0010B50400002A17D1002915D180
:400D0000124B1A683123D35C984204D3C421FF310F4800F09FFC0D4B1B681A6AB0215B5A5C4314190B4B1C6000200EE0002A09D0002909D0074B59609A60191D2000FFF7C2
:400D400083FF02E0044800E0034810BD48080008B02200100008000803018A00F0B583B00D001C4B1B68DC68236883422DD947097B01C01A012383401E00002903D100F0F2
:400D800028FD019001E000230193124B18680368002B01DA002300E00F4B002B0ED16368BF00DF193B68334203D0B3433B60002400E00A4C0021FFF7EBFE00E0084C002D77
:400DC00004D1019800F009FD00E0064C200003B0F0BDC0460008000801008A00020188000301880004018A000A4B1B68DA68136883420BD943095901401A012181405268BB
:400E00009B009B580B4203D0034802E0034800E003487047000800080101880004018A0000018800034B1B68002B01D1014B18607047C0460C080008F0B5474680B4040023
:400E40000F0090461E002D4B1B68002B03D1B5212B4800F0FFFB294B1B682C2060431C18FF22150035402560330A13406360360CA660244B1A683123D35C9D4204D3C4214E
:400E8000FF31214800F0E6FB1E4B1A68B023D35A6B43116A8C466344236166683223D35C9E4204D3E021FF31174800F0D3FB154B1B681D6A80367601AD196561A668330CF0
:400EC00004D0FF214900104800F0C4FB330C03D00E490D4800F0BEFB3604330C1E43AE604346E36127620023A361069B002B02D000229B5EA38104BC9046F0BD0C080008A6
:400F00003023001048080008B0220010FF010000F0B58FB0041E03D15221294800F09AFB6368032B03D95421254800F093FBE36A002B03D15821224800F08CFB236B002B3D
:400F400003D159211E4800F085FB07AA1300210061C961C321C921C302AD290023001433C1CBC1C141CB41C10821535E0CAE3380144B1B6836215B5E07998C466344B37079
:400F8000089B0D930B9B0A980096A26AE16AFFF753FF2B69E868002200920021FFF74CFF216B300000F0E8FA0023F25E002A05DB1F231A401E3B9340034A13600FB0F0BD78
:400FC000302300104808000800E100E0F8B505000F0016001C00002A03D1FD21224800F039FB224B1B68002B03D1FE211E4800F031FB1E4B1B682C21280048431818794370
:401000005918012213004D68AB401B044568AA4015000269002A20D08F69002F1FD11268002A01DA002200E0114A002A19D132681204120C134333600369DE6001238B61A1
:401040004C6204692B0C03D00A490B4800F002FB2A04120CA260002004E0084802E0084800E00748F8BDC046302300100C08000801008A00BB020000B022001004028A00C1
:4010800007028A0070B504000D0016000F4B1B68002B04D1AF2149000D4800F0DBFA0B4B1B682C2060431C18236A002B04D1B1214900074800F0CEFAE369B34204D9236AEB
:4010C000B6009D51002000E0024870BD0C080008302300100A028A0070B582B0040000230193002804D1D221FF312D4800F0B2FA2369002B04D1E9214900294800F0AAFA99
:401100006369002B04D1D421FF31254800F0A2FA236A002B04D1EA214900214800F09AFA6269D5682B0C24D01B041360136820691C4B1A68B423D358C3181B68002B18DAC8
:4011400001A9FFF765FD00280ED1019803681E0CFF221340E269934207D29B00226AD358002B02D0984700E0002631002069FFF70FFD2D042D0C0FD063691D601B68636AF9
:40118000002B03D098470023636203E0A36A002B00D098470023A36163691B6802B070BD302300104808000810B50400084B1B68002B04D1B221FF31064800F04BFA044B1C
:4011C0001B682C2060431818FFF786FF10BDC0460C0800083023001010B50400094B1B689B6CC340DB0703D4BE21074800F032FA044B1B681B691034A402E3580F201840D1
:4012000010BDC0464808000870230010134B1A683C23D35C83421DD9042904D94B1EFF3B9BB2132B18D8FF290CD91F2319400C4A0300C0339B009950D0308000042383509D
:4012400000200AE007231940D0308000044BC150002002E0034800E002487047480800080000264001004A0070B5041E03D14A494A4800F0EFF9B023DB00494AD358002B1B
:4012800000DA87E0474B22689A4203D94649434800F0E0F923689B039B0BE279002A02D08022520400E000221343B022D2003C498B50A2883D4B9A4204D98C21890037489C
:4012C00000F0C8F922893A4B9A4203D93949334800F0C0F9A388DB04D90C23891B04364A13400B43354A2E498B50A37A0F2B04D98E218900294800F0ADF9E37A0F2B03D91D
:401300002F49264800F0A6F9A289284B9A4203D92C49224800F09EF9A37A0F211940E27A1201FF2313400B43A289120226490A401343A27B1207C02189050A401343B1223E
:40134000D20017498B50A379042B03D91F49134800F080F9228A164B9A4204D9912189000E4800F077F90E4819494558194B1D40A3791B02E022D20013402B434350455842
:40138000154B1D40238A1B040B4A13402B434350002000E0114870BD1F020000B023001000002640FFFF030029020000FF1F0000FF010000310200000000FF018405000005
:4013C000390200003A02000000FF1F00430200008C050000FFF8FFFFFFFF00FE03004A0070B505003149324A8B588020000603438B502C0003E0012000F020F9013CB2232F
:40140000DB002A4AD3585B0701D4002CF3D12749B122D2008858274B03408020800503438B50002D01D0002C0CD02049B022D2008B588020000603438B5003E0012000F06A
:40144000FDF8013CB223DB00184AD358DB0701D4002CF3D1002D01D0002C08D01349B122D2008B58C020800503438B5013E00F4BB121C90058580F4A02408020800502434D
:401480005A5008395A58520052085A5008495A58520052085A50002D03D0002C03D0002002E0002000E0044870BDC046000026408C050000FFFFFFCF02004A0070B5050027
:4014C0000C001A4B1B6828229A5C012A15D1820807211000884327D19200AD1AED00FF20A8401B6820339A181168AC4023004B40184004004C40146016E03A229B5EDBB206
:40150000994203D176210A4800F0A4F8074B1B681B68072215408022120615438022920194466444A400E55070BDC046480800083824001070B504000D000B4B9A680B4B34
:401540009A420CD1002904D13821FF31084800F081F81034054BA400E058E55003E01034A400044BE05870BD00ED00E0000000083824001000000010F0B5474680B482B065
:40158000061E01914AD04368032B03D93221264800F060F80023F05E002804DBB178FFF78DFF002400E0214C0023F15E7368002912DB88081E4FC0308000C55903221140A5
:4015C000C900FC3290468A4095439A01434613408B402B43C35116E089B20F220A40083A92080632920013481018476803221140C900FF252A008A4097439A012B001340EA
:401600008B403B4343600B4B9A680B4B9A4206D10023F05E0199FFF78DFF00E0034C200002B004BC9046F0BD382400100100560000E100E000ED00E00000000810B5034B20
:401640001B78584300F0BCF810BDC046D400000801BEFEE770B50D00044C18220100200000F026FDA5610020FFF7F2FF00060008054B802212069A649B6C002B01DB002004
:4016800000E002487047C0460000274003004600054B8022120198585B68FF221A4202D08023DB021843704700002640FEE7C04610B50A4B0268DA6142681A6282685A621E
:4016C000C2689A620269DA6242691A6382695A63C2699A63FFF7EAFF10BDC04600060008F0B5474680B4002801D0192300E064238B429B415B42304D2C682268A826A45BB5
:40170000A41822680327BA433B401A4322602C682268A45BA2181668284CA046264016602C682668AA229446A25A96193268BA43134333602A6813686546525BD3181A6892
:40174000444614401C60002805D010291BD921291BD8012024E0184B1B6855229A5C914215D956229A5C914213D957229A5C914211D958229A5C91420FD959229B5C99429E
:401780000DD804200CE000200AE0022008E0002006E0012004E0022002E0032000E00520054A1268526813680F218B430343136004BC9046F0BDC04648080008FFFCFFFF9A
:4017C0000230800803D001300238FCD1C046C0467047EFF3108072B6704780F31088704710B5B0235B059B899BB2002B04D0B0235B059B899BB201E080235B00802252006F
:40180000934215D1184C23681968683A9B58C9180B680F208343963A13430B6021680C689C23CB58E318196881430A431A6019E00D4C2368196898229B58C918B020400527
:401840000A4BC2580A4B13400A681343C022920013430B60226811689C23D358CB18054A82581A6010BDC0464808000848180000FFFCFFFF4418000030B5B0235B059B89C5
:401880009BB2002B04D0B0235B059B899BB201E080235B0080225200934215D1184C23681968683A9B58C9180B680F208343953A13430B6021680C689C23CB58E318196871
:4018C00081430A431A6019E00D4D2B68196898229B58C918B0246405C12040012258094B13400A681343C022920013430B602A6811689C23D358CB1822581A6030BDC0462C
:4019000048080008FFFCFFFFB0235B059B899BB2002B04D0B0235B059B899BB201E080235B008022520093420DD1104B1B681A6898215B58D21811680D4B0B40C021C9010C
:401940000B43136011E0094B1B68196898229B58C918084BB0225205D258074B13400A681343C022920013430B60704748080008FF8FFFFF18180000FFFCFFFF30B5B0230B
:401980005B059B899BB2002B04D0B0235B059B899BB201E080235B008022520093420DD1134B1B681A6898215B58D2181168114B0B408021C9010B43136018E00C4D2B6844
:4019C000196898229B58C918B02464050A4822580A4B13400A681343C022920013430B602A6811689C23D358CB1822581A6030BD48080008FF8FFFFF4C180000FFFCFFFF30
:401A000010B5B0235B059B899BB2002B04D0B0235B059B899BB201E080235B0080225200934217D10020FFF7D7FBB0235B055B78002B04D0B0235B055B78DBB200E0212366
:401A4000222B03D8002803D1013004E0012002E0002000E0012010BD30B585B004000D00022807D9042805D0032803D02A492B48FFF7F0FD6B1EDBB2012B07D9042D05D017
:401A8000082D03D026492548FFF7E4FDA400254BE458042D13D0012D1CD112E0A3682B420BD1E3681A6802925B6801930393290002A8236898471B4B5C61646902E0002029
:401AC00000E00020002C24D0174B9842E6D1012DE4D11EE0022D01D104E01C006369002BFBD104E00F4B5C69002C00D0246900200DE0A3682B4209D1E3681A6802925B681F
:401B000001930393290002A8236898472469002CEFD105B030BDC046B20900007C240010B309000010080008FF004200F8B50700012803D93D493E48FFF78CFDB0235B051E
:401B40005B78002B04D0B0235B055B78DBB200E021239DB2B0235B059B899BB2002B04D0B0235B059E89B6B201E0802676000020FFF732FB002814D180235B009E4212D11A
:401B8000222D12D82B4B1B685C682B4821582B4B19403B068022520413400B432350002404E0274C02E0264C00E0254C80235B009E4201D1222D03D880235B009E4232D04D
:401BC0001C4B1A683123D35C002B04D1C421FF311C48FFF73FFD174B1B681D6A80235B009E4203D1002F05D0174A06E0002F03D0164A02E0164A00E0164A01212800FEF742
:401C0000E7FF00280FD10B4B1A68B423D3585B191B68002BF7DBEB681B0E1B06A0221206934200D100242000F8BDC0464C0A00007C2400104808000818F00000FFFFFFFE6B
:401C400004004200F0210010010100300300000C010000300100000CF8B50500012804D9822109012948FFF7F5FCFFF7C9FE002849D0FFF7AEFD0700002D11D10021244B7C
:401C8000244AD150E823DB00B0225205D65CF6B20120FFF74BFF041E19D1FFF7A1FD16E0B02252051C4BD0581A4B194958501B49565CF6B21A481A581F218A4314390A4355
:401CC0001A500320FFF7BAFCFFF758FE0024002C15D11049124A8B581F20834306401E438E50002D02D1FFF70FFE08E00720FFF7A5FCFFF7C1FD0020FFF718FF0400380041
:401D0000FFF76BFD00E0074C2000F8BD7C240010307F00000000264010180000410700001CFF00000300420010B5041E03D115491548FFF78FFC154B1A68D168F222D201AF
:401D40008A5822601B68F022D201D9688A5862600F4AD9688A58A2600E4AD9688A58E2600D4AD9688A5822610C4AD9688A5862610B4AD9688A58A261DA680A4BD358E361BD
:401D800010BDC046A10A00007C2400104808000804780000087800000C78000010780000147800001878000010B5041E03D114491448FFF74FFC144B1B68F022D201D968BC
:401DC00060688850114AD968A0688850104AD968E06888500F4AD968206988500E4AD968606988500D4AD968A06988500C4AD968E0698850DA682168F223DB01D15010BDFC
:401E0000C90A00007C2400104808000804780000087800000C78000010780000147800001878000070B50500012804D9A62189003548FFF70FFC354B5B68002B05D0012140
:401E40000120FFF709FE040000E00024002C53D1FFF7BFFC06002D4B5B68002B03D004210120FFF7F9FD2A4B1B6843229A5C002A08D09A68E023D358DB0603D523481830D9
:401E8000FFF752FFB0235B059B899BB2002B04D0B0235B059B899BB201E080235B0080225200934203D1280000F022F909E0194A116904230B431361012D01D030BF00E068
:401EC00020BF134B1B6843229A5C002A08D09A68E023D358DB0603D50C481830FFF764FF3000FFF77AFC094B5B68002B09D008210120FFF7B1FD04E002210120FFF7ACFD7B
:401F0000054C200070BDC0467C240010100800084808000800ED00E0FF004200042805D10B4A116804230B4313600FE0094B1A681168A023D358CB180006C0229204104032
:401F40001860034A136804218B4313607047C04610E000E0480800080749C02252008B589B009B088020C00503438B508B588020000603438B50704700002640014B186020
:401F80007047C04648080008002243088B4274D303098B425FD3030A8B4244D3030B8B4228D3030C8B420DD3FF22090212BA030C8B4202D31212090265D0030B8B4219D329
:401FC00000E0090AC30B8B4201D3CB03C01A5241830B8B4201D38B03C01A5241430B8B4201D34B03C01A5241030B8B4201D30B03C01A5241C30A8B4201D3CB02C01A52419E
:40200000830A8B4201D38B02C01A5241430A8B4201D34B02C01A5241030A8B4201D30B02C01A5241CDD2C3098B4201D3CB01C01A524183098B4201D38B01C01A52414309F1
:402040008B4201D34B01C01A524103098B4201D30B01C01A5241C3088B4201D3CB00C01A524183088B4201D38B00C01A524143088B4201D34B00C01A5241411A00D2014600
:40208000524110467047FFE701B5002000F006F802BDC0460029F7D076E770477047C04603008218934202D019700133FAE77047030030B5002A0DD00C7801335D1E013A5A
:4020C0002C700131002CF5D19A189A4202D01C700133FAE730BD0000F8B5C046F8BC08BC9E467047F8B5C046F8BC08BC9E46704701B40248844601BC604700BF350300087A
:402100000300000001000000010000000000000005036000040000000100000000000000010000000604600008000000C8070008B501001073797374656D5F70736F63362E
:402140005F636D30706C75732E630000F4010000140004010A000905080000006301000013000000100000000002000066060A00000000000000000000000000000000007E
:4021800000000000000000000000000000000000000000BA0000000000000000000000000000000000001D1DFE00000000000000000000000000000000000000000000002D
:4021C00000000000000404000000000007000000000000000000000086660000000000000000000000000000141414000000000047656E6572617465645F536F7572636549
:402200005C50536F43365C70646C5C647269766572732F7065726970686572616C2F6970632F63795F6970635F6472762E68000047656E6572617465645F536F75726365B4
:402240005C50536F43365C70646C5C647269766572735C7065726970686572616C5C6770696F5C63795F6770696F2E630000000047656E6572617465645F536F75726365B7
:402280005C50536F43365C70646C5C647269766572735C7065726970686572616C5C6770696F5C63795F6770696F2E680000000047656E6572617465645F536F7572636572
:4022C0005C50536F43365C70646C5C647269766572735C7065726970686572616C5C6970635C63795F6970635F6472762E68000047656E6572617465645F536F757263656D
:402300005C50536F43365C70646C5C647269766572735C7065726970686572616C5C6970635C63795F6970635F6472762E63000047656E6572617465645F536F7572636531
:402340005C50536F43365C70646C5C647269766572735C7065726970686572616C5C6970635C63795F6970635F706970652E630047656E6572617465645F536F757263658F
:402380005C50536F43365C70646C5C647269766572735C7065726970686572616C5C70726F745C63795F70726F742E630000000047656E6572617465645F536F757263654A
:4023C0005C50536F43365C70646C5C647269766572735C7065726970686572616C5C737973636C6B5C63795F737973636C6B2E630000000047656E6572617465645F536F11
:40240000757263655C50536F43365C70646C5C647269766572735C7065726970686572616C5C737973636C6B5C63795F737973636C6B2E680000000047656E6572617465A1
:40244000645F536F757263655C50536F43365C70646C5C647269766572735C7065726970686572616C5C737973696E745C63795F737973696E742E630000000047656E656B
:4024800072617465645F536F757263655C50536F43365C70646C5C647269766572735C7065726970686572616C5C737973706D5C63795F737973706D2E630000000020407A
:4024C00000002440000000400000000000002340000030400000314000009F40000022400000104002020202020202020210101D800017007500FF0306020636041020008E
:40250000000000007FC0000000040000000000000019324B647D00804000080B100000000000FF012002001F00800004FF081018001000140018001C4044484C500000004A
:40254000081000000800000004000000041000000012000004210000002100000016000040114002C41300138013A013200000001C000000000021400000254000000140AF
:402580000000344000002440000031400000324000001F410000234000001140010101010101010101101010800019005500F0000501053B04101C01010000000FC00000EE
:4025C0000004000001010101011D3A57789600082000101208000000001F00000010000F002000023F06080E00080009000A000B24282C3034000000100000009000000067
:4026000088000000080000008000000004F0000000F00000400200002005A000D00100018001A0012000000010000000000000000000001000000008C0000000502600101D
:40264000C0000008400500003C060008100200000048E80100127A0000093D0000093D0000093D0004000000A00F00000000D007E9000010C10000100000000010B5000445
:40268000400B27D0144B1A68146AB023D15ACA00531AE3181B68002BF4DA3E220F4B1A600F4A104B1A60104B0621A322D20099500E4A98509B58084B1A68106AB023D15AE9
:4026C000CA00531AC31800225A60084B064AD358002BFADA10BDC04648080008040126401E1F000008012640000026401C05000010B54378FF2B20D100F02AFA04000F4B49
:402700001A683123D35C042B04D8C421FF310C4800F016FA094B1A68116AB023D35A9B00CB18DB685A68116801230B4313601368DB07FCD4200000F023FA10BD480800086F
:40274000F0210010F0B585B001900291544B1A683123D35C002B04D1C421FF31514800F0EFF94F4B1B681E6AB4229A58971950229B5C002B77D000F0DBF9050003283CD117
:40278000474B1A683123D35C062B04D8C421FF31444800F0D5F9424B1968B023CB5A5A00D21853000A6A94466344B4228A58D3181B68002B23DB002000F0B2F93A4B98421B
:4027C0001FD03A4B1A6900230021012000F0A0F9002803D0364C17E0013400E00024002000F09EF9304B984202D0324B9C42F3D9304B9C4207D92E4C06E0002404E02C4C39
:4028000002E02B4C00E00024002C46D100F0A0F90390294B294AD358002B13DA234A0121300000F09DF900280ED10298FFF726FF019B002B0AD03B68002BFCDB00F098F9EA
:40284000040004E01A4C02E0194C00E01C4C032D05D10121002000F053F90028F9D1039800F08EF919E000F073F905000F4A0121300000F075F9002809D1019B002B08D0EF
:402880003B68002BFCDB00F073F9040002E0084C00E00B4C280000F073F9200005B0F0BD48080008F021001001018800E807000805005200EF4902001C050000000026408E
:4028C00001005000F0B54F464646C0B4824B1A685468B0235B055B78002B04D0B0235B055B78DBB200E02123212B67D1B023D15ACB005B1A116A8C46634419680029F5DA57
:40290000DD6802212943D960B023D15ACB005B1A116A8C466344D968C9073ED5D9680904090C8C4684271168D559A84641440968090A0904FF26360431400D0088261168A5
:40294000894691598846C14449460968090A0906294365462943D9601168D359C9180A685E4B98461A4090252D012A430A605A4B99461A6813689C46925962441368414664
:4029800019400B002B4313604B461A681568D15969180B689359EB181B684F4B1A68B021555AEB005B1B156AAC46634400255D60156A515ACA00531AEB185B68484A116988
:4029C00004230B431361012801D030BF00E020BF414B1A68B023D15ACB005B1A116A8C46634419680029F3DAB02149054978002904D0B02149054978C9B200E021212129EB
:402A000032D1D968C90722D510688421525880180468324A1440DB681B0C1B02FF2109020B40234303602C4B19688823C8580B689C46604403681A400D6AB023CC5AE10058
:402A40000B1BEB18DB681B0E1B021A430260224B1A68106AB023D15ACA00531AC318DA6802218A43DA6028E086235B00E358002B23D11C4807681C4BA321C9005E581B4AB8
:402A8000904615681A4A0260062058503E21424611600631174A9950164B134AD358002BFADA154A86235B00E2500E4B1F60A323DB000D4AD6500D4B1D60074B1A68106AC0
:402AC000B023D15ACA00531AC31800225A600CBC90469946F0BDC04648080008FF00FFFF00ED00E00801264000002640040126401E1F00001C050000AAAAAAAA0000000052
:402B000001B40248844601BC604700BF5D0D001001B40248844601BC604700BFCD0F001001B40248844601BC604700BFE90D001001B40248844601BC604700BF390400102C
:402B400001B40248844601BC604700BF5516001001B40248844601BC604700BFD317001001B40248844601BC604700BFD10B001001B40248844601BC604700BF050A001025
:402B800001B40248844601BC604700BFDB17001000000000000000000000000000000000000000000000000000000000000000000000000000000000000000000000000027
:402BC00000000000000000000000000000000000000000000000000000000000000000000000000000000000000000000000000000000000000000000000000000000000D5
:020000041008E2
:4000000000780408EB0208100D0000005103081051030810510308105103081000000000000000000000000000000000D16708104D0308100000000071680810D56808107C
:400040004D0308104D0308104D0308104D0308104D0308104D0308104D0308104D0308104D0308104D0308104D0308104D0308104D0308104D0308104D0308104D03081000
:400080004D0308104D0308104D0308104D0308104D0308104D0308104D0308104D0308104D0308104D0308104D0308104D0308104D0308104D0308104D0308104D030810C0
:4000C0004D0308104D0308104D0308104D0308104D0308104D0308104D0308104D0308104D0308104D0308104D0308104D0308104D0308104D0308104D0308104D03081080
:400100004D0308104D0308104D0308104D0308104D0308104D0308104D0308104D0308104D0308104D0308104D0308104D0308104D0308104D0308104D0308104D0308103F
:400140004D0308104D0308104D0308104D0308104D0308104D0308104D0308104D0308104D0308104D0308104D0308104D0308104D0308104D0308104D0308104D030810FF
:400180004D0308104D0308104D0308104D0308104D0308104D0308104D0308104D0308104D0308104D0308104D0308104D0308104D0308104D0308104D0308104D030810BF
:4001C0004D0308104D0308104D0308104D0308104D0308104D0308104D0308104D0308104D0308104D0308104D0308104D0308104D0308104D0308104D0308104D0308107F
:400200004D0308104D0308104D0308104D0308104D0308104D0308104D0308104D0308104D0308104D0308104D0308104D0308104D0308104D0308104D0308104D0308103E
:400240004D0308104D0308104D0308104D0308104D0308104D0308104D0308104D0308104D0308104D0308104D0308104D0308104D0308104D0308104D0308104D030810FE
:400280004D0308104D0308104D03081010B5054C237833B9044B13B10448AFF300800123237010BD547E020800000000A0630910084B10B51BB108490848AFF30080084875
:4002C000036803B910BD074B002BFBD0BDE81040184700BF00000000587E0208A063091020780208000000007047FFF7FDFF72B6104C114DAC4209DA21686268A368043B18
:40030000A2BFC858D050FAE70C34F3E70B490C4A00209142BCBF41F8040BFAE709480A490860BFF34F8F00F03FF900F019F900F01DF8FEE7A4630910BC630910547E0208FC
:4003400074AA03080040020808ED00E0FEE7FEE700B504207146084202D0EFF3098001E0EFF30880043004F063FDFEE700B583B062B601F055FB02F001F900240194012590
:40038000009523464FF4C87209490A4805F00CFC0194009523464FF4C8720749074805F003FC05F033FC02F077F80028FBD1FEE720E40810FD0A081030E40810810B081015
:4003C00008B5012004F0E8FA08BD00BF704700BF5C4AD2F8803303F00F0303F1D00152F8212002F00702032A04D0042A05D092B9554914E0554A116811E003F1C0025149A2
:4004000051F8222002F01F02112A06D0132A04D04FF4FA4103E04E4901E04FF400418BBB484BD3F8902502F00100D3F88825C2F30172D3F8883513F0405F07D0414BD3F85B
:400440008835C3F30173012B02D102E0012300E0002303B108B9032A46D13A48D0F88025C2F31103D0F88425C2F30C02D0F88005C0F300600130B1FBF2F202FB03F2B2FB28
:40048000F0F131E0012B2FD12E4BD3F8402602F00100D3F80026C2F30172D3F8003613F0405F07D0274BD3F80036C3F30173012B02D102E0012300E0002303B108B9032AA7
:4004C00012D12048D0F8002602F07F02D0F80036C3F30423D0F80006C0F3044002FB01F2B2FBF3F2B2FBF0F1164BD3F88033C3F3011321FA03F215494A601648D0F89030F9
:40050000C3F3072301330069000E0130B2FBF0F08860B2FBF3F3CB600B6103F5742202F23F220D48A0FB0202C2F387420A7503F2E7330A4AA2FB03239B098B61DB03CB61CC
:40054000704700BF0000264000127A008C42020800366E010000214083DE1B43D34D621008B50D4804F050FDFFF730FFFFF730FF00221146042003F0D7FF084804F06AF83B
:40058000074B1B6893F8513013B1064804F0D2F803F098FE08BD00BFA8EC0810707E020844A8030840E4081008B504F09EFC074AD2F8883043F47003C2F88830BFF34F8FDC
:4005C000BFF36F8F04F095FC08BD00BF00ED00E0104B5A6910225A615B690F4BB3F90030002B09DB5A0903F01F03012101FA03F360320A4941F82230094B1B78022B03D17E
:400600000122074B1A707047012B02D10222044B1A70704700003240B0E6081000E100E0AC42020810B404460068012305E054F82320904200DA104601338B42F7DB5DF840
:40064000044B704710B404460068012305E054F82320904200DD104601338B42F7DB5DF8044B7047F8B506460F4601F077F90546064C3B4632460146204601F00DF841F218
:40068000B062294620460DF01FFAF8BDF07F02082DE9F041ADF57A7D80460F46164601461046FFF7BFFF1E4C84FB0035C017C0EB650541463046FFF7C5FF84FB0034C0171C
:4006C000C0EB64044FF47A72002168460DF022FA0021084614E056F82120114B83FB02E3D217C2EB630346F821301B1B2A1B02FB03F36A0093FBF2F32DF810300130394436
:40070000B1F5FA7FE7DB074BC3F800D032230122FA21684607F0CAFF0DF57A7DBDE8F08167666666B05A030870B59AB006460D46134807F011FD002007F03EFD96220A219A
:40074000104807F0A1FF104C324621460DA80DF0E9F996229B210DA807F096FFA0220A210A4807F091FF2A46214668460DF0DAF9A0229B21684607F087FF1AB070BD00BF8C
:40078000C8ED081074E4081090E4081094E4081008B507F0ADFD142000F06AFF012000F06FFF012007F08CFC002007F0CBFC6FF07F4007F0BDFC07F069FD08BD10B50446F9
:4007C000AF2340F207120121084606F069FE042007F076FC0F23F3221946142008F00AFA154807F0B9FC022007F0E6FC05228421124807F049FF124807F0AEFC002007F031
:40080000DBFC1E2211460F4807F03EFF3C221E210D4807F039FF5A221E210C4807F034FF78221E210A4807F02FFF02222146102007F022FB10BD00BFB0320910B0E4081013
:40084000FCFB0810B8E40810DCE4081004E5081028E5081000B58FB0114807F07DFC022007F0AAFC052284210E4807F00DFF0E4807F072FC002007F09FFC3C220A210B48CD
:4008800007F002FF0A4B5A680A4901A80DF04AF93C22962101A807F0F7FE0FB05DF804FBB03209104CE50810FCFB08105CE50810AC42020890E4081008B50E4807F04CFCAE
:4008C000022007F079FC052284210B4807F0DCFE0A4807F041FC002007F06EFC3C220A21074807F0D1FE5A220A21064807F0CCFE08BD00BFDC11091078E50810FCFB081011
:4009000090E50810B8E5081030B59BB0194807F023FC022007F050FC05228421164807F0B3FE164807F018FC002007F045FC3C220A21134807F0A8FE124DAA68124C21461F
:400940000DA80DF0EFF83C2296210DA807F09CFE5A220A210D4807F097FEEA68214668460DF0E0F85A229621684607F08DFE1BB030BD00BFDC110910E0E50810FCFB0810F3
:40098000F0E50810AC42020890E408100CE6081008B5164807F0E0FB022007F00DFC144B1B78022B08D1134A134B1A6005228421124807F069FE09E0012B07D1104A0E4B5C
:4009C0001A60052284210F4807F05EFE0E4BD3F84011D3F84401FFF7A7FE074B1A6802214FF47A70FFF754FE08BD00BFDC110910AC420208BC420208B85A030828E60810AE
:400A00007C5D020840E60810947502080649D1F848310A3B054A82FB03021A44DB17C3EB2213C1F84C317047947502088988888808B5154BD3F84C31013B032B1FD8DFE8FA
:400A400003F002091017FFF705FF02220E4B83F8502108BDFFF730FF03220B4B83F8502108BDFFF751FF0422074B83F8502108BDFFF78EFF0522044B83F8502108BD01229C
:400A8000014B83F8502108BD9475020808B5194B93F8B8350BB1FFF7B9FF174B93F85031012B25D1134B93F8B9352BB1124AD2F848311E3BC2F848310E4B93F8BA352BB106
:400AC0000D4AD2F848311E33C2F848310A4BD3F84831272B03DC8222074BC3F84821064BD3F84831822B03DD2822034BC3F8482108BD00BFE89002089475020838B50020F0
:400B000003F008FB0024254600F0A8FF022001F045FA80B2194BA3F8BC05002001F02AFA18B10124154B83F8BE45012001F022FA20B10124114B83F8B8450FE0022003F058
:400B4000A9FA542806D05C2808D101240B4B83F8B94503E00124094B83F8BA4501F0FAFB01F00CFD0535284603F0D4FA14B1FFF78DFF0024322005F08DF9C5E7E8900208AA
:400B800008B53B4C3B49204604F0E4F8B4F90030002B08DB5A0903F01F00012181406032354840F82210002B08DB590903F01F03012202FA03F3304A42F82130FFF7E8FD01
:400BC0002E4BD3F84801FFF7F9FD01210846FFF749FD2B4B93F8B9351BB9294B93F8BA35ABB1264B93F85031012B10D107F04EFB224BD3F84801FFF7E1FD01210846FFF73E
:400C000031FD1F4B002283F8B92583F8BA251C4B93F8B8355BB107F039FBFFF709FF01210846FFF71FFD0022154B83F8B825144B93F8BE35B3B1114B93F85031012B11D021
:400C40000E4D012485F8504107F020FBD5F84801FFF7B4FD21462046FFF704FD0022084B83F8BE254FF47A7005F014F9B1E700BFB0E60810D105081000E100E0947502088A
:400C8000E89002082DE9F04180460E4617460A4C08256560702000F06FFD404600F06CFDA5606560722000F067FD3946304600F0C7FDA560BDE8F0810006324000B583B00D
:400CC00002AB03F8011D01221946FFF7DBFF03B05DF804FBF8B507460E46094C08256560702000F049FD384600F046FDA5606560732000F041FD304600F06EFDA560F8BDB3
:400D00000006324038B50425084B5D60084C402363601023636000F0FFFC0822054B5A6065602023636000F0E1FC38BD00003240800232400006324010B5434C6F22002115
:400D400020460CF0E7FE631C236704F14E03636704F12203A36700F0C9FC03E000F0D0FC032868D800F0AEFD0028F7D100F0CEFC00217220FFF7AEFF00F00F0002285CD13F
:400D80004021FFF79BFF00210F20FFF7A3FF10F0800F54D002210B20FFF790FF08222B490120FFF76FFFD1210720FFF787FF02210820FFF783FFC2210920FFF77FFF0321B5
:400DC0000420FFF77BFF01210320FFF777FF00210320FFF773FF0A2003F0F6FF002400E01C4601210520FFF769FF642003F0ECFF03210520FFF762FF322003F0E5FF0F218A
:400E00000520FFF75BFF322003F0DEFF00210F20FFF760FF10F0400F05D040210220FFF74DFF234603E0631C9BB2042CD8D1032B07D9052010BD012010BD022010BD03209C
:400E400010BD002010BD00BFA896020854E6081010F1090F0EDB10F1040F0EDB05280FDD0A2810DD0F2811DD142811DD282811DC5A2210E04FF496620DE04FF461720AE008
:400E80004FF4167207E04FF4A57204E0DC2202E0B42200E03C22034BA3F87C20A3F87E20704700BFA89602082DE9F84F06460D46047828B1CA4B984205D10127002403E08D
:400EC0000127FF2400E0002700F010FC4FF00008D0E1C8EBC80AC8EB0A1ADFF80C930AEB090B6F22002158460CF014FE0BF1010EBC4BC3F870E00AF1480048440630586792
:400F00000AF1200AD14409F10209C3F878902022002397E10FB934780136032D00F29081DFE815F004006500C600270100EB030C14F0400F01D0C02100E080218CF80010BD
:400F400049B214F0100F02D04FF0300A01E04FF0200A4AEA01018CF8001014F0040F02D04FF00C0A01E04FF0080A4AEA01018CF8001014F0010F02D04FF0030A01E04FF068
:400F8000020A4AEA01018CF800100EEB020C14F0800F01D0032100E002218CF8001049B214F0200F02D04FF00C0A01E04FF0080A4AEA01018CF8001014F0080F02D04FF0B8
:400FC000300A01E04FF0200A4AEA01018CF80010013A92B214F0020F02D06FF03F0A01E06FF07F0A4AEA01018CF8001028E100EB030C14F0400F01D0802100E040218CF875
:40100000001049B214F0100F02D04FF0200A01E04FF0100A4AEA01018CF8001014F0040F02D04FF0080A01E04FF0040A4AEA01018CF8001014F0010F02D04FF0020A01E0FF
:401040004FF0010A4AEA01018CF800100EEB020C14F0800F01D0022100E001218CF8001049B214F0200F02D04FF0080A01E04FF0040A4AEA01018CF8001014F0080F02D002
:401080004FF0200A01E04FF0100A4AEA01018CF80010013A92B214F0020F02D06FF07F0A01E04FF0400A4AEA01018CF80010C7E000EB030C14F0400F01D0C02100E040215A
:4010C0008CF8001049B214F0100F02D04FF0300A01E04FF0100A4AEA01018CF8001014F0040F02D04FF00C0A01E04FF0040A4AEA01018CF8001014F0010F02D04FF0030A87
:4011000001E04FF0010A4AEA01018CF800100EEB020C14F0800F01D0032100E001218CF8001049B214F0200F02D04FF00C0A01E04FF0040A4AEA01018CF8001014F0080F2D
:4011400002D04FF0300A01E04FF0100A4AEA01018CF80010013A92B214F0020F02D06FF03F0A01E04FF0400A4AEA01018CF8001066E000EB030C14F0400F01D0802100E0F9
:40118000C0218CF8001049B214F0100F02D04FF0200A01E04FF0300A4AEA01018CF8001014F0040F02D04FF0080A01E04FF00C0A4AEA01018CF8001014F0010F02D04FF0DE
:4011C000020A01E04FF0030A4AEA01018CF800100EEB020C14F0800F08D0022107E000BFFFFF0F10A8960208BC5A030803218CF8001049B214F0200F02D04FF0080A01E041
:401200004FF00C0A4AEA01018CF8001014F0080F02D04FF0200A01E04FF0300A4AEA01018CF80010013A92B214F0020F02D06FF07F0A01E06FF03F0A4AEA01018CF8001074
:4012400001339BB2202B7FF665AEC8F1AF031BB299101A4A134003D5013B63F003030133174A02FA83F31B7A09F8013008F101081FFA88F8B8F1AF0F7FF62BAE00240FE0E4
:40128000C4EBC403C4EB03136F220E4919440A20FFF7F8FC07210220FFF710FD0134A4B2AF2CEDD9084BB3F87C4000F029FA8442E4D800F02BFABDE8F88F00BF030000804F
:4012C00054E60810BC5A0308A89602082DE9F04706460D4600F00AFAD2210920FFF7EEFC0024C6E0C4EBC407C4EB0717DFF8008207EB08096F22002148460CF00BFC09F1AD
:40130000010C784BC3F870C007F1480EC6440EF1060EC3F874E02037B84408F10208C3F87880202000218EE0771C32786E1C95F800900EEB010582EA090212F0400F04D021
:4013400019F0400F03D0802302E0402300E0C0232B705BB212F0100F05D019F0100F05D04FF0200A04E04FF0100A01E04FF0300A4AEA03032B7012F0040F05D019F0040F21
:4013800005D04FF0080A04E04FF0040A01E04FF00C0A4AEA03032B7012F0010F05D019F0010F05D04FF0020A04E04FF0010A01E04FF0030A4AEA03032B700CEB000512F07D
:4013C000800F04D019F0800F03D0022302E0012300E003232B705BB212F0200F05D019F0200F05D04FF0080A04E04FF0040A01E04FF00C0A4AEA03032B7012F0080F05D0B8
:4014000019F0080F05D04FF0200A04E04FF0100A01E04FF0300A4AEA03032B70013880B212F0020F05D019F0020F04D06FF07F0203E0402201E06FF03F0213432B700131D8
:4014400089B235463E4620297FF66EAFC4F1AF031BB29910244A134003D5013B63F003030133224A02FA83F31B7A08F801300134A4B2AF2C7FF636AF002421E0C4EBC40517
:40148000C4EB05151A4B1D446F2229460A20FFF7F9FB07210220FFF711FCC4F1AF0343F38D032B44002283F822206F2229460A20FFF7E8FB07210220FFF700FC0134A4B2F7
:4014C000AF2CDBD9074BB3F87E4000F019F98442D2D800F01BF9C2210920FFF7EFFBBDE8F08700BFA89602080300008054E60810BC5A0308002307E01349086F5522C254BD
:40150000496FCA5401339BB2202BF5D970B5002416E0A6080C4DAA6F04F003030B490B441B7A93556F2229460A20FFF7ABFB07210220FFF7C3FBAB6F00229A550134A4B248
:40154000AF2CE6D970BD00BFA896020854E6081008B5002304E00021094AD1540133DBB2152BF8D900210420FFF7A8FB6F2204490A20FFF787FB07210220FFF79FFB08BD1F
:40158000A896020838B50E4C1023A360142003F01BFC00F0D9F808220A4B9A604023A3600425A5600A2003F00FFC65600A2003F00BFCA5600A2003F007FCFFF7BDFB38BD81
:4015C000800232400006324038B5FFF793FFFFF7BFFF1E2003F0F8FB234C40256560322003F0F2FBA56000210F20FFF773FB10F0400F36D000210B20FFF760FB0121032077
:40160000FFF75CFB03210520FFF758FB01210520FFF754FB322003F0D7FB80210420FFF74DFB00210520FFF749FB01210720FFF745FB1E2003F0C8FB00F094F810236360C0
:401640006560142003F0C0FB0822084B5A60042363602025A5601E2003F0B6FB6560002038BD042038BD00BF800232400006324010B50446FFF746FB2046FFF7E9FB10BD05
:4016800008B510B1FFF77EFF01E0FFF79DFF08B9012008BD002008BDF8B507460E4614461D4613B10120FFF7EBFF24B931463846FFF70CFE15E0631EDBB2012B11D800215F
:4016C0003846FFF7F1FB012C07D101213846FFF7EBFB02213046FFF7E7FB03213046FFF7E3FB15B10020FFF7CBFFF8BD08B50022024BC3F8082100F069F908BD0000384030
:40170000014BD3F808017047000038400122014B5A6070470000384010B5074C074A0849204603F0ADF9236843F0004323600822044B9A6010BD00BF000067400CA7030861
:40174000B8E60810000632400822044B9A60044A136843F000431360704700BF000632400000674008B50249024803F0BDFA08BD0CA703080000674008B50146154803F007
:4017800021F9144BD3F8C03F13F0040FF9D0114BD3F8042242F48032C3F80422D3F8042222F48032C3F80422D3F80422D3F8042342F48032C3F80423D3F8042322F48032F0
:4017C000C3F80423D3F804230422C3F8C02FD3F8C03F08BD0000674008B50146174803F0F1F8164BD3F8C03F13F0040FF9D0134BD3F84003D3F8042242F48032C3F80422A0
:40180000D3F8042222F48032C3F80422D3F80422D3F8042342F48032C3F80423D3F8042322F48032C3F80423D3F804230422C3F8C02FD3F8C03FC0B208BD00BF000067409C
:4018400038B50C46054600B121B940F2E6511B4803F0DEFA22462946194803F0F9F8184AD2F80832C3F30803D2F80822C2F3C032D342F4D1124BD3F8042242F48032C3F813
:401880000422D3F8042222F48032C3F80422D3F80422D3F8042342F48032C3F80423D3F8042322F48032C3F80423D3F804230422C3F8C02FD3F8C03F204638BD60E60810DA
:4018C00000006740044B1B6913F0080F01D0012070470020704700BF8002324010B582B002AC012344F8043D00231A461449154806F01CFE214608F030FB08F08FFF60B16D
:401900004FF48472B021002009F06DF84FF48472B021002009F093F80BE0B0224FF48471002009F060F8B0224FF48471002009F086F80549002009F06DF802B010BD00BF60
:40194000F460091028610910FC760208012901D1002070474FF0FF30704700BF004870472897020808B5012003F090FD014B186008BD00BFD8AD020808B500231A46194689
:401980000248006803F0AEFC08BD00BFD8AD020808B54FF0FF31024B186803F0A1FE08BDD8AD020808B504F0CFFB08BD704700BF08B54FF40041034805F0C2FE024806F0AF
:4019C0002DFC08BDDCAD02086C59091008B5084B1B783BB9074A0021074803F08DFA0122034B1A70044B01229A609A6108BD00BFDC2D0308ECE608100000384008B5074B4B
:401A00001B7833B900F06CFA00F0E4FA0122034B1A7000F05DF801F025F808BDDD2D030810B5FFF7EBFF044610B900F017FF044614B900F08FFE044614B900F09FFD04469C
:401A400000F02AFD0028FBD100F0A6FB00F014FB0CB902F007FB204610BD00BF70B5194D0026344629E063090433174A52F8233004F01F02D34013F0010F1CD0EB7E012B8F
:401A800002D0022B09D011E0284600F0B3F806462946204600F0EAF90DE0284600F086F806462946204600F019F904E04FF4B871064803F0ADF930350134022CD3D9304653
:401AC00070BD00BF9CE7081030A7030838E70810F8B500230AE0204A191D02EB8100002444604FF0FF3042F821000133002BF2D01A4C03232CE06668A27E174B2B44002154
:401B00001976012A03D00AB3032A07D91EE02069E0B1228BF1790BF0FDFF17E023690BB1F2791A70676800260EE006F1080307EB43034FF6FF729A80A06A20B1114600EBEA
:401B4000460002F055FA0136002EEED030342B465D1E002BCFD1F8BD30A703089CE7081010B582B004460846638802A921F8083D1346228A05F026FCBDF8003063809DF872
:401B8000023023719DF8033063719DF80430A37102B010BD30B40B884A889C1A0025CD800079844200DDCC8030BC70472DE9F843C5688468038B4768867E4FF0000911E007
:401BC00032462146284600F03FFB32462146384600F050FB814621463846FFF7DBFF0A340A35434603F1FF38002BE9D14846BDE8F88300BF2DE9F04F83B08146837E062B56
:401C000002D14FF0010B01E04FF0000BD9F80C80D9F80840D9F804709A46D9F824600025019520E052462146404600F00DFB3246398A208805F0EEFB2A4631463846FFF717
:401C40008FFF0C3652462146384600F013FB019021463846FFF79EFF0A34BBF1000F01D108F10A080135B9F818309D42DAD3019803B0BDE8F08F00BFF0B50C8B8D684F6868
:401C80000A69012324E010EA030403D17E88B979314402E07988BE79891BEE88B14201D3002100E01946A14202D01678013E1670A14201D014783CB920EA0300084309B955
:401CC000F97900E0012111705B000A350132744604F1FF3E002CD6D1F0BD00BF38B504468A7E154B03441D7E012A04D12846FFF7C3FF054604E04FF43871104803F088F86A
:401D00000D4B23441D76620904F01F04012303FA04F445B90432084B03EB8202536823EA0404546038BD0432034B03EB820253681C43546038BD00BF30A7030864E7081087
:401D40002DE9F04F83B088460B8B8A684F68D1F810E08E6A844618B97C88B9790C4402E07988BC790C1B0025012109E0D3889C4201D3002300E00B461D430A3249000346FE
:401D8000581E002BF2D155B19EF8003013B1013B8EF800309EF8003023B1654602E0FB798EF80030002D4AD07A88BB79B8F81890D21A4946D8F8080002F06CF804460028FC
:401DC0004DD098F81A30022B49D100234A46D8F8201001A802F0CAF80446D8F814A0D8F828904FF0000827E001AB33F818B008F1080307EB43039A884FF6FF739A4204D18C
:401E00005946484602F0F4F809E01AF0400F06D0B9F800305B44A9F800B0C3F34E0B08F1080307EB4303A3F804B0B9F1000F01D009F1020908F101084445D5D80FE000243A
:401E40000DE004F1080307EB43034FF6FF729A8026B1114606EB440002F0CAF80134002CEFD0284603B0BDE8F08F00BF38B504468A7E194B03441D7E012A03D062B1032A6F
:401E800005D909E02846FFF7F7FE054609E02846FFF756FF054604E040F226410F4802F0B7FF0D4B23441D76620904F01F04012303FA04F445B90432074B03EB82025368AE
:401EC00023EA0404546038BD0432034B03EB820253681C43546038BD30A7030864E70810F8B5224F4FF48672002138460BF012FE4BF274333B804FF410637B8043F2D403C7
:401F0000BB800623BB831023BB770823FB77184E07F1200406F198050FCD0FC40FCD0FC40FCD0FC495E80F0007C423800123C7F8FC30562206F1D80107F1A4000BF0C4FD31
:401F4000304606F1080403230CE0A268238B04E010F8013B53720A320B46591E002BF7D130342B465D1E002BEFD1F8BD30A7030894E7081002280DD800F01F02012303FA94
:401F800002F24009031D044800EB83035B6802EA030070470020704730A70308022811D800EB400213010A4A134493F82230023BDBB2012B09D800EB400003011344DB6869
:401FC000988A70474FF6FF7070474FF6FF70704794E708100023024AD380024A1360704730A70308782E0308C9B2062902D083180021197130F8121000EB42035980024479
:4020000000231372704700BF70B506460D46012305E0224629463046FFF7E6FF23465C1E002BF6D170BD00BF70B5084D43001A18140122462C44A66801EB81014C002A44BA
:40204000917E3019FFF7E0FF70BD00BF9CE7081038B5054600EB40021301064A13441B8B04E021462846FFF7DFFF23465C1E002BF7D138BD9CE7081010B5032303E02046BF
:40208000FFF7E6FF23465C1E002BF8D110BD00BF70B401230DE0D3B2062B09D031F81460A30023445D004319465331F814505D8023465C1E002BEED170BC704770B40124C2
:4020C00010E0D4B2062C0CD031F813609D001D446C000444A68031F81350E58031F8135025811C46631E002CEBD170BC704700BF2DE9F04F83B005464200024413011F4A80
:4021000013445A6801921B8B32E06A002A4413011A4A1344D3F808B004EB84024FEA42080BEB080AD86881465E6A04EB44018A0016449F7E062F01D000EB08093A465146F4
:402140004846FFF7A5FF3A4651464846FFF7B6FF05EB45021301094A1344DB7E012B06D13246019B198A3BF8080005F047F923465C1E002BC9D103B0BDE8F08F9CE7081055
:4021800010B5032303E02046FFF7B2FF23465C1E002BF8D110BD00BF08B5FFF7F1FF08BDF0B4012319E0D3B2062B15D031F81460A70027447B0003449D883544DF88EE19A0
:4021C0001D8935441F819E88DE8031F814609E80C5F38F0321F8143023465C1E002BE2D1F0BC7047884202D9034608461946914200D91146884238BF084670472DE9F04765
:4022000007460E469046012319E05FFA88F3062B14D0A30023445D0007EB050937F805A0B9F80220514636F81400FFF7DBFFA9F802A036F814307B5326F8140023465C1ED2
:40224000002BE2D1BDE8F08770B504460D461646FFF7D4FF324629462046FFF7A1FF70BD00FA03F3C2F5807001FB00F102FB0310000A70472DE9F04107460D4616460123B1
:4022800038E035F8140005EB44035988884207D3421A2B194FF0000E83F808E0012301E00A1A00238BB97B799A420ED92B191B7A3A7A934205D3224631462846FFF794FE63
:4022C00017E02A190133137213E0F3B2062B10D005EB040898F804E0082301224EEA0121FFF7BEFFC0F30F2205EB44035A8088F8040023465C1E002BC3D10020BDE8F08126
:4023000070B5074E42001418230133449C6801EB81014D009A7E61195868FFF7ABFF70BD9CE7081070B5064600EB40021301084A13441B8B002505E021463046FFF7E0FFE4
:40234000054323465C1E002BF6D1284670BD00BF9CE7081038B50025032304E02046FFF7E1FF054323465C1E002BF7D1284638BD30B49F280ED940F2FE3399420AD9244C4F
:40238000A1FB04454B1B05EB53035B0AC3EB832399422FD09F280DD9B1F5FF7F0AD91D4CA1FB04454B1B05EB53031B0AC3EB4323994221D09F280CD97E290AD9164CA1FB12
:4023C00004454B1B05EB53039B09C3EBC313994214D09F2814D93E2914D9104CA1FB04454B1B05EB53035B09C3EB831399420BD000200AE0042008E0032006E0022004E089
:40240000002002E0002000E0012030BC704700BF051040002140800011080402054110044A1E032A01D8102300E0002379B183B1642202FB03F3B3FBF0F3002001E001302A
:402440005B00092BFBD90A2B04D9013802E0002000E00020C0B2704708B501F0B7FC08BD08B50A4B1A689169094B5B1ADB09526902EB03135A6822F0F8525A60054A1368C2
:4024800023F00103136000F045FF08BD44A8030880033240A8023640024BD86800F08000704700BF30A70308034B0340034AD0681843D060704700BF8000010030A70308BE
:4024C000034B0340034AD06820EA0300D06070478000010030A7030810B5174BDB6813F4803F0ED102280ED843090433124A52F8233000F01F02D34013F0010F05D10124A2
:4025000004E0112402E0012400E000248CB900EB40021301094A1344DB7E022B02D101F067FC06E0012B02D100F006FF01E04FF0FF34204610BD00BF30A703089CE70810FE
:4025400008B50C4BDB6813F4803F0DD10A4B1B78012B05D0022B09D101F01AFB002008BD00F036FE002008BD112008BD4FF0FF3008BD00BF30A703087C2E0308124BDB685D
:4025800013F0800F1AD110B500244FF0FF3312E02046FFF7A1FF034660B9012C03D801220A4B5A7002E00022084B5A70FFF7C8FF034606E00134022CEAD902E01123184603
:4025C0007047184610BD00BF30A703087C2E0308124B1B78834220D010B50446012B02D1FFF73EFF03E0022B01D1FFF735FF012C05D100F065FC0122084B1A7010BD022C62
:4026000005D101F011F90222044B1A7010BD032C02D00022014B1A7010BD70477C2E030830B583B00025074C08E02179002300930E22206801F04EFE08340135082DF4D99C
:4026400003B030BDC4E8081038B51B4A93780133DBB293709078FFF73FFF044650B9164B9B78DBB2022B02D10022134B5A70FFF767FF1EE0104B9B78DBB2022B10D10F4D3C
:402680002B8901332B818020FFF71AFFEB6823F07F43EB60EB6843EA0464EC60002408E0064BDA6822F07F42DA60DA6842EA0062DA60002CC9D138BD7C2E030830A7030828
:4026C00010B50146124BB3F90030002B0DDB5A0903F01F03012404FA03F320320D4840F82230BFF34F8FBFF36F8F094C204602F031FBB4F90030002B08DB590903F01F0345
:40270000012202FA03F3034A42F8213010BD00BFA0E6081000E100E070B5022801D8002500E0012595B9044600EB40021301084A1344DE7E022E02D1282101F025F9012E06
:4027400004D15521204600F0CBFE0546284670BD9CE7081038B50024254604E02046FFF7DBFF05430134022CF8D9284638BD00BF70B500241CE004EB440213010E4A1344FD
:40278000DB7E012B13D104EB440213010A4AD658002504E006EBC50000F066FD013504EB44021301044A13441B7E9D42F2D30134022CE0D970BD00BF9CE7081000EB4000A4
:4027C0000301024A13445B68588970479CE7081000EB40000301024A13445B68598170479CE70810C0EB0032012303FA01F101398A4205D9C0EB0020814203D30520704767
:4028000006207047002070472DE9F04180460E46FFF7D4FF07460022318800F01BFC01463846FFF7A5FD054620B931887800FFF7D9FF054629463846FFF7F2FD04466B1F1A
:40284000DBB2012B03D839464046FFF7C1FF2001C0B228433073BDE8F08100BFF0B58BB04FF47A73ADF8003040F2C343ADF802304FF49673ADF80430584B9A7F584BB3FB6D
:40288000F2F3ADF80C3000F01BFB0024264655E004EB44021301534A1344DB7E012B46D104EB440213014F4A13445D680C232B8000232B73BDF80C304B4AA2FB03235B0968
:4028C0002F4627F80A3F5521204600F009FE0497464B1B788DF81830454B1A884FF47A7303FB02F2434BA3FB0213D21A03EB5203C3F3CF23ADF80E30684604F00BFD3E4B1A
:40290000984203D9062601E05B006B81BDF80C106B8941F2707202FB03F29142F4D8032BF2D90AAB03EB840343F80C0C05E001220AAB03EB840343F80C2C0134022CA7D924
:4029400000242AE004EB44021301264A1344DB7E012B21D104EB44021301224A13445D685521204600F0BCFD064305F10A0304930AAB03EB840353F80C3C02931B4B1B781E
:402980008DF81830EB89ADF8063005F110030593684604F0E5FC28800134022CD2D9002416E004EB440213010E4A1344DB7E012B0DD104EB440213010A4A13445968204691
:4029C000FFF722FF5521204600F08AFD06430134022CE6D930460BB0F0BD00BF30A70308A08601009CE70810F1197605207702082277020801011000870D0100F8B5002480
:402A000028E0620022441301144A13445D68DB7E012B02D0022B05D016E029462046FFF7F3FE16E02E88204601F02AFA07463146FFF79EFC064601463846FFF7F1FC0001BD
:402A4000C0B23043287304E040F25971044802F0DFF90134022CD4D9F8BD00BF9CE7081050E9081008B5FFF7C9FFFFF7D9FD0020FFF7AEFD002008BD38B52D4D2A6893698E
:402A80002C4CE31ADB09526902EB03135A6822F0F8525A60802363602B6893F87D20135923F0704343F0C04313512A689369E31ADB0951691B01CA5822F4F852CA50022334
:402AC00063602B6893F87D20135923F0F00343F0600313512A689369E31ADB0951691B01CA5822F4F812CA50042363602B6893F87D20135923F4706343F4C0631351012071
:402B000002F07AF92B6893F87D20135923F0704313512B6893F87D20135923F0F00313512B6893F87D20135923F47063135138BD44A80308800332400F4B1B7803EB4303D7
:402B40001A010E4B1A4453680D4AD2F8D02091B2188801238340013B994206D2094B1B680949097823F811207047064A12680649097822F8113070477E2E03089CE7081053
:402B8000000036403CA803080CE9081038B5234A1378234C03EB4303190121444868137803EB43031A012244127E013A1D4B1B78DBB29A421CD91B4C23780133DBB2237032
:402BC000164D2B7803EB43031A01154B1A449168237803EB83035A000A44134B1A6000F011FA2878217800F02DFB00F075FA38BD00220C4B1A704FF48030FFF761FC0B4BFB
:402C00001B78012B02D1FFF71FFD38BD8020FFF757FC074A13890133138138BD7E2E03089CE70810842E03083CA803087D2E030830A7030808B5074B4FF483721A601B688E
:402C4000FFF77AFF044A1389013313810348FFF737FC08BDF000364030A703088000010010B50C4B1B7803EB43031A010A4B9B580A4A147803EBC404094B4FF483721A604F
:402C80001B68FFF759FF204600F0EEFAFFF77EFF10BD00BF7E2E03089CE70810842E0308F000364001390843014B1860704700BF000236400E4B1B6823F4F8730D4A917F95
:402CC0000D4AB2FBF1F20D498A4204D843F02003074A136070470A498A4204D843F03003034A1360704743F04003014A136070471C77020830A7030800E1F505001BB7002F
:402D000000366E01044A054B1A604FF0A17203F580731A60704700BF0000430100043640084A136803F07F0343F0A17343F48033136002F58072136803F07F0343F4800372
:402D40001360704700043640074A136843F0805343F001031360054A054B1A604FF0A17203F580731A607047A8023640000043010004364010B40488012000FA04F4013C2E
:402D800004EB840303FA00F00C4BA3FB00035B0901335818844200D220468B4201D8C91A00E00021914203D8904203D2062002E0062000E000205DF8044B70471F85EB516A
:402DC0000023164A136002F5927213600432136006212C3A11604FF48071083A11600121903A1160A2F580724FF48371116012680B4A136003220B4B1A604FF4FA6300E09C
:402E0000013B094A126812F0040F01D1002BF7D113B90822034B1A60704700BF8C013640F800364040033640F00036401D4B4FF483721A601B681C4BB3F90030002B08DBFD
:402E4000590903F01F03012202FA03F3174A42F821300023164A136030321360043213602C3A1360983A13600121643A11600C3A13608032136843F08073136002220D4B1C
:402E80001A604FF4FA6300E0013B0B4AD2F8842012F0070F01D0002BF6D140F20132074B1A607047F0003640A0E6081000E100E080023640F80036400000364040033640FC
:402EC00070B5FFF755FCFFF7D7FD4FF48032404B1A604048036843F0805343F00103036000233D4A136002F5E07213600C32136060321360A2F5CE72136002F582721360D8
:402F0000083A1360354C2360A2F5807213604FF0487102F5A8721160314D2A6892F87D60304AB15821F07041B15029688D69521BD209496901EB0212516821F0F85141F0E0
:402F40008061516028490A6842F480520A604FF48071264A1160026842F0805242F0010202604FF0807222490A6041F24140A1F58E71086001F584710B602260FFF7C2FE0B
:402F80001C4B9B7F013BFF2B0BD8154A12689068B2F87410425822F47F421B029BB213434350FFF787FE144B1B6843F0004343F48053124A13600F22114B1A600022A3F517
:402FC00088731A600A2203F590731A6070BD00BF04023640A8023640F40036408402364044A803088003324094023640A0023640A402364030A703081C77020800003640AC
:403000000003364038B5054601F06FFF0D490B6823F07F020C4B1C7825446B7A13430B6001F067FF01F061FF08490B6823F07F02074B1B681C44637A13430B6001F059FF0D
:4030400038BD00BF000436400CE90810000536403CA8030830B401248C40631E40B10F2904D9A4F10A03B3FBF0F301E0B3FBF0F3053A012A00D85B080BB9012000E01846E2
:4030800030BC704708B50C4B1B7803EB43031A010A4B1A44536859891B7B18045A1F012A01D840F00070053B012B02D8490800D10121FFF7F7FD08BD7E2E03089CE70810CD
:4030C00008B5027B01884089FFF7C4FF80B2014B186008BD1403364008B50D4BB3F90030002B0DDB5A0903F01F03012101FA03F32032084941F82230BFF34F8FBFF36F8F46
:403100000122054B1A60FFF75BFEFFF78FFE08BDA0E6081000E100E08001364008B50348FFF7C2F9FFF7D8FF08BD00BF80000100F8B5054601F0D9FE06462F682C79072CAF
:4031400004D94FF47171204801F062FEA4001F4B1B6893F87D00C2590F23A34022EA0301062202FA04F30B43C3512C682D79072D04D94FF42271144801F04AFE134B1A68A8
:403180009369E31ADB0952691B01D118032D0BD8D158ED001F20A84021EA00000B2101FA05F50543D5500BE0043D4B68ED001F22AA4023EA02020B2303FA05F515434D6057
:4031C000304601F096FEF8BD10E9081044A8030870B5164E3378164C03EB43031A0122445068144D00232B70337803EB43031A01224491682B7803EB83035A000A440E4B84
:403200001A60FFF7FFFE337803EB43031A01A358287803EBC000094B1860FFF789FF0848FFF74EFAFFF77AFF70BD00BF7E2E03089CE70810842E03083CA8030840A80308BA
:40324000612C081008B500EB40000301044AD05800EBC100034B1860FFF76AFF08BD00BF9CE7081040A80308F8B5064601F03DFE074634683579072D04D94FF42271234856
:4032800001F0C6FD224B1A689369E31ADB0952691B01D118032D08D8D158ED001F2000FA05F521EA0505D55008E0043D4B68ED001F2202FA05F523EA05054D60356834792D
:4032C000072C04D94FF47171104801F0A1FDA4000F4B1B6893F87D0042590F23A34022EA03010E2202FA04F30B43435135683479072C04D940F28131044801F089FD01233F
:40330000A3406B60384601F0F4FDF8BD10E9081044A8030808B5064B1B78012B06D1054B1868FFF7A1FF0022014B1A7008BD00BF852E030840A8030870B5124D00EB4002DA
:4033400013012B445C68C0B20F4E30700120FFF73FF9FFF7DFFF337803EB43031A01AA580A4B1A600A4BDA6822F07F02DA603178DA680A43DA602046FFF7A2FEFFF782FE61
:4033800070BD00BF9CE708107E2E030840A8030830A7030838B5420002441301104A13445D68C9B20F4C21709968237803EB83035A000A440C4B1A60FFF7BEFF2846FFF7F4
:4033C00021FE2078094A136803EBC0001060FFF7AFFE0122064B1A700648FFF771F938BD9CE70810842E03083CA8030840A80308852E0308352C08102DE9F84307460D4684
:4034000090462E490B7803EB43031A012C4B1A4456684FF0000985F800900878294B1978FFF7B8FFFFF77CFC8024B94503D22B7823EA04032B7064082B7823432B70304696
:40344000FFF7E0FDFFF76AFE1F4B00E0013B1F4AD26812F0800F01D0002BF7D11C4B1B68B3F80090002CE0D1144B1B7803EB43031A01134B9B58134A107803EBC000154B16
:403480001860FFF7F1FE0022134B1A70FFF75CFC4A4639463046FFF76DFC98F800202B789A4205D288F800300C4A1371A2F80690074B1B682A785A72BDE8F8837E2E030899
:4034C0009CE70810842E03085C66060030A703083CA8030840A80308852E03081C7702082DE9F04383B004460F4600EB40023C4B03EB02135E6801258DF80450B14639F8CE
:40350000098B05FA08F808F1FF3801FB08F3354AA2FB03384FEA5818C2B2334B1A703348FFF7CEF8324B1D71DD800025314B1D700AE001AA49464046FFF75EFF05432D4ACC
:4035400013780133DBB2137004EB4403244A02EB03131A7F274B1B78DBB29A42E9D89DF8043001335B0873720022224B1A7024E004EB44031A4A02EB03139A681D4B1B7811
:4035800003EB830302EB43021B4B1A60537A717A8B420BD35B1ADBB207FB03F363331149A1FB0313C3F34713537201E000235372104A13780133DBB2137004EB4403084A37
:4035C00002EB03131A7F0B4B1B78DBB29A42CFD80022084B1A70284603B0BDE8F08300BF9CE708101F85EB517E2E0308352C08101C770208842E03083CA8030842890388F5
:40360000901E10FB03F080B2704700BF08B52A4BB3F90030002B0DDB5A0903F01F03012101FA03F32032254941F82230BFF34F8FBFF36F8F224B4FF483721A601B68214BF1
:40364000D3F8D020D3F8D4309BB213FA82F31E4A128892B2934204D91B4A13889BB2538002E09BB2184A5380184B1B689847184BDB6813F0800F0FD1164A124B1A604FF41E
:40368000407203F5C6731A60134A03F51D731A601F22A3F598731A60074BB3F90030002B08DB590903F01F03012202FA03F3034A42F8213008BD00BFA0E6081000E100E06D
:4036C000F000364000003640882E03082477020830A7030820100C80800E43013F4B1A683F4B1B7813445A7A3E4B13433E4A136000233E4A53803E493E4A1160012102F5D3
:40370000C0721160112102F5807211604FF08071043211603C3213600622374B1A60374A28331A6041F2101204331A60344AC43B1A6040F2033203F5A8731A604FF4FA6397
:4037400000E0013B2F4A126812F0010F01D0002BF7D12C4B1B6813F0010F03D04FF44272284B1A60284BDA7F284BB3FBF2F3284A934204D9274A934203D8302302E0202311
:4037800000E0402343F0004343F44123194A136040F20132204B1A60002320490B6001F580710B6004310B603C310B6038390B601B482831086042F2102004310860C439D6
:4037C0000B601F21174B1960A3F5F0734FF4837119601B680B4B1A60704700BF3CA803080CE90810800E430100043640882E030820100C8000003640880236400101010091
:40380000AA0005004003364030A7030800E1F505001BB70000366E018C0136408001364001030300D002364010B5FFF725F949490B6893F87D00484BC25822F0F002C250FA
:403840000A6892F87D10CA5822F47062CA504FF4837203F57F3303F5B8731A60002404331C60022204331A6088331C6004331C6041F2415204331A604FF4407204331A6069
:40388000364A03F51D731A6003F580731C60344AA3F544731A60334A10331A6004331C607C331C6004331C6004331C6008331C6001F01BFB2C4A136823F48053136001F05D
:4038C00018FB2322294B1A604FF0807204331A6001F00BFB264A136823F0805323F4801343F08053136001F004FB224A224B1A6042F2102204331A600C331C601F2210331C
:403900001A600F2230331A60042210331A6004331C600C331C604FF4427220331A60174AA3F550731A60164BDB7F013BFF2B0BD8084A12689068B2F87410425822F47F424D
:403940001B029BB213434350FEF76AFE0D48FEF7B7FE10BD44A8030880033240800E4301AA0005002A00000C94023640A0023640A802364001030300B002364020100C80F9
:4039800030A703080D3608102DE9F84380460E46430003441A012A4C1444D4F80890294BC3F800906068FFF729FE274B1880198889B201FB06F1254EA6FB0136E37E022B32
:4039C0003CD17609227F657F05FB02F5002109E01C4A1368002018801368402058720A3313600131A942F3D32024402700E01C464046FEF771FDFEF7A3FD154BDB6813F0D3
:403A0000800FFAD10F4BC3F8009000210FE00D4B1B681A88964203D25A7A22EA07025A725A7A22435A720A33064A13600131A942EDD3C4F347032746002CD8D1BDE8F88353
:403A40009CE708103CA80308882E03081F85EB5130A70308F8B5054601F047FA06462F682C79072C04D94FF47171204801F0D0F9A4001F4B1B6893F87D00C2590F23A34067
:403A800022EA0301062202FA04F30B43C3512C682D79072D04D94FF42271144801F0B8F9134B1A689369E31ADB0952691B01D118032D0BD8D158ED001F20A84021EA000082
:403AC0000A2101FA05F50543D5500BE0043D4B68ED001F22AA4023EA02020A2303FA05F515434D60304601F004FAF8BD10E9081044A80308F8B5054601F0F7F906462F682A
:403B00002C79072C04D94FF471711F4801F080F9A4001E4B1B6893F87D10CB590F2202FA04F423EA0404CC512C682D79072D04D94FF42271144801F06BF9144B1A68936908
:403B4000E31ADB0952691B01D118032D0BD8D158ED001F20A84021EA0000042101FA05F50543D5500BE0043D4B68ED001F22AA4023EA0202042303FA05F515434D60304621
:403B800001F0B7F9F8BD00BF10E9081044A8030810B500220F4B1A700F4B1B6899680F4A11605A7F0E4CA280187FE0801B68A36003EBC000E060FFF74DFFA068FFF79AFFDC
:403BC000084A094B1A608020FEF76EFCFFF786FD10BD00BF842E0308802E03083CA80308882E0308FD3C08102477020870B5054601F07BF906462C682D79072D04D94FF4D6
:403C00002271114801F004F9104B1A689369E31ADB0952691B01D118032D08D8D158ED001F2000FA05F521EA0505D55008E0043D4B68ED001F2202FA05F523EA05054D60D9
:403C4000304601F056F970BD10E9081044A80308F8B5064601F049F9074634683579072D04D94FF42271234801F0D2F8224B1A689369E31ADB0952691B01D118032D08D8ED
:403C8000D158ED001F2000FA05F521EA0505D55008E0043D4B68ED001F2202FA05F523EA05054D6035683479072C04D94FF47171104801F0ADF8A4000F4B1B6893F87D00C7
:403CC00042590F23A34022EA0301062202FA04F30B43435135683479072C04D940F28131044801F095F80123A3406B60384601F000F9F8BD10E9081044A8030810B52C4BCC
:403D000019682C4B18782C4C23889AB263889BB2D31A21F81030E068FFF768FF274A13780133DBB21370A388013B9BB2A3805BB1E0680830E060FFF78DFE1D4A13680A33E6
:403D40001360FFF7CBFC10BD1B4AD388013B9BB2D380D3B114469068FFF77AFFA0680830A060FFF7C7FE164B1A68537FA3801368107F03EBC000E060FFF76CFE0C4A136869
:403D80000A331360FFF7AAFC10BD0B4B9868FFF75FFF0C4B1B7813B1FEF756FC10BD0A4A1389013313818020FEF78AFB10BD00BF3CA803080CE90810882E0308842E0308A6
:403DC000802E03087D2E030830A70308074B1B8A53B110B5054CE068FFF708FFA068FFF737FF0023238210BD704700BF882E030838B50446C2B21A4B1A700220FEF7E8FB88
:403E0000FFF7E4FF04EB44042201164B1344164A13605D686C892A88144B1A602846FFF7EDFB134B18802B7B013CC4F30B0444EA034444F040640F4B1C600F4BDB7F013B81
:403E4000FF2B0BD80D4A12689068B2F87410425822F47F421B029BB21343435038BD00BF7E2E03089CE70810802E030814033640882E03080002364030A7030844A803081C
:403E800000EB40000301024A13445B68588970479CE70810F0B50023334C237004461E460BE0E588954206D9AE4204D22E4E3371012737702E460A3401338B42F1D32A4B03
:403EC0001B78002B47D14BE0274EB3181B7903EB83056C000519B5F806E002EB42077D003544A5F80AE09BB901EB81056C000A3C0444E688550015446C001B4D2C442681E0
:403F0000013303EB83035D000544EB88A38120E04D1EEDB2AB420CD1A4F10A030344DD88540014446300104C23441D81C4889C810FE00A3C0444E688550015446C000A4D45
:403F40002C442681013303EB83035D000544EB88A381013200E00022034B1B789A42B3D3014B1878F0BD00BF9C2E03082DE9F041002533E01D4C2C4424793CB905EB45078A
:403F80007E001A4F3E440027378109E0561EB44206D105EB45077E00144F3E440027B7816F002F447E00114F3E44B6F80C80B6F808E0CEEB0807B6F80AC00EEB0C0608EB41
:403FC000060E01FB07F696FBFEF604FB013434447F34C4F30F2420F815400135034C2478A542C7D32046BDE8F08100BF9C2E030800B10180704700BF10B500EB4002130119
:40400000164A13449B7E023B012B21D800EB400003011344586800234B720CE003F1080200EB420294884FF6FF72944202D04A7A01324A720133002BF0D0838A0B80002308
:404040004B8001238B724FF6FF738B80CB8010BD9721034800F0DCFE10BD00BF9CE708107CE9081008B509480022C0F80021084B5A729A721A724FF6FF721A805A809A8005
:40408000DA80A43003F006F908BD00BF30A70308AC2E030838B50446022827D1194D2946FFF7AAFF2B7A5BB1012B1AD16B7AFBB90025144B1D72144803F0ECF8284618E0BB
:4040C000104B587A9B7A984204D901220D4B1A72FE200EE00B4A0D4BD3F8001100F020F807E00122074B1A72FE2002E0FF2000E0FE2004EB44042301054A13445B6898744E
:4041000038BD00BFAC2E0308D4A7030830A703089CE70810014BC3F80001704730A7030808B5C0B203F02CF830B12F2803D04F2802D1002008BD002008BD00BF1F4B9842DA
:404140002DD00CD840282ED003D8E8B1102828D02FE0802829D0B0F5807F28D029E0184B984228D006D8B0F1204F0DD0154B984212D01EE0144B98420AD00133984209D0EB
:40418000023B984215D101E0002070470F4870470F4870470F4870474FF4A0007047074870470D4870470D4870470D487047034870470C4870474FF4A40070470600520059
:4041C000010000F0090000A0040000F0010052000200520003005200010050000200500005005200FF00520038B5124B1B6893F83130012B04D840F2C3110F4800F008FED6
:404200000C4B1D682A6AB5F8B03013442C46D5F8B420D358002B0BDB084B1868FFF78EFF6B6801229A6063689B68002BFBD138BD034838BD44A80308A8E90810B82E03080A
:40424000020050001A4B186128B102230370FF23437000234380174B1B6893F850202AB300B583B0B3F93830ADF80030002301931149684600F06EFDBDF90030002B08DB46
:40428000590903F01F03012202FA03F30B4A42F82130084B1B6893F8513023B102220849012000F0F3FA03B05DF804FB704700BFB82E030844A803089178020800E100E030
:4042C0004979020808B50248FFF7BCFF08BD00BFCC2E03082DE9F04104460D46174698469DF81860072903D9D921354800F090FD37F00F0303D0DA21314800F089FDB8F1E6
:40430000010F03D9DB212E4800F082FD36F01F0303D0DC212A4800F07BFD22680123AB4022EA030308F0010808FA05F843EA08032360244B1B6893F87D100B59A8000F2211
:40434000824023EA020207F00F0303FA00F717430F51072D04D94FF422711B4800F058FD36F01F0304D040F28921174800F050FD144B1B689A69A41AE4095B6924011919E5
:40438000032D0DD81959ED001F22AA4021EA020206F01F0606FA05F515431D51BDE8F081043D4A68ED001F23AB4022EA030306F01F0606FA05F51D434D60BDE8F08100BF48
:4043C000E8E9081044A8030828EA081038B50B4B1B68D3F8B4301B58002B0DDA0D4604460B0C1B0423B140F2D521054800F010FDA9B26160002038BD024838BD44A8030839
:4044000068EA081001008A0038B50368002B01DA002300E0094B73B90D460446C2600B0C1B0423B140F2BB21054800F0F1FCA9B2A160002038BD014838BD00BF01008A00AC
:4044400068EA081038B504460D4619B99921084800F0DEFC074B1B68D3F8B4301B59002B03DAE3682B60002038BD034838BD00BFA8EA081044A8030801008A00254B1B6899
:4044800093F8313083423AD900293AD00B6813F01F0F38D170B50D4604461E4B1B6893F83130984204D340F2C3111B4800F0B0FC184B1B68186AB3F8B03004FB0304174EAA
:4044C00034602A68D2080021686809F023FB00212046FFF77BFF346825B940F293310E4800F096FC2A4600212046FFF78DFF60B900210A4B1868FFF769FF40B970BD084819
:4045000070470748704706487047064870BD054870BD00BF44A8030868EA0810D02E030803018A0001018A0010B504461346B2B9A9B9124B1B6893F83130984204D340F29D
:40454000C3110F4800F064FC0C4B1B681A6AB3F8B03004FB03240B4B1C60002010BD43B149B1084A51609360111D2046FFF786FF10BD054810BD044810BD00BF44A8030849
:4045800068EA0810D02E030803018A002DE9F0411B4B1B68DC68236883422CD90D464609A0EB4610012303FA00F819B900F09DFC074600E00027124B18680368002B01DA98
:4045C000002300E00F4B83B9626852F8263018EA030F05D023EA080342F82630002400E0094C0021FFF7F2FE00E0084C25B9384600F07FFC00E0064C2046BDE8F08100BF5F
