:020000041008E2
:4000000000780408EB0208100D0000005103081051030810510308105103081000000000000000000000000000000000F16708104D0308100000000091680810F56808101C
:400040004D0308104D0308104D0308104D0308104D0308104D0308104D0308104D0308104D0308104D0308104D0308104D0308104D0308104D0308104D0308104D03081000
:400080004D0308104D0308104D0308104D0308104D0308104D0308104D0308104D0308104D0308104D0308104D0308104D0308104D0308104D0308104D0308104D030810C0
:4000C0004D0308104D0308104D0308104D0308104D0308104D0308104D0308104D0308104D0308104D0308104D0308104D0308104D0308104D0308104D0308104D03081080
:400100004D0308104D0308104D0308104D0308104D0308104D0308104D0308104D0308104D0308104D0308104D0308104D0308104D0308104D0308104D0308104D0308103F
:400140004D0308104D0308104D0308104D0308104D0308104D0308104D0308104D0308104D0308104D0308104D0308104D0308104D0308104D0308104D0308104D030810FF
:400180004D0308104D0308104D0308104D0308104D0308104D0308104D0308104D0308104D0308104D0308104D0308104D0308104D0308104D0308104D0308104D030810BF
:4001C0004D0308104D0308104D0308104D0308104D0308104D0308104D0308104D0308104D0308104D0308104D0308104D0308104D0308104D0308104D0308104D0308107F
:400200004D0308104D0308104D0308104D0308104D0308104D0308104D0308104D0308104D0308104D0308104D0308104D0308104D0308104D0308104D0308104D0308103E
:400240004D0308104D0308104D0308104D0308104D0308104D0308104D0308104D0308104D0308104D0308104D0308104D0308104D0308104D0308104D0308104D030810FE
:400280004D0308104D0308104D03081010B5054C237833B9044B13B10448AFF300800123237010BD4C7E020800000000C0630910084B10B51BB108490848AFF3008008485D
:4002C000036803B910BD074B002BFBD0BDE81040184700BF00000000507E0208C06309101C780208000000007047FFF7FDFF72B6104C114DAC4209DA21686268A368043B04
:40030000A2BFC858D050FAE70C34F3E70B490C4A00209142BCBF41F8040BFAE709480A490860BFF34F8F00F03FF900F019F900F01DF8FEE7C4630910DC6309104C7E0208C4
:400340006CAA03080040020808ED00E0FEE7FEE700B504207146084202D0EFF3098001E0EFF30880043004F075FDFEE700B583B062B601F067FB02F013F900240194012562
:40038000009523464FF4C87209490A4805F01CFC0194009523464FF4C8720749074805F013FC05F043FC02F089F80028FBD1FEE740E40810F50A081050E40810790B0810A3
:4003C00008B5012004F0FAFA08BD00BF704700BF5C4AD2F8803303F00F0303F1D00152F8212002F00702032A04D0042A05D092B9554914E0554A116811E003F1C002514990
:4004000051F8222002F01F02112A06D0132A04D04FF4FA4103E04E4901E04FF400418BBB484BD3F8902502F00100D3F88825C2F30172D3F8883513F0405F07D0414BD3F85B
:400440008835C3F30173012B02D102E0012300E0002303B108B9032A46D13A48D0F88025C2F31103D0F88425C2F30C02D0F88005C0F300600130B1FBF2F202FB03F2B2FB28
:40048000F0F131E0012B2FD12E4BD3F8402602F00100D3F80026C2F30172D3F8003613F0405F07D0274BD3F80036C3F30173012B02D102E0012300E0002303B108B9032AA7
:4004C00012D12048D0F8002602F07F02D0F80036C3F30423D0F80006C0F3044002FB01F2B2FBF3F2B2FBF0F1164BD3F88033C3F3011321FA03F215494A601648D0F89030F9
:40050000C3F3072301330069000E0130B2FBF0F08860B2FBF3F3CB600B6103F5742202F23F220D48A0FB0202C2F387420A7503F2E7330A4AA2FB03239B098B61DB03CB61CC
:40054000704700BF0000264000127A008C42020800366E010000214083DE1B43D34D621008B50D4804F060FDFFF730FFFFF730FF00221146042003F0E9FF084804F07CF807
:40058000074B1B6893F8513013B1064804F0E4F803F0AAFE08BD00BFC8EC0810687E02083CA8030860E4081008B504F0AEFC074AD2F8883043F47003C2F88830BFF34F8F78
:4005C000BFF36F8F04F0A5FC08BD00BF00ED00E0104B5A6910225A615B690F4BB3F90030002B09DB5A0903F01F03012101FA03F360320A4941F82230094B1B78022B03D16E
:400600000122074B1A707047012B02D10222044B1A70704700003240D0E6081000E100E0AC42020810B404460068012305E054F82320904200DA104601338B42F7DB5DF820
:40064000044B704710B404460068012305E054F82320904200DD104601338B42F7DB5DF8044B7047F8B506460F4601F089F90546064C3B4632460146204601F01FF841F2F4
:40068000B062294620460DF02FFAF8BDE87F02082DE9F041ADF57A7D80460F46164601461046FFF7BFFF1D4C84FB0035C017C0EB650541463046FFF7C5FF84FB0034C01715
:4006C000C0EB64044FF47A72002168460DF032FA0021084612E056F82130104A82FB03E2DB17C3EB62031B1B2A1B02FB03F36A0093FBF2F32DF8103001303944B1F5FA7F82
:40070000E9DB074BC3F800D032230122FA21684607F0DCFF0DF57A7DBDE8F08167666666A85A030870B59AB006460D46134807F023FD002007F050FD96220A21104807F03A
:40074000B3FF104C324621460DA80DF0FBF996229B210DA807F0A8FFA0220A210A4807F0A3FF2A46214668460DF0ECF9A0229B21684607F099FF1AB070BD00BFE8ED081082
:4007800094E40810B0E40810B4E4081008B507F0BFFD142000F07EFF012000F083FF012007F09EFC002007F0DDFC6FF07F4007F0CFFC07F07BFD08BD10B50446AF2340F2E0
:4007C00007120121084606F07BFE042007F088FC0F23F3221946142008F01CFA154807F0CBFC022007F0F8FC05228421124807F05BFF124807F0C0FC002007F0EDFC1E228E
:4008000011460F4807F050FF3C221E210D4807F04BFF5A221E210C4807F046FF78221E210A4807F041FF02222146102007F034FB10BD00BFD0320910D0E408101CFC081060
:40084000D8E40810FCE4081024E5081048E5081000B58FB0114807F08FFC022007F0BCFC052284210E4807F01FFF0E4807F084FC002007F0B1FC3C220A210B4807F014FFF8
:400880000A4B5A680A4901A80DF05CF93C22962101A807F009FF0FB05DF804FBD03209106CE508101CFC08107CE50810AC420208B0E4081008B50E4807F05EFC022007F0B5
:4008C0008BFC052284210B4807F0EEFE0A4807F053FC002007F080FC3C220A21074807F0E3FE5A220A21064807F0DEFE08BD00BFFC11091098E508101CFC0810B0E50810B0
:40090000D8E5081030B59BB0194807F035FC022007F062FC05228421164807F0C5FE164807F02AFC002007F057FC3C220A21134807F0BAFE124DAA68124C21460DA80DF06E
:4009400001F93C2296210DA807F0AEFE5A220A210D4807F0A9FEEA68214668460DF0F2F85A229621684607F09FFE1BB030BD00BFFC11091000E608101CFC081010E60810DA
:40098000AC420208B0E408102CE6081008B5164807F0F2FB022007F01FFC144B1B78022B08D1134A134B1A6005228421124807F07BFE09E0012B07D1104A0E4B1A60052232
:4009C00084210F4807F070FE0E4BD3F84011D3F84401FFF7A7FE074B1A6802214FF47A70FFF756FE08BD00BFFC110910AC420208BC420208B05A030848E608107C5D020820
:400A000060E60810947502080649D1F848310A3B054A82FB03021A44DB17C3EB2213C1F84C317047947502088988888808B5144BD3F84C31013B032B1DD8DFE803F00209C2
:400A40001017FFF705FF02220D4B83F8502108BDFFF730FF03220A4B83F8502108BDFFF751FF0422064B83F8502108BD0522044B83F8502108BD0122014B83F8502108BD23
:400A80009475020808B5194B93F8B8350BB1FFF7BBFF174B93F85031012B25D1134B93F8B9352BB1124AD2F848311E3BC2F848310E4B93F8BA352BB10D4AD2F848311E3316
:400AC000C2F848310A4BD3F84831272B03DC8222074BC3F84821064BD3F84831822B03DD2822034BC3F8482108BD00BFE09002089475020838B5002003F01EFB0024254648
:400B000000F0BEFF022001F05BFA80B2194BA3F8BC05002001F040FA18B10124154B83F8BE45012001F038FA20B10124114B83F8B8450FE0022003F0BFFA542806D05C28F6
:400B400008D101240B4B83F8B94503E00124094B83F8BA4501F010FC01F022FD0535284603F0EAFA14B1FFF78DFF0024322005F0A1F9C5E7E090020808B5464C4649204690
:400B800004F0FAF8B4F90030002B08DB5A0903F01F00012181406032404840F82210002B08DB590903F01F03012202FA03F33B4A42F82130FFF7EAFD394BD3F84801FFF773
:400BC000FBFD01210846FFF74DFD354B93F85031052B11D10BE007F069FBFFF7D7FE01210846FFF73FFD4FF47A7005F063F92D4B93F8BE35002BEED02A4B93F8B9351BB9DD
:400C0000284B93F8BA35ABB1254B93F85031012B10D107F04BFB224BD3F84801FFF7CCFD01210846FFF71EFD1E4B002283F8B92583F8BA251B4B93F8B8355BB107F036FB94
:400C4000FFF7F4FE01210846FFF70CFD0022154B83F8B825134B93F8BE35B3B1104B93F85031012B11D00E4D012485F8504107F01DFBD5F84801FFF79FFD21462046FFF787
:400C8000F1FC0022074B83F8BE254FF47A7005F011F99AE7D0E60810D105081000E100E094750208E09002082DE9F04180460E4617460A4C08256560702000F06FFD404646
:400CC00000F06CFDA5606560722000F067FD3946304600F0C7FDA560BDE8F0810006324000B583B002AB03F8011D01221946FFF7DBFF03B05DF804FBF8B507460E46094C05
:400D000008256560702000F049FD384600F046FDA5606560732000F041FD304600F06EFDA560F8BD0006324038B50425084B5D60084C402363601023636000F0FFFC082211
:400D4000054B5A6065602023636000F0E1FC38BD00003240800232400006324010B5434C6F22002120460CF0E5FE631C236704F14E03636704F12203A36700F0C9FC03E0DE
:400D800000F0D0FC032868D800F0AEFD0028F7D100F0CEFC00217220FFF7AEFF00F00F0002285CD14021FFF79BFF00210F20FFF7A3FF10F0800F54D002210B20FFF790FFBC
:400DC00008222B490120FFF76FFFD1210720FFF787FF02210820FFF783FFC2210920FFF77FFF03210420FFF77BFF01210320FFF777FF00210320FFF773FF0A2003F0F6FFD1
:400E0000002400E01C4601210520FFF769FF642003F0ECFF03210520FFF762FF322003F0E5FF0F210520FFF75BFF322003F0DEFF00210F20FFF760FF10F0400F05D040218B
:400E40000220FFF74DFF234603E0631C9BB2042CD8D1032B07D9052010BD012010BD022010BD032010BD002010BD00BFA096020874E6081010F1090F0EDB10F1040F0EDBF3
:400E800005280FDD0A2810DD0F2811DD142811DD282811DC5A2210E04FF496620DE04FF461720AE04FF4167207E04FF4A57204E0DC2202E0B42200E03C22034BA3F87C2071
:400EC000A3F87E20704700BFA09602082DE9F84F06460D46047828B1CA4B984205D10127002403E00127FF2400E0002700F010FC4FF00008D0E1C8EBC80AC8EB0A1ADFF845
:400F00000C930AEB090B6F22002158460CF012FE0BF1010EBC4BC3F870E00AF148004844063058670AF1200AD14409F10209C3F878902022002397E10FB934780136032D12
:400F400000F29081DFE815F004006500C600270100EB030C14F0400F01D0C02100E080218CF8001049B214F0100F02D04FF0300A01E04FF0200A4AEA01018CF8001014F0B6
:400F8000040F02D04FF00C0A01E04FF0080A4AEA01018CF8001014F0010F02D04FF0030A01E04FF0020A4AEA01018CF800100EEB020C14F0800F01D0032100E002218CF8BD
:400FC000001049B214F0200F02D04FF00C0A01E04FF0080A4AEA01018CF8001014F0080F02D04FF0300A01E04FF0200A4AEA01018CF80010013A92B214F0020F02D06FF051
:401000003F0A01E06FF07F0A4AEA01018CF8001028E100EB030C14F0400F01D0802100E040218CF8001049B214F0100F02D04FF0200A01E04FF0100A4AEA01018CF80010DA
:4010400014F0040F02D04FF0080A01E04FF0040A4AEA01018CF8001014F0010F02D04FF0020A01E04FF0010A4AEA01018CF800100EEB020C14F0800F01D0022100E0012188
:401080008CF8001049B214F0200F02D04FF0080A01E04FF0040A4AEA01018CF8001014F0080F02D04FF0200A01E04FF0100A4AEA01018CF80010013A92B214F0020F02D093
:4010C0006FF07F0A01E04FF0400A4AEA01018CF80010C7E000EB030C14F0400F01D0C02100E040218CF8001049B214F0100F02D04FF0300A01E04FF0100A4AEA01018CF8FC
:40110000001014F0040F02D04FF00C0A01E04FF0040A4AEA01018CF8001014F0010F02D04FF0030A01E04FF0010A4AEA01018CF800100EEB020C14F0800F01D0032100E0D3
:4011400001218CF8001049B214F0200F02D04FF00C0A01E04FF0040A4AEA01018CF8001014F0080F02D04FF0300A01E04FF0100A4AEA01018CF80010013A92B214F0020F6E
:4011800002D06FF03F0A01E04FF0400A4AEA01018CF8001066E000EB030C14F0400F01D0802100E0C0218CF8001049B214F0100F02D04FF0200A01E04FF0300A4AEA01013E
:4011C0008CF8001014F0040F02D04FF0080A01E04FF00C0A4AEA01018CF8001014F0010F02D04FF0020A01E04FF0030A4AEA01018CF800100EEB020C14F0800F08D0022164
:4012000007E000BFFFFF0F10A0960208B45A030803218CF8001049B214F0200F02D04FF0080A01E04FF00C0A4AEA01018CF8001014F0080F02D04FF0200A01E04FF0300AD9
:401240004AEA01018CF80010013A92B214F0020F02D06FF07F0A01E06FF03F0A4AEA01018CF8001001339BB2202B7FF665AEC8F1AF031BB299101A4A134003D5013B63F0B0
:4012800003030133174A02FA83F31B7A09F8013008F101081FFA88F8B8F1AF0F7FF62BAE00240FE0C4EBC403C4EB03136F220E4919440A20FFF7F8FC07210220FFF710FD16
:4012C0000134A4B2AF2CEDD9084BB3F87C4000F029FA8442E4D800F02BFABDE8F88F00BF0300008074E60810B45A0308A09602082DE9F04706460D4600F00AFAD221092029
:40130000FFF7EEFC0024C6E0C4EBC407C4EB0717DFF8008207EB08096F22002148460CF009FC09F1010C784BC3F870C007F1480EC6440EF1060EC3F874E02037B84408F1A4
:401340000208C3F87880202000218EE0771C32786E1C95F800900EEB010582EA090212F0400F04D019F0400F03D0802302E0402300E0C0232B705BB212F0100F05D019F0E5
:40138000100F05D04FF0200A04E04FF0100A01E04FF0300A4AEA03032B7012F0040F05D019F0040F05D04FF0080A04E04FF0040A01E04FF00C0A4AEA03032B7012F0010FEA
:4013C00005D019F0010F05D04FF0020A04E04FF0010A01E04FF0030A4AEA03032B700CEB000512F0800F04D019F0800F03D0022302E0012300E003232B705BB212F0200FD9
:4014000005D019F0200F05D04FF0080A04E04FF0040A01E04FF00C0A4AEA03032B7012F0080F05D019F0080F05D04FF0200A04E04FF0100A01E04FF0300A4AEA03032B7085
:40144000013880B212F0020F05D019F0020F04D06FF07F0203E0402201E06FF03F0213432B70013189B235463E4620297FF66EAFC4F1AF031BB29910244A134003D5013B9B
:4014800063F003030133224A02FA83F31B7A08F801300134A4B2AF2C7FF636AF002421E0C4EBC405C4EB05151A4B1D446F2229460A20FFF7F9FB07210220FFF711FCC4F1F9
:4014C000AF0343F38D032B44002283F822206F2229460A20FFF7E8FB07210220FFF700FC0134A4B2AF2CDBD9074BB3F87E4000F019F98442D2D800F01BF9C2210920FFF79A
:40150000EFFBBDE8F08700BFA09602080300008074E60810B45A0308002307E01349086F5522C254496FCA5401339BB2202BF5D970B5002416E0A6080C4DAA6F04F0030365
:401540000B490B441B7A93556F2229460A20FFF7ABFB07210220FFF7C3FBAB6F00229A550134A4B2AF2CE6D970BD00BFA096020874E6081008B5002304E00021094AD1543C
:401580000133DBB2152BF8D900210420FFF7A8FB6F2204490A20FFF787FB07210220FFF79FFB08BDA096020838B50E4C1023A360142003F01BFC00F0D9F808220A4B9A6027
:4015C0004023A3600425A5600A2003F00FFC65600A2003F00BFCA5600A2003F007FCFFF7BDFB38BD800232400006324038B5FFF793FFFFF7BFFF1E2003F0F8FB234C4025F1
:401600006560322003F0F2FBA56000210F20FFF773FB10F0400F36D000210B20FFF760FB01210320FFF75CFB03210520FFF758FB01210520FFF754FB322003F0D7FB8021A0
:401640000420FFF74DFB00210520FFF749FB01210720FFF745FB1E2003F0C8FB00F094F8102363606560142003F0C0FB0822084B5A60042363602025A5601E2003F0B6FBAF
:401680006560002038BD042038BD00BF800232400006324010B50446FFF746FB2046FFF7E9FB10BD08B510B1FFF77EFF01E0FFF79DFF08B9012008BD002008BDF8B50746CF
:4016C0000E4614461D4613B10120FFF7EBFF24B931463846FFF70CFE15E0631EDBB2012B11D800213846FFF7F1FB012C07D101213846FFF7EBFB02213046FFF7E7FB032193
:401700003046FFF7E3FB15B10020FFF7CBFFF8BD08B50022024BC3F8082100F069F908BD00003840014BD3F808017047000038400122014B5A6070470000384010B5074CA6
:40174000074A0849204603F0ADF9236843F0004323600822044B9A6010BD00BF0000674004A70308D8E60810000632400822044B9A60044A136843F000431360704700BFFF
:40178000000632400000674008B50249024803F0BDFA08BD04A703080000674008B50146154803F021F9144BD3F8C03F13F0040FF9D0114BD3F8042242F48032C3F8042260
:4017C000D3F8042222F48032C3F80422D3F80422D3F8042342F48032C3F80423D3F8042322F48032C3F80423D3F804230422C3F8C02FD3F8C03F08BD0000674008B501460A
:40180000174803F0F1F8164BD3F8C03F13F0040FF9D0134BD3F84003D3F8042242F48032C3F80422D3F8042222F48032C3F80422D3F80422D3F8042342F48032C3F80423F6
:40184000D3F8042322F48032C3F80423D3F804230422C3F8C02FD3F8C03FC0B208BD00BF0000674038B50C46054600B121B940F2E6511B4803F0DEFA22462946194803F0CC
:40188000F9F8184AD2F80832C3F30803D2F80822C2F3C032D342F4D1124BD3F8042242F48032C3F80422D3F8042222F48032C3F80422D3F80422D3F8042342F48032C3F864
:4018C0000423D3F8042322F48032C3F80423D3F804230422C3F8C02FD3F8C03F204638BD80E6081000006740044B1B6913F0080F01D0012070470020704700BF80023240F9
:4019000010B582B002AC012344F8043D00231A461449154806F01AFE214608F02EFB08F08DFF60B14FF48472B021002009F06BF84FF48472B021002009F091F80BE0B0220A
:401940004FF48471002009F05EF8B0224FF48471002009F084F80549002009F06BF802B010BD00BF1461091048610910F8760208012901D1002070474FF0FF30704700BF9A
:40198000004870472097020808B5012003F08EFD014B186008BD00BFD0AD020808B500231A4619460248006803F0ACFC08BD00BFD0AD020808B54FF0FF31024B186803F059
:4019C0009FFE08BDD0AD020808B504F0CDFB08BD704700BF08B54FF40041034805F0C0FE024806F02BFC08BDD4AD02088C59091008B5084B1B783BB9074A0021074803F00B
:401A00008BFA0122034B1A70044B01229A609A6108BD00BFD42D03080CE708100000384008B5074B1B7833B900F06CFA00F0E4FA0122034B1A7000F05DF801F025F808BDE7
:401A4000D52D030810B5FFF7EBFF044610B900F017FF044614B900F08FFE044614B900F09FFD044600F02AFD0028FBD100F0A6FB00F014FB0CB902F007FB204610BD00BFD4
:401A800070B5194D0026344629E063090433174A52F8233004F01F02D34013F0010F1CD0EB7E012B02D0022B09D011E0284600F0B3F806462946204600F0EAF90DE0284674
:401AC00000F086F806462946204600F019F904E04FF4B871064803F0ADF930350134022CD3D9304670BD00BFBCE7081028A7030858E70810F8B500230AE0204A191D02EB15
:401B00008100002444604FF0FF3042F821000133002BF2D01A4C03232CE06668A27E174B2B4400211976012A03D00AB3032A07D91EE02069E0B1228BF1790BF0FBFF17E088
:401B400023690BB1F2791A70676800260EE006F1080307EB43034FF6FF729A80A06A20B1114600EB460002F055FA0136002EEED030342B465D1E002BCFD1F8BD28A70308CA
:401B8000BCE7081010B582B004460846638802A921F8083D1346228A05F024FCBDF8003063809DF8023023719DF8033063719DF80430A37102B010BD30B40B884A889C1AB3
:401BC0000025CD800079844200DDCC8030BC70472DE9F843C5688468038B4768867E4FF0000911E032462146284600F03FFB32462146384600F050FB814621463846FFF7D3
:401C0000DBFF0A340A35434603F1FF38002BE9D14846BDE8F88300BF2DE9F04F83B08146837E062B02D14FF0010B01E04FF0000BD9F80C80D9F80840D9F804709A46D9F811
:401C400024600025019520E052462146404600F00DFB3246398A208805F0ECFB2A4631463846FFF78FFF0C3652462146384600F013FB019021463846FFF79EFF0A34BBF150
:401C8000000F01D108F10A080135B9F818309D42DAD3019803B0BDE8F08F00BFF0B50C8B8D684F680A69012324E010EA030403D17E88B979314402E07988BE79891BEE8815
:401CC000B14201D3002100E01946A14202D01678013E1670A14201D014783CB920EA0300084309B9F97900E0012111705B000A350132744604F1FF3E002CD6D1F0BD00BF79
:401D000038B504468A7E154B03441D7E012A04D12846FFF7C3FF054604E04FF43871104803F088F80D4B23441D76620904F01F04012303FA04F445B90432084B03EB820230
:401D4000536823EA0404546038BD0432034B03EB820253681C43546038BD00BF28A7030884E708102DE9F04F83B088460B8B8A684F68D1F810E08E6A844618B97C88B979FE
:401D80000C4402E07988BC790C1B0025012109E0D3889C4201D3002300E00B461D430A3249000346581E002BF2D155B19EF8003013B1013B8EF800309EF8003023B16546AA
:401DC00002E0FB798EF80030002D4AD07A88BB79B8F81890D21A4946D8F8080002F06CF8044600284DD098F81A30022B49D100234A46D8F8201001A802F0CAF80446D8F87F
:401E000014A0D8F828904FF0000827E001AB33F818B008F1080307EB43039A884FF6FF739A4204D15946484602F0F4F809E01AF0400F06D0B9F800305B44A9F800B0C3F309
:401E40004E0B08F1080307EB4303A3F804B0B9F1000F01D009F1020908F101084445D5D80FE000240DE004F1080307EB43034FF6FF729A8026B1114606EB440002F0CAF898
:401E80000134002CEFD0284603B0BDE8F08F00BF38B504468A7E194B03441D7E012A03D062B1032A05D909E02846FFF7F7FE054609E02846FFF756FF054604E040F2264166
:401EC0000F4802F0B7FF0D4B23441D76620904F01F04012303FA04F445B90432074B03EB8202536823EA0404546038BD0432034B03EB820253681C43546038BD28A70308F2
:401F000084E70810F8B5224F4FF48672002138460BF010FE4BF274333B804FF410637B8043F2D403BB800623BB831023BB770823FB77184E07F1200406F198050FCD0FC458
:401F40000FCD0FC40FCD0FC495E80F0007C423800123C7F8FC30562206F1D80107F1A4000BF0C2FD304606F1080403230CE0A268238B04E010F8013B53720A320B46591E28
:401F8000002BF7D130342B465D1E002BEFD1F8BD28A70308B4E7081002280DD800F01F02012303FA02F24009031D044800EB83035B6802EA030070470020704728A703083C
:401FC000022811D800EB400213010A4A134493F82230023BDBB2012B09D800EB400003011344DB68988A70474FF6FF7070474FF6FF707047B4E708100023024AD380024AF5
:402000001360704728A70308702E0308C9B2062902D083180021197130F8121000EB42035980024400231372704700BF70B506460D46012305E0224629463046FFF7E6FF85
:4020400023465C1E002BF6D170BD00BF70B5084D43001A18140122462C44A66801EB81014C002A44917E3019FFF7E0FF70BD00BFBCE7081038B5054600EB40021301064AF0
:4020800013441B8B04E021462846FFF7DFFF23465C1E002BF7D138BDBCE7081010B5032303E02046FFF7E6FF23465C1E002BF8D110BD00BF70B401230DE0D3B2062B09D0DA
:4020C00031F81460A30023445D004319465331F814505D8023465C1E002BEED170BC704770B4012410E0D4B2062C0CD031F813609D001D446C000444A68031F81350E5809B
:4021000031F8135025811C46631E002CEBD170BC704700BF2DE9F04F83B005464200024413011F4A13445A6801921B8B32E06A002A4413011A4A1344D3F808B004EB840225
:402140004FEA42080BEB080AD86881465E6A04EB44018A0016449F7E062F01D000EB08093A4651464846FFF7A5FF3A4651464846FFF7B6FF05EB45021301094A1344DB7EF1
:40218000012B06D13246019B198A3BF8080005F045F923465C1E002BC9D103B0BDE8F08FBCE7081010B5032303E02046FFF7B2FF23465C1E002BF8D110BD00BF08B5FFF7CC
:4021C000F1FF08BDF0B4012319E0D3B2062B15D031F81460A70027447B0003449D883544DF88EE191D8935441F819E88DE8031F814609E80C5F38F0321F8143023465C1EC9
:40220000002BE2D1F0BC7047884202D9034608461946914200D91146884238BF084670472DE9F04707460E469046012319E05FFA88F3062B14D0A30023445D0007EB0509C8
:4022400037F805A0B9F80220514636F81400FFF7DBFFA9F802A036F814307B5326F8140023465C1E002BE2D1BDE8F08770B504460D461646FFF7D4FF324629462046FFF752
:40228000A1FF70BD00FA03F3C2F5807001FB00F102FB0310000A70472DE9F04107460D461646012338E035F8140005EB44035988884207D3421A2B194FF0000E83F808E030
:4022C000012301E00A1A00238BB97B799A420ED92B191B7A3A7A934205D3224631462846FFF794FE17E02A190133137213E0F3B2062B10D005EB040898F804E0082301222E
:402300004EEA0121FFF7BEFFC0F30F2205EB44035A8088F8040023465C1E002BC3D10020BDE8F08170B5074E42001418230133449C6801EB81014D009A7E61195868FFF7B5
:40234000ABFF70BDBCE7081070B5064600EB40021301084A13441B8B002505E021463046FFF7E0FF054323465C1E002BF6D1284670BD00BFBCE7081038B50025032304E0C0
:402380002046FFF7E1FF054323465C1E002BF7D1284638BD30B49F280ED940F2FE3399420AD9244CA1FB04454B1B05EB53035B0AC3EB832399422FD09F280DD9B1F5FF7F48
:4023C0000AD91D4CA1FB04454B1B05EB53031B0AC3EB4323994221D09F280CD97E290AD9164CA1FB04454B1B05EB53039B09C3EBC313994214D09F2814D93E2914D9104C87
:40240000A1FB04454B1B05EB53035B09C3EB831399420BD000200AE0042008E0032006E0022004E0002002E0002000E0012030BC704700BF051040002140800011080402AE
:40244000054110044A1E032A01D8102300E0002379B183B1642202FB03F3B3FBF0F3002001E001305B00092BFBD90A2B04D9013802E0002000E00020C0B2704708B501F03D
:40248000B7FC08BD08B50A4B1A689169094B5B1ADB09526902EB03135A6822F0F8525A60054A136823F00103136000F045FF08BD3CA8030880033240A8023640024BD868F5
:4024C00000F08000704700BF28A70308034B0340034AD0681843D060704700BF8000010028A70308034B0340034AD06820EA0300D06070478000010028A7030810B5174B1E
:40250000DB6813F4803F0ED102280ED843090433124A52F8233000F01F02D34013F0010F05D1012404E0112402E0012400E000248CB900EB40021301094A1344DB7E022B1B
:4025400002D101F067FC06E0012B02D100F006FF01E04FF0FF34204610BD00BF28A70308BCE7081008B50C4BDB6813F4803F0DD10A4B1B78012B05D0022B09D101F01AFB8F
:40258000002008BD00F036FE002008BD112008BD4FF0FF3008BD00BF28A70308742E0308124BDB6813F0800F1AD110B500244FF0FF3312E02046FFF7A1FF034660B9012CCA
:4025C00003D801220A4B5A7002E00022084B5A70FFF7C8FF034606E00134022CEAD902E0112318467047184610BD00BF28A70308742E0308124B1B78834220D010B504463B
:40260000012B02D1FFF73EFF03E0022B01D1FFF735FF012C05D100F065FC0122084B1A7010BD022C05D101F011F90222044B1A7010BD032C02D00022014B1A7010BD7047F5
:40264000742E030830B583B00025074C08E02179002300930E22206801F04EFE08340135082DF4D903B030BDE4E8081038B51B4A93780133DBB293709078FFF73FFF044651
:4026800050B9164B9B78DBB2022B02D10022134B5A70FFF767FF1EE0104B9B78DBB2022B10D10F4D2B8901332B818020FFF71AFFEB6823F07F43EB60EB6843EA0464EC601D
:4026C000002408E0064BDA6822F07F42DA60DA6842EA0062DA60002CC9D138BD742E030828A7030810B50146124BB3F90030002B0DDB5A0903F01F03012404FA03F32032A7
:402700000D4840F82230BFF34F8FBFF36F8F094C204602F031FBB4F90030002B08DB590903F01F03012202FA03F3034A42F8213010BD00BFC0E6081000E100E070B50228F8
:4027400001D8002500E0012595B9044600EB40021301084A1344DE7E022E02D1282101F025F9012E04D15521204600F0CBFE0546284670BDBCE7081038B50024254604E082
:402780002046FFF7DBFF05430134022CF8D9284638BD00BF70B500241CE004EB440213010E4A1344DB7E012B13D104EB440213010A4AD658002504E006EBC50000F066FDC2
:4027C000013504EB44021301044A13441B7E9D42F2D30134022CE0D970BD00BFBCE7081000EB40000301024A13445B6858897047BCE7081000EB40000301024A13445B6838
:4028000059817047BCE70810C0EB0032012303FA01F101398A4205D9C0EB0020814203D30520704706207047002070472DE9F04180460E46FFF7D4FF07460022318800F042
:402840001BFC01463846FFF7A5FD054620B931887800FFF7D9FF054629463846FFF7F2FD04466B1FDBB2012B03D839464046FFF7C1FF2001C0B228433073BDE8F08100BF0B
:40288000F0B58BB04FF47A73ADF8003040F2C343ADF802304FF49673ADF80430584B9A7F584BB3FBF2F3ADF80C3000F01BFB0024264655E004EB44021301534A1344DB7ECB
:4028C000012B46D104EB440213014F4A13445D680C232B8000232B73BDF80C304B4AA2FB03235B092F4627F80A3F5521204600F009FE0497464B1B788DF81830454B1A88E1
:402900004FF47A7303FB02F2434BA3FB0213D21A03EB5203C3F3CF23ADF80E30684604F009FD3E4B984203D9062601E05B006B81BDF80C106B8941F2707202FB03F29142A0
:40294000F4D8032BF2D90AAB03EB840343F80C0C05E001220AAB03EB840343F80C2C0134022CA7D900242AE004EB44021301264A1344DB7E012B21D104EB44021301224A23
:4029800013445D685521204600F0BCFD064305F10A0304930AAB03EB840353F80C3C02931B4B1B788DF81830EB89ADF8063005F110030593684604F0E3FC28800134022CFF
:4029C000D2D9002416E004EB440213010E4A1344DB7E012B0DD104EB440213010A4A134459682046FFF722FF5521204600F08AFD06430134022CE6D930460BB0F0BD00BF2A
:402A000028A70308A0860100BCE70810F11976051C7702081E77020801011000870D0100F8B5002428E0620022441301144A13445D68DB7E012B02D0022B05D016E0294685
:402A40002046FFF7F3FE16E02E88204601F02AFA07463146FFF79EFC064601463846FFF7F1FC0001C0B23043287304E040F25971044802F0DFF90134022CD4D9F8BD00BF9F
:402A8000BCE7081070E9081008B5FFF7C9FFFFF7D9FD0020FFF7AEFD002008BD38B52D4D2A6893692C4CE31ADB09526902EB03135A6822F0F8525A60802363602B6893F895
:402AC0007D20135923F0704343F0C04313512A689369E31ADB0951691B01CA5822F4F852CA50022363602B6893F87D20135923F0F00343F0600313512A689369E31ADB090E
:402B000051691B01CA5822F4F812CA50042363602B6893F87D20135923F4706343F4C0631351012002F07AF92B6893F87D20135923F0704313512B6893F87D20135923F099
:402B4000F00313512B6893F87D20135923F47063135138BD3CA80308800332400F4B1B7803EB43031A010E4B1A4453680D4AD2F8D02091B2188801238340013B994206D238
:402B8000094B1B680949097823F811207047064A12680649097822F811307047762E0308BCE708100000364034A803082CE9081038B5234A1378234C03EB430319012144C1
:402BC0004868137803EB43031A012244127E013A1D4B1B78DBB29A421CD91B4C23780133DBB22370164D2B7803EB43031A01154B1A449168237803EB83035A000A44134B4A
:402C00001A6000F011FA2878217800F02DFB00F075FA38BD00220C4B1A704FF48030FFF761FC0B4B1B78012B02D1FFF71FFD38BD8020FFF757FC074A13890133138138BDAF
:402C4000762E0308BCE708107C2E030834A80308752E030828A7030808B5074B4FF483721A601B68FFF77AFF044A1389013313810348FFF737FC08BDF000364028A70308E8
:402C80008000010010B50C4B1B7803EB43031A010A4B9B580A4A147803EBC404094B4FF483721A601B68FFF759FF204600F0EEFAFFF77EFF10BD00BF762E0308BCE7081039
:402CC0007C2E0308F000364001390843014B1860704700BF000236400E4B1B6823F4F8730D4A917F0D4AB2FBF1F20D498A4204D843F02003074A136070470A498A4204D80C
:402D000043F03003034A1360704743F04003014A136070471877020828A7030800E1F505001BB70000366E01044A054B1A604FF0A17203F580731A60704700BF000043017D
:402D400000043640084A136803F07F0343F0A17343F48033136002F58072136803F07F0343F480031360704700043640074A136843F0805343F001031360054A054B1A6027
:402D80004FF0A17203F580731A607047A8023640000043010004364010B40488012000FA04F4013C04EB840303FA00F00C4BA3FB00035B0901335818844200D220468B42F9
:402DC00001D8C91A00E00021914203D8904203D2062002E0062000E000205DF8044B70471F85EB510023164A136002F5927213600432136006212C3A11604FF48071083AD7
:402E000011600121903A1160A2F580724FF48371116012680B4A136003220B4B1A604FF4FA6300E0013B094A126812F0040F01D1002BF7D113B90822034B1A60704700BFC5
:402E40008C013640F800364040033640F00036401D4B4FF483721A601B681C4BB3F90030002B08DB590903F01F03012202FA03F3174A42F821300023164A13603032136091
:402E8000043213602C3A1360983A13600121643A11600C3A13608032136843F08073136002220D4B1A604FF4FA6300E0013B0B4AD2F8842012F0070F01D0002BF6D140F219
:402EC0000132074B1A607047F0003640C0E6081000E100E080023640F8003640000036404003364070B5FFF755FCFFF7D7FD4FF48032404B1A604048036843F0805343F046
:402F00000103036000233D4A136002F5E07213600C32136060321360A2F5CE72136002F582721360083A1360354C2360A2F5807213604FF0487102F5A8721160314D2A68B4
:402F400092F87D60304AB15821F07041B15029688D69521BD209496901EB0212516821F0F85141F08061516028490A6842F480520A604FF48071264A1160026842F0805275
:402F800042F0010202604FF0807222490A6041F24140A1F58E71086001F584710B602260FFF7C2FE1C4B9B7F013BFF2B0BD8154A12689068B2F87410425822F47F421B02DE
:402FC0009BB213434350FFF787FE144B1B6843F0004343F48053124A13600F22114B1A600022A3F588731A600A2203F590731A6070BD00BF04023640A8023640F400364026
:40300000840236403CA803088003324094023640A0023640A402364028A7030818770208000036400003364038B5054601F06DFF0D490B6823F07F020C4B1C7825446B7AE3
:4030400013430B6001F065FF01F05FFF08490B6823F07F02074B1B681C44637A13430B6001F057FF38BD00BF000436402CE908100005364034A8030830B401248C40631E66
:4030800040B10F2904D9A4F10A03B3FBF0F301E0B3FBF0F3053A012A00D85B080BB9012000E0184630BC704708B50C4B1B7803EB43031A010A4B1A44536859891B7B180402
:4030C0005A1F012A01D840F00070053B012B02D8490800D10121FFF7F7FD08BD762E0308BCE7081008B5027B01884089FFF7C4FF80B2014B186008BD1403364008B50D4B6E
:40310000B3F90030002B0DDB5A0903F01F03012101FA03F32032084941F82230BFF34F8FBFF36F8F0122054B1A60FFF75BFEFFF78FFE08BDC0E6081000E100E080013640AD
:4031400008B50348FFF7C2F9FFF7D8FF08BD00BF80000100F8B5054601F0D7FE06462F682C79072C04D94FF47171204801F062FEA4001F4B1B6893F87D00C2590F23A340C7
:4031800022EA0301062202FA04F30B43C3512C682D79072D04D94FF42271144801F04AFE134B1A689369E31ADB0952691B01D118032D0BD8D158ED001F20A84021EA0000F4
:4031C0000B2101FA05F50543D5500BE0043D4B68ED001F22AA4023EA02020B2303FA05F515434D60304601F094FEF8BD30E908103CA8030870B5164E3378164C03EB430377
:403200001A0122445068144D00232B70337803EB43031A01224491682B7803EB83035A000A440E4B1A60FFF7FFFE337803EB43031A01A358287803EBC000094B1860FFF753
:4032400089FF0848FFF74EFAFFF77AFF70BD00BF762E0308BCE708107C2E030834A8030838A80308852C081008B500EB40000301044AD05800EBC100034B1860FFF76AFFF0
:4032800008BD00BFBCE7081038A80308F8B5064601F03BFE074634683579072D04D94FF42271234801F0C6FD224B1A689369E31ADB0952691B01D118032D08D8D158ED0072
:4032C0001F2000FA05F521EA0505D55008E0043D4B68ED001F2202FA05F523EA05054D6035683479072C04D94FF47171104801F0A1FDA4000F4B1B6893F87D0042590F23E1
:40330000A34022EA03010E2202FA04F30B43435135683479072C04D940F28131044801F089FD0123A3406B60384601F0F2FDF8BD30E908103CA8030808B5064B1B78012BC2
:4033400006D1054B1868FFF7A1FF0022014B1A7008BD00BF7D2E030838A8030870B5124D00EB400213012B445C68C0B20F4E30700120FFF73FF9FFF7DFFF337803EB43038A
:403380001A01AA580A4B1A600A4BDA6822F07F02DA603178DA680A43DA602046FFF7A2FEFFF782FE70BD00BFBCE70810762E030838A8030828A7030838B542000244130135
:4033C000104A13445D68C9B20F4C21709968237803EB83035A000A440C4B1A60FFF7BEFF2846FFF721FE2078094A136803EBC0001060FFF7AFFE0122064B1A700648FFF7C8
:4034000071F938BDBCE708107C2E030834A8030838A803087D2E0308592C08102DE9F84307460D4690462E490B7803EB43031A012C4B1A4456684FF0000985F80090087820
:40344000294B1978FFF7B8FFFFF77CFC8024B94503D22B7823EA04032B7064082B7823432B703046FFF7E0FDFFF76AFE1F4B00E0013B1F4AD26812F0800F01D0002BF7D12E
:403480001C4B1B68B3F80090002CE0D1144B1B7803EB43031A01134B9B58134A107803EBC000154B1860FFF7F1FE0022134B1A70FFF75CFC4A4639463046FFF76DFC98F85C
:4034C00000202B789A4205D288F800300C4A1371A2F80690074B1B682A785A72BDE8F883762E0308BCE708107C2E03085C66060028A7030834A8030838A803087D2E0308F0
:40350000187702082DE9F04383B004460F4600EB40023C4B03EB02135E6801258DF80450B14639F8098B05FA08F808F1FF3801FB08F3354AA2FB03384FEA5818C2B2334B87
:403540001A703348FFF7CEF8324B1D71DD800025314B1D700AE001AA49464046FFF75EFF05432D4A13780133DBB2137004EB4403244A02EB03131A7F274B1B78DBB29A42BB
:40358000E9D89DF8043001335B0873720022224B1A7024E004EB44031A4A02EB03139A681D4B1B7803EB830302EB43021B4B1A60537A717A8B420BD35B1ADBB207FB03F36B
:4035C00063331149A1FB0313C3F34713537201E000235372104A13780133DBB2137004EB4403084A02EB03131A7F0B4B1B78DBB29A42CFD80022084B1A70284603B0BDE880
:40360000F08300BFBCE708101F85EB51762E0308592C0810187702087C2E030834A8030842890388901E10FB03F080B2704700BF08B52A4BB3F90030002B0DDB5A0903F01B
:403640001F03012101FA03F32032254941F82230BFF34F8FBFF36F8F224B4FF483721A601B68214BD3F8D020D3F8D4309BB213FA82F31E4A128892B2934204D91B4A13882B
:403680009BB2538002E09BB2184A5380184B1B689847184BDB6813F0800F0FD1164A124B1A604FF4407203F5C6731A60134A03F51D731A601F22A3F598731A60074BB3F917
:4036C0000030002B08DB590903F01F03012202FA03F3034A42F8213008BD00BFC0E6081000E100E0F000364000003640802E03082077020828A7030820100C80800E430187
:403700003F4B1A683F4B1B7813445A7A3E4B13433E4A136000233E4A53803E493E4A1160012102F5C0721160112102F5807211604FF08071043211603C3213600622374BB3
:403740001A60374A28331A6041F2101204331A60344AC43B1A6040F2033203F5A8731A604FF4FA6300E0013B2F4A126812F0010F01D0002BF7D12C4B1B6813F0010F03D023
:403780004FF44272284B1A60284BDA7F284BB3FBF2F3284A934204D9274A934203D8302302E0202300E0402343F0004343F44123194A136040F20132204B1A600023204996
:4037C0000B6001F580710B6004310B603C310B6038390B601B482831086042F2102004310860C4390B601F21174B1960A3F5F0734FF4837119601B680B4B1A60704700BF9C
:4038000034A803082CE90810800E430100043640802E030820100C80000036408802364001010100AA0005004003364028A7030800E1F505001BB70000366E018C013640A3
:403840008001364001030300D002364010B5FFF725F949490B6893F87D00484BC25822F0F002C2500A6892F87D10CA5822F47062CA504FF4837203F57F3303F5B8731A602D
:40388000002404331C60022204331A6088331C6004331C6041F2415204331A604FF4407204331A60364A03F51D731A6003F580731C60344AA3F544731A60334A10331A60EB
:4038C00004331C607C331C6004331C6004331C6008331C6001F019FB2C4A136823F48053136001F016FB2322294B1A604FF0807204331A6001F009FB264A136823F080539D
:4039000023F4801343F08053136001F002FB224A224B1A6042F2102204331A600C331C601F2210331A600F2230331A60042210331A6004331C600C331C604FF442722033AA
:403940001A60174AA3F550731A60164BDB7F013BFF2B0BD8084A12689068B2F87410425822F47F421B029BB213434350FEF76AFE0D48FEF7B7FE10BD3CA8030880033240D0
:40398000800E4301AA0005002A00000C94023640A0023640A802364001030300B002364020100C8028A70308313608102DE9F84380460E46430003441A012A4C1444D4F81E
:4039C0000890294BC3F800906068FFF729FE274B1880198889B201FB06F1254EA6FB0136E37E022B3CD17609227F657F05FB02F5002109E01C4A1368002018801368402053
:403A000058720A3313600131A942F3D32024402700E01C464046FEF771FDFEF7A3FD154BDB6813F0800FFAD10F4BC3F8009000210FE00D4B1B681A88964203D25A7A22EAFF
:403A400007025A725A7A22435A720A33064A13600131A942EDD3C4F347032746002CD8D1BDE8F883BCE7081034A80308802E03081F85EB5128A70308F8B5054601F045FAEF
:403A800006462F682C79072C04D94FF47171204801F0D0F9A4001F4B1B6893F87D00C2590F23A34022EA0301062202FA04F30B43C3512C682D79072D04D94FF42271144854
:403AC00001F0B8F9134B1A689369E31ADB0952691B01D118032D0BD8D158ED001F20A84021EA00000A2101FA05F50543D5500BE0043D4B68ED001F22AA4023EA02020A238A
:403B000003FA05F515434D60304601F002FAF8BD30E908103CA80308F8B5054601F0F5F906462F682C79072C04D94FF471711F4801F080F9A4001E4B1B6893F87D10CB5920
:403B40000F2202FA04F423EA0404CC512C682D79072D04D94FF42271144801F06BF9144B1A689369E31ADB0952691B01D118032D0BD8D158ED001F20A84021EA000004211E
:403B800001FA05F50543D5500BE0043D4B68ED001F22AA4023EA0202042303FA05F515434D60304601F0B5F9F8BD00BF30E908103CA8030810B500220F4B1A700F4B1B6827
:403BC00099680F4A11605A7F0E4CA280187FE0801B68A36003EBC000E060FFF74DFFA068FFF79AFF084A094B1A608020FEF76EFCFFF786FD10BD00BF7C2E0308782E0308D7
:403C000034A80308802E0308213D08102077020870B5054601F079F906462C682D79072D04D94FF42271114801F004F9104B1A689369E31ADB0952691B01D118032D08D8BC
:403C4000D158ED001F2000FA05F521EA0505D55008E0043D4B68ED001F2202FA05F523EA05054D60304601F054F970BD30E908103CA80308F8B5064601F047F907463468E9
:403C80003579072D04D94FF42271234801F0D2F8224B1A689369E31ADB0952691B01D118032D08D8D158ED001F2000FA05F521EA0505D55008E0043D4B68ED001F2202FA24
:403CC00005F523EA05054D6035683479072C04D94FF47171104801F0ADF8A4000F4B1B6893F87D0042590F23A34022EA0301062202FA04F30B43435135683479072C04D9F9
:403D000040F28131044801F095F80123A3406B60384601F0FEF8F8BD30E908103CA8030810B52C4B19682C4B18782C4C23889AB263889BB2D31A21F81030E068FFF768FF73
:403D4000274A13780133DBB21370A388013B9BB2A3805BB1E0680830E060FFF78DFE1D4A13680A331360FFF7CBFC10BD1B4AD388013B9BB2D380D3B114469068FFF77AFFE2
:403D8000A0680830A060FFF7C7FE164B1A68537FA3801368107F03EBC000E060FFF76CFE0C4A13680A331360FFF7AAFC10BD0B4B9868FFF75FFF0C4B1B7813B1FEF756FC4F
:403DC00010BD0A4A1389013313818020FEF78AFB10BD00BF34A803082CE90810802E03087C2E0308782E0308752E030828A70308074B1B8A53B110B5054CE068FFF708FF87
:403E0000A068FFF737FF0023238210BD704700BF802E030838B50446C2B21A4B1A700220FEF7E8FBFFF7E4FF04EB44042201164B1344164A13605D686C892A88144B1A60F3
:403E40002846FFF7EDFB134B18802B7B013CC4F30B0444EA034444F040640F4B1C600F4BDB7F013BFF2B0BD80D4A12689068B2F87410425822F47F421B029BB2134343507C
:403E800038BD00BF762E0308BCE70810782E030814033640802E03080002364028A703083CA8030800EB40000301024A13445B6858897047BCE70810F0B50023334C2370EA
:403EC00004461E460BE0E588954206D9AE4204D22E4E3371012737702E460A3401338B42F1D32A4B1B78002B47D14BE0274EB3181B7903EB83056C000519B5F806E002EB10
:403F000042077D003544A5F80AE09BB901EB81056C000A3C0444E688550015446C001B4D2C442681013303EB83035D000544EB88A38120E04D1EEDB2AB420CD1A4F10A0399
:403F40000344DD88540014446300104C23441D81C4889C810FE00A3C0444E688550015446C000A4D2C442681013303EB83035D000544EB88A381013200E00022034B1B784E
:403F80009A42B3D3014B1878F0BD00BF942E03082DE9F041002533E01D4C2C4424793CB905EB45077E001A4F3E440027378109E0561EB44206D105EB45077E00144F3E4453
:403FC0000027B7816F002F447E00114F3E44B6F80C80B6F808E0CEEB0807B6F80AC00EEB0C0608EB060E01FB07F696FBFEF604FB013434447F34C4F30F2420F81540013594
:40400000034C2478A542C7D32046BDE8F08100BF942E030800B10180704700BF10B500EB40021301164A13449B7E023B012B21D800EB400003011344586800234B720CE01A
:4040400003F1080200EB420294884FF6FF72944202D04A7A01324A720133002BF0D0838A0B8000234B8001238B724FF6FF738B80CB8010BD9721034800F0DCFE10BD00BFED
:40408000BCE708109CE9081008B509480022C0F80021084B5A729A721A724FF6FF721A805A809A80DA80A43003F004F908BD00BF28A70308A42E030838B50446022827D1F2
:4040C000194D2946FFF7AAFF2B7A5BB1012B1AD16B7AFBB90025144B1D72144803F0EAF8284618E0104B587A9B7A984204D901220D4B1A72FE200EE00B4A0D4BD3F80011AC
:4041000000F020F807E00122074B1A72FE2002E0FF2000E0FE2004EB44042301054A13445B68987438BD00BFA42E0308CCA7030828A70308BCE70810014BC3F8000170473F
:4041400028A7030808B5C0B203F02AF830B12F2803D04F2802D1002008BD002008BD00BF1F4B98422DD00CD840282ED003D8E8B1102828D02FE0802829D0B0F5807F28D0C8
:4041800029E0184B984228D006D8B0F1204F0DD0154B984212D01EE0144B98420AD00133984209D0023B984215D101E0002070470F4870470F4870470F4870474FF4A00020
:4041C0007047074870470D4870470D4870470D487047034870470C4870474FF4A400704706005200010000F0090000A0040000F00100520002005200030052000100500000
:404200000200500005005200FF00520038B5124B1B6893F83130012B04D840F2C3110F4800F008FE0C4B1D682A6AB5F8B03013442C46D5F8B420D358002B0BDB084B1868FA
:40424000FFF78EFF6B6801229A6063689B68002BFBD138BD034838BD3CA80308C8E90810B02E0308020050001A4B186128B102230370FF23437000234380174B1B6893F864
:4042800050202AB300B583B0B3F93830ADF80030002301931149684600F06EFDBDF90030002B08DB590903F01F03012202FA03F30B4A42F82130084B1B6893F8513023B1B0
:4042C00002220849012000F0F3FA03B05DF804FB704700BFB02E03083CA803088D78020800E100E04579020808B50248FFF7BCFF08BD00BFC42E03082DE9F04104460D4641
:40430000174698469DF81860072903D9D921354800F090FD37F00F0303D0DA21314800F089FDB8F1010F03D9DB212E4800F082FD36F01F0303D0DC212A4800F07BFD22684D
:404340000123AB4022EA030308F0010808FA05F843EA08032360244B1B6893F87D100B59A8000F22824023EA020207F00F0303FA00F717430F51072D04D94FF422711B4846
:4043800000F058FD36F01F0304D040F28921174800F050FD144B1B689A69A41AE4095B6924011919032D0DD81959ED001F22AA4021EA020206F01F0606FA05F515431D51F0
:4043C000BDE8F081043D4A68ED001F23AB4022EA030306F01F0606FA05F51D434D60BDE8F08100BF08EA08103CA8030848EA081038B50B4B1B68D3F8B4301B58002B0DDA54
:404400000D4604460B0C1B0423B140F2D521054800F010FDA9B26160002038BD024838BD3CA8030888EA081001008A0038B50368002B01DA002300E0094B73B90D46044671
:40444000C2600B0C1B0423B140F2BB21054800F0F1FCA9B2A160002038BD014838BD00BF01008A0088EA081038B504460D4619B99921084800F0DEFC074B1B68D3F8B430A1
:404480001B59002B03DAE3682B60002038BD034838BD00BFC8EA08103CA8030801008A00254B1B6893F8313083423AD900293AD00B6813F01F0F38D170B50D4604461E4B90
:4044C0001B6893F83130984204D340F2C3111B4800F0B0FC184B1B68186AB3F8B03004FB0304174E34602A68D2080021686809F021FB00212046FFF77BFF346825B940F290
:4045000093310E4800F096FC2A4600212046FFF78DFF60B900210A4B1868FFF769FF40B970BD084870470748704706487047064870BD054870BD00BF3CA8030888EA081094
:40454000C82E030803018A0001018A0010B504461346B2B9A9B9124B1B6893F83130984204D340F2C3110F4800F064FC0C4B1B681A6AB3F8B03004FB03240B4B1C600020C0
:4045800010BD43B149B1084A51609360111D2046FFF786FF10BD054810BD044810BD00BF3CA8030888EA0810C82E030803018A002DE9F0411B4B1B68DC68236883422CD9AB
:4045C0000D464609A0EB4610012303FA00F819B900F09BFC074600E00027124B18680368002B01DA002300E00F4B83B9626852F8263018EA030F05D023EA080342F8263090
:40460000002400E0094C0021FFF7F2FE00E0084C25B9384600F07DFC00E0064C2046BDE8F08100BFC82E030801008A00020188000301880004018A000B4B1B68DB681A68E4
:4046400082420CD94109A0EB4110012202FA00F05B6853F82130184203D004487047044870470448704700BFC82E03080101880004018A0000018800024B1B680BB9014B85
:4046800018607047D42E03082DE9F8430446884691461D46089F2C4B1B681BB9B5212B4800F0C8FB284B1B682C2000FB04F01C18EEB21E50C5F3072363602D0CA560244BE5
:4046C0001B6893F831309E4204D340F2C311214800F0B0FB1E4B1B68196AB3F8B02006FB02162661666893F832309E4204D340F2DF11184800F09EFB154B1B681D6A803663
:4047000005EB46156561A668330C1B0423B14FF4FF71104800F08EFB330C1B0423B140F2FF110C4800F086FBB3B243EA0646AE60C4F81C90C4F820800023A36117B1B7F91C
:404740000030A381BDE8F883D42E030808EB08103CA8030888EA0810F0B58FB0044618B95221274800F066FBA369072B03D95621234800F05FFBE36A1BB95821204800F0CA
:4047800059FB236B1BB959211D4800F053FB07AD04F114060FCE0FC537682F6002AD26460FCE0FC533682B60164B1B68B3F93620079B1344ADF83030089B0D93A26AE16A14
:4047C0000CAD00953B460A98FFF75EFF00210091069B0A460598FFF757FF216B284600F0CBFABDF93030002B08DB590903F01F03012202FA03F3044A42F821300FB0F0BDC5
:4048000008EB08103CA8030800E100E0F8B506460F461D4614461AB9FD211F4800F00AFB1E4B1B681BB9FE211B4800F003FB1B4B1B682C2101FB063001FB07314B680122C3
:4048400002FA03F31B04466802FA06F60269EAB18F69EFB91268002A01DA002200E0104AC2B92288134323600369DC6001238B614D620469330C1B0423B140F2BB2109489D
:4048800000F0D8FAB2B2A2600020F8BD0648F8BD0648F8BD0548F8BD08EB0810D42E030801008A0088EA081004028A0007028A00F8B505460F4616460E4B1B6823B94FF4FF
:4048C000AF710D4800F0B6FA0A4B1B682C2404FB0534236A23B94FF4B171074800F0AAFAE369B34204D9236A43F826700020F8BD0248F8BDD42E030808EB08100A028A0094
:4049000070B582B000230193044620B940F2D111284800F08FFA236923B94FF4E971254800F088FA636923B940F2D311214800F081FA236A23B94FF4EA711E4800F07AFA02
:404940006369DD682A0C20D012041A601B682069194B1B68D3F8B430C358002B15DA01A9FFF782FD60B9019803681E0CDBB2E269934206D2226A52F8233013B1984700E002
:40498000002631462069FFF733FDADB275B16369ADB21D601B68636A1BB198470023636202E0A36A03B198470023A36163691B6802B070BD08EB08103CA8030810B50446BB
:4049C000074B1B6823B940F2B111064800F032FA034B1B682C2000FB0430FFF791FF10BDD42E030808EB0810036813F4006F01D0802200E04022D0F80832C3F308039342C3
:404A000003D0C0F84012012070470020704700BF10B4D0F8003203F00F03072B06D900230DE0CC5CC0F84042013300E000239342F7D306E031F81340C0F84042013393426A
:404A4000F8D35DF8044B704710B51446036813F4006F01D0802200E04022D0F80832C3F30803D31AA34200D81C462246FFF7D0FF204610BDF8B507460D461446D0F800625B
:404A800006F00F060BE0224629463846FFF7DCFF072E01D9430000E003461D44241A002CF1D1F8BD002800F02481F8B50546002900F0218117460C460B78012B03D93F2113
:404AC0008F4800F0B7F96378012B07D9052B05D0022B03D040218A4800F0ACF9A378032B03D94121864800F0A5F92378012B07D16368023B0E2B03D94321814800F09AF93C
:404B0000A36933F00F0303D044217D4800F092F9A368043B0C2B03D94521794800F08AF9E368043B0C2B03D94621754800F082F96378022B07D0A268E3689A4203D047214E
:404B40006F4800F077F9636A33F06D0303D049216B4800F06FF9E36A33F0730303D04A21674800F067F9236B33F4206303D04B21634800F05FF96378A678052B07D8DFE81A
:404B800003F0060305060603022600E00026A368082B04D8E368082B03D9002302E0002300E0012313B14FF4006200E00022237F13B14FF4807300E000231A436368013BA9
:404BC00003F00F03134343F080732B60226A2B6813F4006F01D0802300E040239A4203D35821474800F026F9A26A2B6813F4006F01D0802300E040239A4203D35921404814
:404C000000F018F9237D0BB9012100E000216278052A01D1022300E000230B43E17C09B1102100E000210B43617C09B1202100E000210B432178012902D14FF0004100E0E7
:404C400000210B43B60006F00C063343A169090201F470610B43120602F0407213432B62237C13B14FF4807200E00022A37C13B14FF4007300E000231A43A368013B03F0FC
:404C80000F031343C5F8003394F82030C5F80433237C13B14FF4807200E00022E368013B03F00F031343C5F8003294F82830C5F80432636A03F06D03C5F8C83FE36A03F056
:404CC0007303C5F8883F236B03F40073C5F8003F236B03F40063C5F8403F0023C5F8C83E5FB118463B60BB61FB60FB61054B3B62F8BD054870470448F8BD0020F8BD00BFA5
:404D00008CEB0810EFCDAB000140AA00036823F00043036019B100220A60CA608A61036A002B04DB0023C0F8C83FC0F8883F704738B50D4B9A680D4B9A420FD10D4604467C
:404D400021B940F237110A4800F074F804F11003064A52F8230042F8235038BD1030054B53F8200038BD00BF00ED00E000400208CCEB08100000081048B338B504460D4698
:404D80004368072B03D93221134800F053F8B4F900306268002B08DB5201D2B203F1604303F5614383F8002305E003F00F035201D2B20A49CA540A4B9A680A4B9A4208D161
:404DC0002946B4F90000FFF7B3FF002038BD06487047002038BD00BFCCEB081014ED00E000ED00E0004002080100560010B5044605E0084B186800F07FF8A4F50044B4F52F
:404E0000004FF6D8044B186800FB04F000F074F810BD00BFA8420208A442020808B5034B1B7800FB03F000F067F808BDA042020801BEFEE738B50D46044C18220146204624
:404E400008F0A4FEA5610020FFF7F2FFB87D0208FEE700BF08B50268254BDA6142681A6282685A62C2689A620269DA6242691A6382695A63C2699A631E4A916AD963D16A6B
:404E80001964516A5964516B9964926BDA64F1EE103A13F0900F27D0026A154B1A65426A5A65826A9A65C26ADA65026B1A66426B5A66826B9A66C26BDA66026C1A67426CEA
:404EC0005A67826C9A67C26CDA67026DC3F88020426DC3F88420826DC3F88820C26DC3F88C20026EC3F89020FFF7B2FF08BD00BFB87D020800ED00E00230800803D0013003
:404F00000238FCD100BF00BF7047EFF3108072B6704780F31088704700287DD00346002A7CD070B45068000280B29568AD0405F480252843D468240404F440340443106997
:404F4000000600F0E0602043147F0CB1012400E0002420430C1DA4011851D06828B903EB81100024C0F808410CE0012805D1146803EB8110C0F8084104E003EB8110012459
:404F8000C0F80841106938B9546903EB8110C0F80C419469C0F81041146803EB8110C0F81441906CB0F1FF3F17D0946A04F00F04166B360206F470663443956B2D0405F446
:404FC00070252543146C2403A4B22C430001C0B2204303EB8114C4F82001506A00F00300D66A360106F030063043556B2D0205F440752843D46BA401E4B20443506C80004A
:4050000000F00C00204303EB8113C3F82401126AC3F83821002003E0024870470148704770BC70470100B600014B1860704700BF3CA8030800F1080343604FF0FF32826067
:40504000C360036100230360704700BF00230361704700BF43684B609A688A609A68516099600861036801330360704730B40D68B5F1FF3F01D1026907E000F1080200E064
:405080001A4653681C68A542FAD253684B6099608A605160086103680133036030BC704703694268816891608268416851605A68904201D182685A60002202611A68013A16
:4050C0001A601868704700BF436A23B1036B1868C0F1070070470020704700BF10B5044601F098FBA26BE36B9A4201D1012400E0002401F0B1FB204610BD00BF10B5044669
:4051000001F088FBA36B0BB9012400E0002401F0A3FB204610BD00BF70B504461646856B026C3AB9036843BB406801F087F80023636029E06EB9806808F0D6FCA268236C81
:405140001344A3606268934219D32368A36000201AE0C06808F0C8FC236C5B42E2681A44E26021688A4202D262681344E360022E07D145B1013D002006E0002004E00020B5
:4051800002E0002000E000200135A56370BD00BF026C72B110B50346C4681444C4604068844201D31868D8600846D96808F09CFC10BD704738B5054601F02CFB95F845407D
:4051C00064B20AE06B6A53B105F1240000F036FF08B100F0C1FF013C64B2002CF2DCFF2385F8453001F038FB01F014FB95F8444064B20AE02B6953B105F1100000F01EFFED
:4052000008B100F0A9FF013C64B2002CF2DCFF2385F8443001F020FB38BD00BF38B540B94FF03F0383F31188BFF36F8FBFF34F8FFEE704460D4601F0EDFA2168E26B236C88
:4052400003FB021060600020A063A160013A02FB0313E360FF2384F8443084F845307DB92369ABB104F1100000F0E8FE80B14FF08052094B1A60BFF34F8FBFF36F8F07E076
:4052800004F11000FFF7D6FE04F12400FFF7D2FE01F0E2FA012038BD04ED00E010B5029B0C4609B91B6000E01A60D8631C6401211846FFF7B3FF10BD40B94FF03F0383F3A1
:4052C0001188BFF36F8FBFF34F8FFEE7F0B583B0034611B101FB00F000E000201D4617460C46483001F0D8FB064638B100903B4600F1480221462846FFF7D0FF304603B08F
:40530000F0BD00BFF0B585B0019240B94FF03F0383F31188BFF36F8FBFF34F8FFEE7044619B9026C1AB9012202E0012200E0002242B94FF03F0383F31188BFF36F8FBFF372
:405340004F8FFEE7022B03D1E26B012A02D102E0012200E0002242B94FF03F0383F31188BFF36F8FBFF34F8FFEE71D460E4600F001FF18B9019B1BB9012302E0012300E075
:40538000002343B94FF03F0383F31188BFF36F8FBFF34F8FFEE7002701F03CFAA26BE36B9A4201D3022D21D12A4631462046FFF7B3FE636A6BB104F1240000F03FFE88B143
:4053C0004FF08052324B1A60BFF34F8FBFF36F8F08E038B14FF080522D4B1A60BFF34F8FBFF36F8F01F038FA01204EE0019B1BB901F032FA002048E01FB902A800F062FE38
:40540000012701F029FA00F04FFC01F003FA94F844305BB2B3F1FF3F02D1002384F8443094F845305BB2B3F1FF3F02D1002384F8453001F011FA01A902A800F04DFEF0B927
:405440002046FFF74BFEA0B1019904F1100000F0BDFD2046FFF7AEFE00F0B4FC00289BD14FF080520A4B1A60BFF34F8FBFF36F8F92E72046FFF79EFE00F0A4FC8CE72046B7
:40548000FFF798FE00F09EFC002005B0F0BD00BF04ED00E048B108B5002141600160C1600B460A46FFF72EFF08BD704710B5024600210120FFF700FF0446FFF7EBFF2046B6
:4054C00010BD00BF2DE9F84340B94FF03F0383F31188BFF36F8FBFF34F8FFEE7044619B9006C18B9012002E0012000E0002040B94FF03F0383F31188BFF36F8FBFF34F8FDB
:40550000FEE7022B03D1E06B012802D102E0012000E0002040B94FF03F0383F31188BFF36F8FBFF34F8FFEE71F469046894601F075FAEFF311864FF03F0383F31188BFF368
:405540006F8FBFF34F8FA26BE36B9A4201D3022F1ED194F845506DB23A4649462046FFF7DBFDB5F1FF3F0DD1636A9BB104F1240000F064FD80B1B8F1000F0FD00120C8F801
:4055800000000CE06B1C5BB284F84530012006E0002004E0012002E0012000E0012086F31188BDE8F88300BFF0B585B0019240B94FF03F0383F31188BFF36F8FBFF34F8F23
:4055C000FEE7044619B9036C1BB9012302E0012300E0002343B94FF03F0383F31188BFF36F8FBFF34F8FFEE70E4600F0C3FD18B9019B1BB9012302E0012300E0002343B91B
:405600004FF03F0383F31188BFF36F8FBFF34F8FFEE7002701F0FEF8A56BC5B131462046FFF7B6FD013DA563236963B104F1100000F004FD38B14FF08052304B1A60BFF31E
:405640004F8FBFF36F8F01F007F9012053E0019B1BB901F001F900204DE01FB902A800F031FD012701F0F8F800F01EFB01F0D2F894F844305BB2B3F1FF3F02D1002384F8E1
:40568000443094F845305BB2B3F1FF3F02D1002384F8453001F0E0F801A902A800F01CFDF0B92046FFF72AFDA0B1019904F1240000F08CFC2046FFF77DFD00F083FB002865
:4056C000A8D14FF080520D4B1A60BFF34F8FBFF36F8F9FE72046FFF76DFD00F073FB99E72046FFF767FD00F06DFB2046FFF706FD00288FD0002005B0F0BD00BF04ED00E0D4
:4057000070B584B0019140B94FF03F0383F31188BFF36F8FBFF34F8FFEE70446036C43B14FF03F0383F31188BFF36F8FBFF34F8FFEE700F01FFD18B9019B1BB9012302E01B
:40574000012300E0002343B94FF03F0383F31188BFF36F8FBFF34F8FFEE700252E4601F059F8A36BCBB1013BA363236813B900F005FE6060236963B104F1100000F05EFCB1
:4057800038B14FF08052414B1A60BFF34F8FBFF36F8F01F061F8012076E0019B6BB945B14FF03F0383F31188BFF36F8FBFF34F8FFEE701F051F8002066E01EB902A800F06C
:4057C00081FC012601F048F800F06EFA01F022F894F844305BB2B3F1FF3F02D1002384F8443094F845305BB2B3F1FF3F02D1002384F8453001F030F801A902A800F06CFC00
:4058000040BB2046FFF77AFCF0B123683BB901F001F8606800F0BEFC054601F01DF8019904F1240000F0D2FB2046FFF7C3FC00F0C9FA002893D14FF08052144B1A60BFF368
:405840004F8FBFF36F8F8AE72046FFF7B3FC00F0B9FA84E72046FFF7ADFC00F0B3FA2046FFF74CFC00283FF47AAF65B100F0D2FF2046FFF729FC0146606800F029FD00F0D9
:40588000EBFF002000E0002004B070BD04ED00E000230BE0074A52F8332032B9054A42F8331002EBC303586070470133092BF1D9704700BF40A8030870B504460D4616469E
:4058C00000F0A8FF94F844305BB2B3F1FF3F02D1002384F8443094F845305BB2B3F1FF3F02D1002384F8453000F0B6FFA36B2BB93246294604F1240000F082FB2046FFF705
:4059000059FC70BD094B9B6A1B680BB9012300E0002323B14FF0FF32044BDA627047034B9A6AD268D2685268DA627047142F030810B50446006B01F0DFF8204601F0DCF86A
:4059400010BD00BF2DE9F04780460D4616469946DDF820A0099F0A9C9200A521206B08F0E9F8236B06F18042013A03EB820626F00706002306E0E95CE21882F83410EA5CF4
:4059800012B101330F2BF6D9002384F84330BAF1060F01D94FF0060AC4F82CA0C4F844A00025A564201DFFF751FB04F11800FFF74DFB2461CAF10703A36164622B4606E061
:4059C00003F1120204EB8202002151600133042BF6D90023236684F864304A464146304600F0EEFE206007B13C60BDE8F08700BF70B5002407E004EB840293001048184468
:405A0000FFF718FB0134062CF5D90E4C04F1BC063046FFF70FFB04F1D0052846FFF70AFB04F11400FFF706FB04F1E400FFF702FB2046FFF7FFFAA662C4F8F85070BD00BF55
:405A4000442F0308142F030838B5044600F0E2FE264BD3F8FC200132C3F8FC20D3F800314BB9224BC3F80041D3F8FC30012B10D1FFF7BEFF0DE01D4BD3F804314BB91B4B12
:405A8000D3F80031DA6AE36A9A4202D8174BC3F80041164AD2F808310133C2F80831E36AD2F80C21934202D9104AC2F80C310F4D05F1300003EB83039A00211D1044FFF75E
:405AC000C9FA00F0C9FED5F804316BB1D5F80031DA6AE36A9A4207D24FF08052044B1A60BFF34F8FBFF36F8F38BD00BF142F030804ED00E038B517E000F08CFE0D4CD4F85A
:405B0000F030DD68281DFFF7CBFAD4F8FC30013BC4F8FC30D4F81031013BC4F8103100F09BFE2846FFF704FF024BD3F81031002BE2D138BD142F030808B5FFF7DBFF064B56
:405B40001B6B012BF9D94FF08052044B1A60BFF34F8FBFF36F8FF0E7142F030804ED00E070B504460E46174BD3F81451D3F800010430FFF795FAB4F1FF3F07D136B11148BC
:405B8000D0F800110431FFF765FA70BD2C440D4BD3F800315C60A54208D90A4BD3F8F800D3F800110431FFF761FA70BD054DA86AD5F800110431FFF759FAEB6A9C4200D2A1
:405BC000EC6270BD142F03082DE9F04385B006460F4615469846900000F05EFF60B18146682000F059FF044610B1C0F8309004E0484600F081FF00E000248CB100230393A0
:405C000002940D9B01930C9B009343462A4639463046FFF797FE2046FFF716FF012001E04FF0FF3005B0BDE8F08300BF00B583B0194B019300230093802218491848FFF783
:405C4000C3FF012801D100F0FFFB012814D14FF03F0383F31188BFF36F8FBFF34F8F114B4FF0FF32DA620122C3F804210022C3F8142100F071FE0BE0B0F1FF3F08D14FF041
:405C80003F0383F31188BFF36F8FBFF34F8FFEE703B05DF804FB00BF3030030880ED0810395B0810142F0308034AD2F818310133C2F81831704700BF142F0308014BD3F84C
:405CC00014017047142F03082DE9F0413C4BD3F81831002B65D13A4BD3F814410134C3F81441CCB99B6A1B6843B14FF03F0383F31188BFF36F8FBFF34F8FFEE7304B9A6A28
:405D0000D3F8F8109962C3F8F820D3F820210132C3F82021FFF7F6FD294BDB6A9C4203D2002645E0012600E00026254B9B6A1B680BB9012300E0002323B14FF0FF32204B28
:405D4000DA6235E01E4B9B6ADB68DD686B689C4202D21B4AD3622BE005F104084046FFF79FF9AB6A1BB105F11800FFF799F9EB6A134AD2F80C21934202D9114AC2F80C317A
:405D80000F4F07F1300003EB83039A0041461044FFF760F9EA6AD7F80031DB6A9A42C1D2C3E7074AD2F824310133C2F824310026034BD3F8283103B101263046BDE8F081C1
:405DC000142F0308394BD3F8183143B94FF03F0383F31188BFF36F8FBFF34F8FFEE770B500F018FD314BD3F81821013AC3F81821D3F81831002B52D12C4BD3F8FC303BBB6D
:405E000000244FE0294D2B6ADC6804F11800FFF747F9261D3046FFF743F9E36AD5F80C21934201D9C5F80C31204D05F1300003EB83039A0031461044FFF70CF9E26AD5F822
:405E40000031DB6A9A4204D30122C5F8282100E00024164B5B69002BD4D10CB1FFF752FD124BD3F8244164B1FFF72EFF18B101220E4BC3F82821013CF6D100220B4BC3F890
:405E800024210A4BD3F828315BB14FF08052084B1A60BFF34F8FBFF36F8F012402E0002400E0002400F0D8FC204670BD142F030804ED00E010B5B0B10446104BD3F8183176
:405EC00043B14FF03F0383F31188BFF36F8FBFF34F8FFEE7FFF7E8FE00212046FFF740FEFFF770FF00E0002038B94FF08052044B1A60BFF34F8FBFF36F8F10BD142F0308D7
:405F000004ED00E0304BD3F8183123B101222E4BC3F82821704710B52B4B0022C3F82821D3F800311B6B1A68B2F1A53F0BD15A68B2F1A53F07D19A68B2F1A53F03D1DB684D
:405F4000B3F1A53F07D0204BD3F80001D3F80011343100F08FFD1C4BD3F80C310AE043B94FF03F0383F31188BFF36F8FBFF34F8FFEE7013B03EB83018A0013490A44126B65
:405F8000002AECD008469900CC18A2000244546B64685463303019448A0008320244944206D1606803EB83018A0007490A445063054903EB830082000A44526BD268C1F83E
:405FC0000021C1F80C3110BD142F030840B94FF03F0383F31188BFF36F8FBFF34F8FFEE710B50C46054BD3F800111831FFF73EF801212046FFF7B4FD10BD00BF142F030800
:4060000038B540B94FF03F0383F31188BFF36F8FBFF34F8FFEE70C461546074AD2F800111831FFF717F80DB14FF0FF3429462046FFF796FD38BD00BF142F030838B5C368F6
:40604000DC6844B94FF03F0383F31188BFF36F8FBFF34F8FFEE704F118052846FFF720F8154BD3F81831ABB9251D2846FFF718F8E36A114AD2F80C21934202D90E4AC2F8AD
:406080000C3103EB83039A0029460C481044FEF7E1FF03E029460A48FEF7DCFFE26A064BD3F80031DB6A9A4204D90120024BC3F8280138BD002038BD142F0308442F030876
:4060C000282F0308034BD3F820210260D3F8143143607047142F0308F8B540B94FF03F0383F31188BFF36F8FBFF34F8FFEE7054641B94FF03F0383F31188BFF36F8FBFF338
:406100004F8FFEE70C4600F085FB124BD3F814016968421A2368B3F1FF3F14D02F680D4ED6F82061B74201D088420ED29A4206D29B1A23602846FFF7C5FF002406E0002329
:406140002360012402E0002400E0012400F084FB2046F8BD142F03080122024BC3F82821704700BF142F0308014BD3F800017047142F0308064BD3F804312BB1044BD3F8F8
:4061800018311BB9022070470120704700207047142F0308002849D038B50346C26A2549D1F80011C96A8A4237D28169002906DB2049D1F80011C96AC1F107018161586932
:4061C00002EB820291001C4A1144884201D1012200E00022D2B11D461C1D2046FEF760FF144AD2F80031DB6AEB62D2F80C21934202D9104AC2F80C3103EB83039A002146F0
:406200000D481044FEF726FF012038BD094AD2F80021D26ADA62012038BD426C054BD3F80031DB6A9A4203D3002038BD00207047012038BD142F0308442F030800283DD0C5
:4062400038B50346204AD2F80021904208D04FF03F0383F31188BFF36F8FBFF34F8FFEE7826C42B94FF03F0383F31188BFF36F8FBFF34F8FFEE7013A8264C06A596C8842BC
:406280001ED0FAB91C461D1D2846FEF709FF636CE362C3F10702A2610B4AD2F80C21934202D9094AC2F80C3103EB83039A00294606481044FEF7CEFE012038BD002070474F
:4062C000002038BD002038BD142F0308442F030800284DD038B50346806C40B94FF03F0383F31188BFF36F8FBFF34F8FFEE75A6C8A4200D20A46D96A8A4238D0012836D198
:406300001C48D0F80001834208D14FF03F0383F31188BFF36F8FBFF34F8FFEE7DA629869002802DBC2F107029A61586901EB81018A0011490A44904201D1012200E00022BA
:40634000AAB11C461D1D2846FEF7AAFEE36A094AD2F80C21934202D9064AC2F80C3103EB83039A00294604481044FEF773FE38BD704700BF142F0308442F0308064BD3F8B7
:4063800000312BB1044BD3F80021936C01339364014BD3F800017047142F0308064B1A681368B3FA83F35B09036013B9D368186870470020704700BF4030030808B5416069
:4063C000006191420AD8D21A83699A4211D2011D0A4B5868FEF74AFE002008BD9A4201D2994208D2011D054B1868FEF73FFE002008BD012008BD012008BD00BF403003082C
:4064000070B500F007FA0E4B9B68B3B90C4C04F10C063046FEF70EFE04F120052846FEF709FE2660656000220C210A20FEF744FFA06010B10349FFF72BFA00F00DFA70BDDC
:406440004030030888ED081000B583B0FFF7D8FF0D4B9B6853B10D4B019303230093002380220B490B48FFF7AFFB00E0002040B94FF03F0383F31188BFF36F8FBFF34F8F86
:40648000FEE703B05DF804FB403003087430030890ED08102D67081040B94FF03F0383F31188BFF36F8FBFF34F8FFEE730B585B015460446124A9068F0B11A46019102959A
:4064C0000394052913DCFFF755FE022807D10023089A01A90A488068FEF714FF0DE000231A4601A906488068FEF70CFF05E0002301A9FEF7E7FF00E0002005B030BD00BFAE
:406500004030030870B582B029E0DB681E68DC68251D2846FEF7C4FD636A20469847E369012B1CD1A36933449E4207D2636024612946104B1868FEF799FD10E0002100919B
:406540000B4632462046FFF7A7FF40B94FF03F0383F31188BFF36F8FBFF34F8FFEE7054B1B681A68002AD0D1024A51681160536002B070BD4030030838B50546FFF79EFB38
:406580000446074B9B6B984204D2FFF7BBFF01232B6001E000232B60014B9C63204638BD4030030870B582B005460E46134B1B68DB68DC68201DFEF773FDE369012B18D119
:4065C000A1692B46324629442046FFF7F7FE80B1002100910B462A462046FFF75DFF40B94FF03F0383F31188BFF36F8FBFF34F8FFEE7636A2046984702B070BD4030030874
:4066000070B582B006460C46FFF74EFB01A8FFF7B3FF019B1BBB054644B9B04206D3FFF7D1FB29463046FFF7BDFF1AE02CB10E4B5B681C68B4FA84F464092246711B0A4BA4
:406640009868FFF739F9FFF7BDFB50B94FF08052064B1A60BFF34F8FBFF36F8F01E0FFF7B1FB02B070BD00BF4030030804ED00E030B587B04DE0039B002B4ADB059C63690E
:4066800013B1201DFEF70CFD02A8FFF775FF039B092B3ED8DFE803F00505053D273A05053D270499A5690B46024629442046FFF785FE70B3636A20469847E369012B28D1D4
:4066C000A269002100910B46049802442046FFF7E3FEF0B94FF03F0383F31188BFF36F8FBFF34F8FFEE70499A16141B94FF03F0383F31188BFF36F8FBFF34F8FFEE7034678
:40670000024601442046FFF759FE02E0204600F0F3F9002203A9044B9868FEF745FF0028A9D107B030BD00BF4030030800B583B001A8FFF733FE0199FFF762FFFFF798FFE9
:40674000F6E700BF82B0002301930D4B1B68B3F1FF3F08D04FF03F0383F31188BFF36F8FBFF34F8FFEE74FF03F0383F31188BFF36F8FBFF34F8F019B002BFCD002B070477E
:406780002477020808480068006880F308884FF0000080F3148862B661B6BFF34F8FBFF36F8F00DF00BF000008ED00E0DFF80C00016841F4700101607047000088ED00E082
:4067C0004FF0807340F8043C21F0010140F8081C054B40F80C3C40F8202C6FF0020340F8243C4438704700BF4567081000000000074B19680868B0E8F04F80F30988BFF3AA
:406800006F8F4FF0000080F311887047AFF30080143003084FF03F0383F31188BFF36F8FBFF34F8F0A4A136801331360012B0DD1084B1B6813F0FF0F08D04FF03F0383F3E1
:406840001188BFF36F8FBFF34F8FFEE7704700BF2477020804ED00E0094B1B6843B94FF03F0383F31188BFF36F8FBFF34F8FFEE7013B034A13600BB983F31188704700BFA1
:4068800024770208000000000000000000000000EFF30980BFF36F8F154B1A681EF0100F08BF20ED108A20E9F04F10602DE909004FF03F0080F31188BFF34F8FBFF36F8FFA
:4068C000FFF720FB4FF0000080F3118809BC19680868B0E8F04F1EF0100F08BFB0EC108A80F30988BFF36F8F704700BFAFF300801430030808B54FF03F0383F31188BFF3EB
:406900006F8FBFF34F8FFFF7DFF918B14FF08052024B1A60002383F3118808BD04ED00E0084A0023136008490B60084B1B680849A1FB03139B09013B06490B6007231360DE
:40694000704700BF10E000E018E000E098420208D34D621014E000E010B582B02A4B1A78D2B20192FF221A701B78DBB28DF803309DF80330254A03F03F031370072353604B
:4069800009E0224A5368013B53609DF803305B00DBB28DF803309DF8033013F0800FF0D11A4B5B68042B08D04FF03F0383F31188BFF36F8FBFF34F8FFEE71B0203F4E0631A
:4069C000124A5360019BDBB20F4A1370104B1A6842F47F021A601A6842F07F421A60FFF79FFF00240B4B1C60FFF7E0FE0A4A136843F040431360FFF7C5FEFFF783FAFFF70E
:406A0000A1FE204602B010BD00E400E07C30030820ED00E02477020834EF00E0EFF305830F2B0FD9104A9B5CDBB2104A1278934208D24FF03F0383F31188BFF36F8FBFF3D3
:406A40004F8FFEE70A4B1B6803F4E063074A5268934208D94FF03F0383F31188BFF36F8FBFF34F8FFEE77047F0E300E07C3003080CED00E008B54FF03F0383F31188BFF3D2
:406A80006F8FBFF34F8F4FF441710248FEF7D2F9FEE700BF98ED081038B5044610F0070F02D020F007040834FFF7FEF8104B1B682BB90F4A02F10C0323F0070313600D4BA1
:406AC000D3F814361C4442F2F772944208D8A34208D2074A15681D44064BC3F8144602E0002500E00025FFF76DF9284638BD00BF843003087452030840B14FF03F0383F378
:406B00001188BFF36F8FBFF34F8FFEE7704700BF1E4B93F84D20824207D893F84E20904203D893F84C20D20627D593F84F10174A884207D392F85010884203D892F84C2038
:406B400091061AD593F85110104A884207D392F85210884203D892F84C2052060DD593F853300A4A98420FD392F8543098420BD892F84C301B0600D57047054B186818B1AF
:406B80000123037000207047704700BF28770208A8A80308824230B51B4D1C4C04D12878002818BF04202CE08B4204D12878022818BF062025E0121A5B1A002AB8BF52428C
:406BC000002BB8BF5B429BB292B29A4222BF11461A460B46180100EB4310184400EB83002B78D907C0F3CF1004D582422CBF0020012003E0824234BF00200120184400F0DA
:406C00000700207030BD00BFA0A80308C6A8030808B1014B187170478C580308114B1B68E3B11B78012B1BD1D0B90F4A92F85630FF2B16D00D49928F098892B2914210D8EA
:406C40000B4A12680AB112785AB95800094B1B685030C0B22BB101221A7070471846704700207047E8A8030828770208C4A80308DCA80308A8A80308064AD189538A0B4425
:406C800005495B100B80118A938A044A0B445B10138070478C580308C8A803089AA80308054B196839B1054B1B6823B1044AD089128A08801A807047B8A80308ECA8030847
:406CC0008C58030850380E2813D80B4B0B4A1B8812889B1A002B0A4AB8BF5B421380094B094A1B8812889B1A002B084AB8BF5B421380FFF7D5BF00BFB4A80308F4A8030825
:406D0000F0A8030896A80308BCA80308A2A80308054B196839B1054B1B6823B1044A508A928A08801A807047ACA80308D4A803088C580308064B1A684AB1064B1B6833B1C9
:406D4000127882420ABF1A78012201321A707047B0A80308A8A80308F0B59042BDF81460BDF818C00FD39942A0EB020405D25D1AAC4218DB022401251DE0CD1AAC4214DA5F
:406D80000324022517E09942A2EB000405D3CD1AAC420CDB042403250DE05D1AAC4208DA0124042507E00124E5E7022402E0032400E004242546DFF85CE0FF27012C8EF856
:406DC0000070134F06D16144994218DA00238EF8003014E0022C04D13244904214DD01230AE0032C04D1634499420DDD022303E00644964208DA03238EF8003004E0042DF4
:406E000002D107233B70F0BD2C44023C3C70F0BDA0A8030890A8030810B50446FFF778FE84421249124A18D0283C012C15D8114B1B78FF2B11D0580010301379C0B28342AD
:406E400007D192F822300C680133DBB22CB1237003E00B680BB101241C700B6803B11B7882F82230BDE81040FFF752BEA8A803088C580308C6A803082DE9F8438C4F3B68E3
:406E800005460C469146002B00F007811B7888B9002B00F00B818749874A4B6AC969A3422ABFDB43E31A1B19641A1380C9F80040BDE8F88333B97F4B5C62804B1B680BB1EB
:406EC00001221A707E4E33680BB11A7832BB7D4A7D49D28E096892B2611A91421ED30BB101221A70DFF8CC81784BB8F80E201A80774BB8F81020C8F81C401A80FFF7D0FE7E
:406F0000022D40F0CC80734BB8F812201A80724BB8F814201A80FFF7FBFE4DE0012D49D1644D6B6AE31AC9F800303B686B4F0BB11B789BB9654BEA891A80654B2A8A1A809E
:406F40003B680BB101221A7033680BB101221A705D4BEC611C60FFF7A3FE16E0022B14D13B680BB100221A7033680BB100221A70554B1C605A4B1A683AB11378D80754BF38
:406F800043F0010343F0800313703B680BB11A7842B9326832B1127822B10BB101221A70FFF77EFE4F4BEA891A804F4B2A8A1A80BDE8F883022D79D13B683E4D73B11B78B3
:406FC000012B23D80AD1464B1A683AB11378990754BF43F0020343F0800313703368002285F8212003B11A70374BEA891C60374B1A80374B2A8A1A80364B6A8A1A80364B3C
:40700000AA8A1A80FFF74CFEFFF782FE95F82130284A002B31D13368002B2ED01B7863B32A4BD4891B8827491B1B002B91F83300B8BF5B42834235DC254B148A1B8891F8BC
:4070400034001B1B002BB8BF5B4283422ADC214B548A1B8891F833001B1B002BB8BF5B4283421FDC1C4B928A1B8891F834109B1A002BB8BF5B428B4214DC1A4BEA891A80A8
:40708000194B2A8A1A80194B6A8A1A80184BAA8A1A80BDE8F843FFF7EFBD38B10BE7012D04D13DE7012385F82130E6E7BDE8F883E8A803088C580308C4A80308A8A803083C
:4070C0009CA8030828770208CCA80308F4A80308BCA8030898A80308B6A80308C0A80308DCA80308B4A8030896A80308D0A80308CAA80308044B1B6803B11B7898428CBF5F
:407100002F204F20704700BFE8A8030838B50C46054658B1FFF70EFEFFF7D4FD1A4B1B6803B11D702846FFF773FD05E0174B1B78FF2B01D0FFF7B4FD2846FFF76DFE144A7E
:4071400048B913680BB11B7800E003469C4202D02046FFF7CFFF9CB913688BB11B787BB10C4B1B6803B11C700B4B1B680BB100211970054B1968002301B10B7007490B7130
:40718000136803B11C7038BDB0A8030890A80308E8A80308DCA80308C0A803088C5803082DE9F04385B004AB002443F8044D344C344DDFF8F0801268C4F80E2004F1280641
:4071C0002E60314D04F12A062E60304D04F12C062E602F4E04F12D05356004F12E05C8F800502C4D04F12F0EC5F800E0DFF8B8E004F1300C1A460746CEF800C0FFF73CFEE2
:40720000D8F800300BB101221A7033680BB11B7863BB012F2AD12B6843B31B78012B25D11D4DE689DFF88490248ADFF884806979A879B8F80020FF2385F85630B9F800304E
