:020000041000EA
:4000000000400208230100100D00000085010010000000000000000000000000000000000000000000000000000000008101001000000000000000008101001081010010E9
:400040008101001081010010810100108101001081010010810100108101001081010010810100108101001081010010810100108101001081010010810100108101001060
:400080008101001081010010810100108101001081010010810100108101001081010010810100108101001081010010810100108101001081010010810100108101001020
:4000C00010B5064C2378002B07D1054B002B02D0044800E000BF0123237010BD3C060008000000000C280010084B10B5002B03D00749084800E000BF07480368002B00D1F6
:4001000010BD064B002BFBD09847F9E700000000400600080C280010E8000008000000007047FFF7FDFF72B60F4C104DAC4209DA21686268A368043B02DBC858D050FAE775
:400140000C34F3E70A490B4A0020521A02DD043A8850FCDC084809490860BFF34F8F00F007F900F01DF8FEE710280010282800103C0600084C0800080000000808ED00E0C5
:40018000FEE7FEE700B504207146084202D0EFF3098001E0EFF30880043001F055FBFEE710B5034800F06AF9002001F007FFFBE70000081010B5002001F0C2F810BDC046E2
:4001C00070B56249E0239B00CB580F2213401A00D0329200525807210A40032A05D0042A06D0002A12D15A4814E05A4A106811E01A00C0329200554952581F210A40112ABF
:4002000006D0132A04D0FA20C00103E0524801E080200002002B36D14C4BB222D2009A5801211140B125ED005A59120F032422405B591B0F1C4207D0444C63591B0F032458
:400240002340012B02D102E0012300E00023002B01D0002901D1032A4BD13C4BB022D2009D58AD03AD0B3D495958C904C90C9C58240E01231C40013401F052FF6843210089
:4002800001F04EFF35E0012B33D1304BC822D2009A5801251540C024E4001A59120F03210A401B591B0F194207D028490B591B0F03210B40012B02D102E0012300E0002307
:4002C000002B01D0002D01D1032A12D11F4DC022D200AB587F210B40A958090A1F263140AC58240C3440584301F01AFF210001F017FFE0239B00154AD3581B0903221340E2
:40030000D840144C6060164B1D692D0AFC32154001351969090E013101F002FFA060290001F0FEFE0500E06020610E4BC0180E4901F0F6FE20750D4BE818FA21890001F026
:40034000EFFEA061C003E06170BDC0460000264000127A00C000000800366E0184050000000021403F420F0040420F00E703000010B5284801F0CEFE274CB022D200A35800
:400380005B005B08A350E0218900635830208343635080235B04A350204A214BE250A02292010433E250FF221E4BE25001F0A0FEC0225200A35801218B43A35000F0ACFAD0
:4003C000FFF7FEFEB0235B055B78002B04D0B0235B055B78DBB200E02123212B03D1124B0022DA605A60114C22008021042000F04DFD2000103000F0E1FD0D4B1A685123C2
:40040000D35C002B02D00B4800F04EFE00F016FC10BDC046542700100000264001000200840500008C050000E00023405806000848080008982200108023024AD358032016
:40044000184070470000214010B501F08EFA084980228C58074B2340074C23438B508823034AD358DB06FAD501F083FA10BDC04600002140FCFF00000100FA0570B5050014
:40048000830504D0E821FF310F4801F0AFF901F06CFA0400FFF7D0FF032801D1FFF7D4FF0A4AB0239B00D55080215058084B03400848034353508823044AD358DB06FAD5FE
:4004C000200001F056FA70BDCC22001000002140FCFF00000300FA05FEE7C0460323064A1360064A136080225201054B1A60054A054B1A607047C0460820314010203140AC
:400500009402364001001180000E1F4130B587B03C49A022D2008B58032083438B503A490B681A6885301B58D2181068374B184010600A6810688424125980180268120274
:40054000120A0260086805680259AA181068034080204000034313600B683E229A5C002A06D02848E02189004258753CA24342503E229A5C002A06D02248E0218900425846
:400580003024A24342503E229B5C002B07D01D49E02292008B588020000603438B500021012000F0FFFE0021022000F0FBFE0021032000F0F7FE0021042000F0F3FE0021A8
:4005C000002000F0EFFE01A8114903000A0032CA32C312CA12C300F013FF002802D00420FFF77AFF07490B4A8B588020000603438B50094800F0C0FF00280FD00420FFF74D
:400600006BFFC0460000264048080008FF00FFFFE4220010087F0000400D0300AB4CAC4BE158AC4A0A40E250E158AB4A0A40E250E25880252D062A43E250043BE158A74A45
:400640000A40E250E158A64A0A40802189010A43E250E258802109020A43E250A14A1168A14B0B40802149000B431360002001F021FD9E4BE2581543E550E1580122914327
:400680000A43E2506421002001F0F6F8984B1B683F229A5C022A06D970229A5C03210A409449986842509A6874215B5AD218D168914B0B408021C9010B43D3608C4B1B682E
:4006C00073229A5C03200400944070229A5C7221595C15008D402900214302400A43802109060A438021C900986842509A6852583F229A5C032A06D970229A5C02210A40A9
:400700007E49986842509A6874215B5AD2189168794B0B408021C9010B439360744B1B6873229A5C0321914070229A5C7220185C140084402143022002400A438021090689
:400740000A438021C900986842509A6852583F229A5C052A06D970229A5C04210A406849986842509A6874215B5AD2181169624B0B408E21C9010B4313615D4B1B68732242
:400780009A5C0321914070229A5C7220185C140084402143042002400A43802109060A438021C900986842509A6852583F229A5C062A06D970229A5C01210A405149986838
:4007C00042509A6874215B5AD31859684A4A0A405A60474B1B6873229A5C0321914070229A5C7220185C140084402143012002400A43802109060A438021C90098684250CF
:400800009A6852583F229A5C132A0AD97122985C703A82401100032282400A403A49986842509A6876215B5AD2181168374B0B4037490B4313602E4B1B6873229A5C0324DE
:40084000210091400A007021585C0231595C8840104371229A5C01219140944022000A400243802109060A438021C900986842509A6852583F229A5C332A03D90021254A6E
:40088000986881509A6874215B5AD21811681A4B0B40FE2109020B431360154B1A687323D15C703B8B4019007023D35C7220105C83400B43802109060B438021C9009068B8
:4008C000435093685B5807B030BDC0460000264004050000FEFCFFFFFFFF00FFFFF0FFFFFF8FFFFF00002740FFFCFFFF0C05000048080008080C0000FF00FFFF0C0C00003E
:40090000140C0000180C00004C0C0000FF0000FF004FC300CC0C000070B58AB09621002000F0AAFF00F080FF002814D100F06CFFC0235B00554AD358DB0705D41100544A1B
:400940008B585B005B088B505049514A8B588020000603438B50012001F04AFA4D4A516C4D4B0B40E82189010B435364536C1B0AFF2213403A2B07D1464A516C474B0B4039
:40098000E82189010B435364FFF7C0FD0F22444B1A60444B44490B6044490A60444A136001AC444D22002B00143343CB43C243CB43C243CB43C221003F4800F047F924220A
:4009C0000021200001F038FC0123019321003B4800F03CF922002B00383343CB43C243CB43C243CB43C22100354800F02FF922002B005C3323CB23C223CB23C223CB23C214
:400A00002100304800F022F924220021200001F013FC8623019321002B4800F017F92B4D23002A0043CA43C343CA43C343CA43C32100274800F00AF922002B00243343CB87
:400A400043C243CB43C243CB43C22100214800F0FDF824220021200001F0EEFB6023E36021001D4800F0F2F822002B00483323CB23C223CB23C223CB23C22100174800F0A4
:400A8000E5F8FFF72BFD0AB070BDC046000026400C05000000002740FF00FFFFFFC5FFDF0000634007010100000263400000644000026440E42200100000324080003240BC
:400AC0008002324000033240800332406423001000043240800432408005324000063240214B984230D00ED8402831D004D800281FD010282AD031E080282BD080235B00BA
:400B0000984229D02AE0194B984229D007D8A0231B0698420DD0164B984212D01EE0154B98420AD0144B984209D0144B984215D101E0002016E0124814E0124812E01248DC
:400B400010E0A020C0030DE007480BE00F4809E00F4807E00F4805E0034803E00E4801E0A420C0037047C04606005200010000F0090000A0040000F0050000F0030000F0AA
:400B8000010052000200520003005200010050000200500005005200FF00520070B5124B1A683123D35C002B04D1C421FF310F4800F01CFE0C4B1D682C00B423EB582A6A3B
:400BC000944663441B68002B0BDB094B1868FFF787FF6B6801229A6063689B68002BFBD100E0044870BDC04648080008D0230010E80700080200500010B50D4B186100281A
:400C000005D002230370FD33437000234380094B1B6850229A5C002A08D051229B5C002B04D04F3A0449002000F0F8FA10BDC046E8070008480800086101000810B5024861
:400C40001430FFF7D9FF10BDE807000870B505000C0000285DD000295DD0FF230A689A4303D099212D4800F0C1FDFF2322699A4303D09A21294800F0B9FDA3685B0D03D027
:400C80009B21264800F0B2FD63685B0A03D09C21224800F0ABFDE3695B0F03D09D211F4800F0A4FD236A5B0F03D09E211B4800F09DFD1B4A11688B69EB1ADB0949691B016B
:400CC000CB18216829607D211068415C6918E06808607E211068415C6918206908607F211068415C6918606908607C211068415C6918A06808606168A961116880228A5C17
:400D0000AD18A2692A60E2691A60226A5A60002002E0044800E0034870BDC046102400104808000801005A0070B504000D000A4B1A68B423D3581B181B68002B0ADA0B0CC0
:400D400003D00649064800F051FD2D042D0C6560002000E0034870BD48080008D50200009024001001008A0070B505000C000368002B01DA002300E0084B002B0BD1EA6052
:400D8000230C03D00649074800F030FD2404240CAC60002000E0014870BDC04601008A00BB0200009024001070B505000C1E03D19921084800F01AFD074B1A68B423D3587B
:400DC0005B191B68002B03DAEB682360002000E0024870BDD02400104808000801008A0070B504000D00234B1A683123D35C834236D9002936D00B68DB0635D13123D35C37
:400E0000984204D3C421FF311B4800F0EFFC194B1B681A6AB0215B5A5C431419174E34602B68DA080021686801F006FA00212000FFF77AFF3468002D03D111490E4800F0B4
:400E4000D5FC2A0000212000FFF78EFF00280DD10A4B18680021FFF767FF002808D108E0084806E0074804E0064802E0064800E0054870BD48080008902400100008000805
:400E80009303000003018A0001018A0010B50400002A17D1002915D1124B1A683123D35C984204D3C421FF310F4800F09FFC0D4B1B681A6AB0215B5A5C4314190B4B1C600B
:400EC00000200EE0002A09D0002909D0074B59609A60191D2000FFF783FF02E0044800E0034810BD48080008902400100008000803018A00F0B583B00D001C4B1B68DC6819
:400F0000236883422DD947097B01C01A012383401E00002903D100F028FD019001E000230193124B18680368002B01DA002300E00F4B002B0ED16368BF00DF193B68334226
:400F400003D0B3433B60002400E00A4C0021FFF7EBFE00E0084C002D04D1019800F009FD00E0064C200003B0F0BDC0460008000801008A00020188000301880004018A00F5
:400F80000A4B1B68DA68136883420BD943095901401A0121814052689B009B580B4203D0034802E0034800E003487047000800080101880004018A0000018800034B1B68CB
:400FC000002B01D1014B18607047C0460C080008F0B5474680B404000F0090461E002D4B1B68002B03D1B5212B4800F0FFFB294B1B682C2060431C18FF2215003540256073
:40100000330A13406360360CA660244B1A683123D35C9D4204D3C421FF31214800F0E6FB1E4B1A68B023D35A6B43116A8C466344236166683223D35C9E4204D3E021FF3151
:40104000174800F0D3FB154B1B681D6A80367601AD196561A668330C04D0FF214900104800F0C4FB330C03D00E490D4800F0BEFB3604330C1E43AE604346E36127620023D7
:40108000A361069B002B02D000229B5EA38104BC9046F0BD0C080008102500104808000890240010FF010000F0B58FB0041E03D15221294800F09AFB6368032B03D9542102
:4010C000254800F093FBE36A002B03D15821224800F08CFB236B002B03D159211E4800F085FB07AA1300210061C961C321C921C302AD290023001433C1CBC1C141CB41C123
:401100000821535E0CAE3380144B1B6836215B5E07998C466344B370089B0D930B9B0A980096A26AE16AFFF753FF2B69E868002200920021FFF74CFF216B300000F0E8FAF2
:401140000023F25E002A05DB1F231A401E3B9340034A13600FB0F0BD102500104808000800E100E0F8B505000F0016001C00002A03D1FD21224800F039FB224B1B68002BE8
:4011800003D1FE211E4800F031FB1E4B1B682C2128004843181879435918012213004D68AB401B044568AA4015000269002A20D08F69002F1FD11268002A01DA002200E0B3
:4011C000114A002A19D132681204120C134333600369DE6001238B614C6204692B0C03D00A490B4800F002FB2A04120CA260002004E0084802E0084800E00748F8BDC04699
:40120000102500100C08000801008A00BB0200009024001004028A0007028A0070B504000D0016000F4B1B68002B04D1AF2149000D4800F0DBFA0B4B1B682C2060431C18C6
:40124000236A002B04D1B1214900074800F0CEFAE369B34204D9236AB6009D51002000E0024870BD0C080008102500100A028A0070B582B0040000230193002804D1D22100
:40128000FF312D4800F0B2FA2369002B04D1E9214900294800F0AAFA6369002B04D1D421FF31254800F0A2FA236A002B04D1EA214900214800F09AFA6269D5682B0C24D01E
:4012C0001B041360136820691C4B1A68B423D358C3181B68002B18DA01A9FFF765FD00280ED1019803681E0CFF221340E269934207D29B00226AD358002B02D0984700E040
:40130000002631002069FFF70FFD2D042D0C0FD063691D601B68636A002B03D098470023636203E0A36A002B00D098470023A36163691B6802B070BD102500104808000868
:4013400010B50400084B1B68002B04D1B221FF31064800F04BFA044B1B682C2060431818FFF786FF10BDC0460C0800081025001010B50400094B1B689B6CC340DB0703D445
:40138000BE21074800F032FA044B1B681B691034A402E3580F20184010BDC0464808000850250010134B1A683C23D35C83421DD9042904D94B1EFF3B9BB2132B18D8FF29B8
:4013C0000CD91F2319400C4A0300C0339B009950D03080000423835000200AE007231940D0308000044BC150002002E0034800E002487047480800080000264001004A007F
:4014000070B5041E03D14A494A4800F0EFF9B023DB00494AD358002B00DA87E0474B22689A4203D94649434800F0E0F923689B039B0BE279002A02D08022520400E00022E5
:401440001343B022D2003C498B50A2883D4B9A4204D98C218900374800F0C8F922893A4B9A4203D93949334800F0C0F9A388DB04D90C23891B04364A13400B43354A2E49E2
:401480008B50A37A0F2B04D98E218900294800F0ADF9E37A0F2B03D92F49264800F0A6F9A289284B9A4203D92C49224800F09EF9A37A0F211940E27A1201FF2313400B4362
:4014C000A289120226490A401343A27B1207C02189050A401343B122D20017498B50A379042B03D91F49134800F080F9228A164B9A4204D9912189000E4800F077F90E4819
:4015000019494558194B1D40A3791B02E022D20013402B4343504558154B1D40238A1B040B4A13402B434350002000E0114870BD1F0200009025001000002640FFFF0300E8
:4015400029020000FF1F0000FF010000310200000000FF0184050000390200003A02000000FF1F00430200008C050000FFF8FFFFFFFF00FE03004A0070B505003149324A9D
:401580008B588020000603438B502C0003E0012000F020F9013CB223DB002A4AD3585B0701D4002CF3D12749B122D2008858274B03408020800503438B50002D01D0002C7B
:4015C0000CD02049B022D2008B588020000603438B5003E0012000F0FDF8013CB223DB00184AD358DB0701D4002CF3D1002D01D0002C08D01349B122D2008B58C020800503
:4016000003438B5013E00F4BB121C90058580F4A02408020800502435A5008395A58520052085A5008495A58520052085A50002D03D0002C03D0002002E0002000E0044853
:4016400070BDC046000026408C050000FFFFFFCF02004A0070B505000C001A4B1B6828229A5C012A15D1820807211000884327D19200AD1AED00FF20A8401B6820339A185F
:401680001168AC4023004B40184004004C40146016E03A229B5EDBB2994203D176210A4800F0A4F8074B1B681B68072215408022120615438022920194466444A400E55047
:4016C00070BDC046480800081826001070B504000D000B4B9A680B4B9A420CD1002904D13821FF31084800F081F81034054BA400E058E55003E01034A400044BE05870BD10
:4017000000ED00E0000000081826001000000010F0B5474680B482B0061E01914AD04368032B03D93221264800F060F80023F05E002804DBB178FFF78DFF002400E0214CBC
:401740000023F15E7368002912DB88081E4FC0308000C55903221140C900FC3290468A4095439A01434613408B402B43C35116E089B20F220A40083A920806329200134825
:401780001018476803221140C900FF252A008A4097439A012B0013408B403B4343600B4B9A680B4B9A4206D10023F05E0199FFF78DFF00E0034C200002B004BC9046F0BDEA
:4017C000182600100100560000E100E000ED00E00000000810B5034B1B78584300F0BCF810BDC046D400000801BEFEE770B50D00044C18220100200000F026FDA561002060
:40180000FFF7F2FF00060008054B802212069A649B6C002B01DB002000E002487047C0460000274003004600054B8022120198585B68FF221A4202D08023DB02184370474D
:4018400000002640FEE7C04610B50A4B0268DA6142681A6282685A62C2689A620269DA6242691A6382695A63C2699A63FFF7EAFF10BDC04600060008F0B5474680B4002879
:4018800001D0192300E064238B429B415B42304D2C682268A826A45BA41822680327BA433B401A4322602C682268A45BA2181668284CA046264016602C682668AA229446EC
:4018C000A25A96193268BA43134333602A6813686546525BD3181A68444614401C60002805D010291BD921291BD8012024E0184B1B6855229A5C914215D956229A5C9142B0
:4019000013D957229A5C914211D958229A5C91420FD959229B5C99420DD804200CE000200AE0022008E0002006E0012004E0022002E0032000E00520054A126852681368D9
:401940000F218B430343136004BC9046F0BDC04648080008FFFCFFFF0230800803D001300238FCD1C046C0467047EFF3108072B6704780F31088704710B5B0235B059B895F
:401980009BB2002B04D0B0235B059B899BB201E080235B0080225200934215D1184C23681968683A9B58C9180B680F208343963A13430B6021680C689C23CB58E31819686F
:4019C00081430A431A6019E00D4C2368196898229B58C918B02040050A4BC2580A4B13400A681343C022920013430B60226811689C23D358CB18054A82581A6010BDC04601
:401A00004808000848180000FFFCFFFF4418000030B5B0235B059B899BB2002B04D0B0235B059B899BB201E080235B0080225200934215D1184C23681968683A9B58C918F9
:401A40000B680F208343953A13430B6021680C689C23CB58E318196881430A431A6019E00D4D2B68196898229B58C918B0246405C12040012258094B13400A681343C02269
:401A8000920013430B602A6811689C23D358CB1822581A6030BDC04648080008FFFCFFFFB0235B059B899BB2002B04D0B0235B059B899BB201E080235B00802252009342D4
:401AC0000DD1104B1B681A6898215B58D21811680D4B0B40C021C9010B43136011E0094B1B68196898229B58C918084BB0225205D258074B13400A681343C0229200134316
:401B00000B60704748080008FF8FFFFF18180000FFFCFFFF30B5B0235B059B899BB2002B04D0B0235B059B899BB201E080235B008022520093420DD1134B1B681A689821A8
:401B40005B58D2181168114B0B408021C9010B43136018E00C4D2B68196898229B58C918B02464050A4822580A4B13400A681343C022920013430B602A6811689C23D358E6
:401B8000CB1822581A6030BD48080008FF8FFFFF4C180000FFFCFFFF10B5B0235B059B899BB2002B04D0B0235B059B899BB201E080235B0080225200934217D10020FFF76E
:401BC000D7FBB0235B055B78002B04D0B0235B055B78DBB200E02123222B03D8002803D1013004E0012002E0002000E0012010BD30B585B004000D00022807D9042805D0F7
:401C0000032803D02A492B48FFF7F0FD6B1EDBB2012B07D9042D05D0082D03D026492548FFF7E4FDA400254BE458042D13D0012D1CD112E0A3682B420BD1E3681A680292D4
:401C40005B6801930393290002A8236898471B4B5C61646902E0002000E00020002C24D0174B9842E6D1012DE4D11EE0022D01D104E01C006369002BFBD104E00F4B5C698D
:401C8000002C00D0246900200DE0A3682B4209D1E3681A6802925B6801930393290002A8236898472469002CEFD105B030BDC046B20900005C260010B30900001008000867
:401CC000FF004200F8B50700012803D93D493E48FFF78CFDB0235B055B78002B04D0B0235B055B78DBB200E021239DB2B0235B059B899BB2002B04D0B0235B059E89B6B2EF
:401D000001E0802676000020FFF732FB002814D180235B009E4212D1222D12D82B4B1B685C682B4821582B4B19403B068022520413400B432350002404E0274C02E0264CC8
:401D400000E0254C80235B009E4201D1222D03D880235B009E4232D01C4B1A683123D35C002B04D1C421FF311C48FFF73FFD174B1B681D6A80235B009E4203D1002F05D01F
:401D8000174A06E0002F03D0164A02E0164A00E0164A01212800FEF7E7FF00280FD10B4B1A68B423D3585B191B68002BF7DBEB681B0E1B06A0221206934200D1002420009C
:401DC000F8BDC0464C0A00005C2600104808000818F00000FFFFFFFE04004200D0230010010100300300000C010000300100000CF8B50500012804D9822109012948FFF751
:401E0000F5FCFFF7C9FE002849D0FFF7AEFD0700002D11D10021244B244AD150E823DB00B0225205D65CF6B20120FFF74BFF041E19D1FFF7A1FD16E0B02252051C4BD05845
:401E40001A4B194958501B49565CF6B21A481A581F218A4314390A431A500320FFF7BAFCFFF758FE0024002C15D11049124A8B581F20834306401E438E50002D02D1FFF7E7
:401E80000FFE08E00720FFF7A5FCFFF7C1FD0020FFF718FF04003800FFF76BFD00E0074C2000F8BD5C260010307F00000000264010180000410700001CFF00000300420075
:401EC00010B5041E03D115491548FFF78FFC154B1A68D168F222D2018A5822601B68F022D201D9688A5862600F4AD9688A58A2600E4AD9688A58E2600D4AD9688A58226100
:401F00000C4AD9688A5862610B4AD9688A58A261DA680A4BD358E36110BDC046A10A00005C2600104808000804780000087800000C78000010780000147800001878000058
:401F400010B5041E03D114491448FFF74FFC144B1B68F022D201D96860688850114AD968A0688850104AD968E06888500F4AD968206988500E4AD968606988500D4AD96800
:401F8000A06988500C4AD968E0698850DA682168F223DB01D15010BDC90A00005C2600104808000804780000087800000C78000010780000147800001878000070B50500D3
:401FC000012804D9A62189003548FFF70FFC354B5B68002B05D001210120FFF709FE040000E00024002C53D1FFF7BFFC06002D4B5B68002B03D004210120FFF7F9FD2A4B9B
:402000001B6843229A5C002A08D09A68E023D358DB0603D523481830FFF752FFB0235B059B899BB2002B04D0B0235B059B899BB201E080235B0080225200934203D12800F2
:4020400000F022F909E0194A116904230B431361012D01D030BF00E020BF134B1B6843229A5C002A08D09A68E023D358DB0603D50C481830FFF764FF3000FFF77AFC094BED
:402080005B68002B09D008210120FFF7B1FD04E002210120FFF7ACFD054C200070BDC0465C260010100800084808000800ED00E0FF004200042805D10B4A116804230B43A3
:4020C00013600FE0094B1A681168A023D358CB180006C022920410401860034A136804218B4313607047C04610E000E0480800080749C02252008B589B009B088020C005FB
:4021000003438B508B588020000603438B50704700002640014B18607047C04648080008002243088B4274D303098B425FD3030A8B4244D3030B8B4228D3030C8B420DD3CF
:40214000FF22090212BA030C8B4202D31212090265D0030B8B4219D300E0090AC30B8B4201D3CB03C01A5241830B8B4201D38B03C01A5241430B8B4201D34B03C01A52411A
:40218000030B8B4201D30B03C01A5241C30A8B4201D3CB02C01A5241830A8B4201D38B02C01A5241430A8B4201D34B02C01A5241030A8B4201D30B02C01A5241CDD2C309EA
:4021C0008B4201D3CB01C01A524183098B4201D38B01C01A524143098B4201D34B01C01A524103098B4201D30B01C01A5241C3088B4201D3CB00C01A524183088B4201D343
:402200008B00C01A524143088B4201D34B00C01A5241411A00D20146524110467047FFE701B5002000F006F802BDC0460029F7D076E770477047C04603008218934202D07A
:4022400019700133FAE77047030030B5002A0DD00C7801335D1E013A2C700131002CF5D19A189A4202D01C700133FAE730BD0000F8B5C046F8BC08BC9E467047F8B5C04685
:40228000F8BC08BC9E46704701B40248844601BC604700BF350300080300000001000000010000000000000005036000040000000100000000000000010000000604600002
:4022C00008000000C8070008B501001073797374656D5F70736F63365F636D30706C75732E630000F4010000140004010A00090508000000630100001300000010000000E1
:402300000002000066660A00000000000000000000000000000000000000000003000000000000000000000068866606000000000000000000000000121200000000000044
:40234000030000000000000000000000CC0000BA0000000000000000000000001313000000001D1DFE00000000000000000000000000000000000000000000000000000076
:402380000004040000000000930000001000000000020000CC000A600000000000000000000000001313000000000000070000000000000000000000866600000000000021
:4023C0000000000000000000141414000000000047656E6572617465645F536F757263655C50536F43365C70646C5C647269766572732F7065726970686572616C2F697001
:40240000632F63795F6970635F6472762E68000047656E6572617465645F536F757263655C50536F43365C70646C5C647269766572735C7065726970686572616C5C67705A
:40244000696F5C63795F6770696F2E630000000047656E6572617465645F536F757263655C50536F43365C70646C5C647269766572735C7065726970686572616C5C6770B5
:40248000696F5C63795F6770696F2E680000000047656E6572617465645F536F757263655C50536F43365C70646C5C647269766572735C7065726970686572616C5C69706E
:4024C000635C63795F6970635F6472762E68000047656E6572617465645F536F757263655C50536F43365C70646C5C647269766572735C7065726970686572616C5C69706B
:40250000635C63795F6970635F6472762E63000047656E6572617465645F536F757263655C50536F43365C70646C5C647269766572735C7065726970686572616C5C69702F
:40254000635C63795F6970635F706970652E630047656E6572617465645F536F757263655C50536F43365C70646C5C647269766572735C7065726970686572616C5C707284
:402580006F745C63795F70726F742E630000000047656E6572617465645F536F757263655C50536F43365C70646C5C647269766572735C7065726970686572616C5C73793E
:4025C00073636C6B5C63795F737973636C6B2E630000000047656E6572617465645F536F757263655C50536F43365C70646C5C647269766572735C70657269706865726114
:402600006C5C737973636C6B5C63795F737973636C6B2E680000000047656E6572617465645F536F757263655C50536F43365C70646C5C647269766572735C7065726970BA
:40264000686572616C5C737973696E745C63795F737973696E742E630000000047656E6572617465645F536F757263655C50536F43365C70646C5C647269766572735C706D
:4026800065726970686572616C5C737973706D5C63795F737973706D2E6300000000204000002440000000400000000000002340000030400000314000009F4000002240D9
:4026C0000000104002020202020202020210101D800017007500FF030602063604102000000000007FC0000000040000000000000019324B647D00804000080B1000000018
:402700000000FF012002001F00800004FF081018001000140018001C4044484C5000000008100000080000000400000004100000001200000421000000210000001600003F
:4027400040114002C41300138013A013200000001C0000000000214000002540000001400000344000002440000031400000324000001F4100002340000011400101010180
:402780000101010101101010800019005500F0000501053B04101C01010000000FC000000004000001010101011D3A57789600082000101208000000001F00000010000F6A
:4027C000002000023F06080E00080009000A000B24282C3034000000100000009000000088000000080000008000000004F0000000F00000400200002005A000D0010001ED
:402800008001A0012000000010000000000000000000001000000008C000000030280010C0000008400500003C060008100200000048E80100127A0000093D0000093D0054
:4028400000093D0004000000A00F00000000D007E9000010C10000100000000010B50004400B27D0144B1A68146AB023D15ACA00531AE3181B68002BF4DA3E220F4B1A6074
:402880000F4A104B1A60104B0621A322D20099500E4A98509B58084B1A68106AB023D15ACA00531AC31800225A60084B064AD358002BFADA10BDC046480800080401264017
:4028C0001E1F000008012640000026401C05000010B54378FF2B20D100F012FA04000F4B1A683123D35C042B04D8C421FF310C4800F00EFA094B1A68116AB023D35A9B0053
:40290000CB18DB685A68116801230B4313601368DB07FCD4200000F00BFA10BD48080008D0230010F0B585B001900291544B1A683123D35C002B04D1C421FF31514800F0A7
:40294000E7F94F4B1B681E6AB4229A58971950229B5C002B77D000F0C3F9050003283CD1474B1A683123D35C062B04D8C421FF31444800F0CDF9424B1968B023CB5A5A003B
:40298000D21853000A6A94466344B4228A58D3181B68002B23DB002000F0AAF93A4B98421FD03A4B1A6900230021012000F0B8F9002803D0364C17E0013400E000240020BA
:4029C00000F096F9304B984202D0324B9C42F3D9304B9C4207D92E4C06E0002404E02C4C02E02B4C00E00024002C46D100F088F90390294B294AD358002B13DA234A012194
:402A0000300000F0ADF900280ED10298FFF726FF019B002B0AD03B68002BFCDB00F090F9040004E01A4C02E0194C00E01C4C032D05D10121002000F08BF90028F9D103982F
:402A400000F076F919E000F05BF905000F4A0121300000F085F9002809D1019B002B08D03B68002BFCDB00F06BF9040002E0084C00E00B4C280000F05BF9200005B0F0BDA3
:402A800048080008D023001001018800E807000805005200EF4902001C0500000000264001005000F0B54F464646C0B4824B1A685468B0235B055B78002B04D0B0235B0554
:402AC0005B78DBB200E02123212B67D1B023D15ACB005B1A116A8C46634419680029F5DADD6802212943D960B023D15ACB005B1A116A8C466344D968C9073ED5D968090472
:402B0000090C8C4684271168D559A84641440968090A0904FF26360431400D0088261168894691598846C14449460968090A0906294365462943D9601168D359C9180A68F2
:402B40005E4B98461A4090252D012A430A605A4B99461A6813689C46925962441368414619400B002B4313604B461A681568D15969180B689359EB181B684F4B1A68B02172
:402B8000555AEB005B1B156AAC46634400255D60156A515ACA00531AEB185B68484A116904230B431361012801D030BF00E020BF414B1A68B023D15ACB005B1A116A8C46AE
:402BC000634419680029F3DAB02149054978002904D0B02149054978C9B200E02121212932D1D968C90722D510688421525880180468324A1440DB681B0C1B02FF210902BB
:402C00000B40234303602C4B19688823C8580B689C46604403681A400D6AB023CC5AE1000B1BEB18DB681B0E1B021A430260224B1A68106AB023D15ACA00531AC318DA6882
:402C400002218A43DA6028E086235B00E358002B23D11C4807681C4BA321C9005E581B4A904615681A4A0260062058503E21424611600631174A9950164B134AD358002B0E
:402C8000FADA154A86235B00E2500E4B1F60A323DB000D4AD6500D4B1D60074B1A68106AB023D15ACA00531AC31800225A600CBC90469946F0BDC04648080008FF00FFFF21
:402CC00000ED00E00801264000002640040126401E1F00001C050000AAAAAAAA0000000001B40248844601BC604700BF3904001001B40248844601BC604700BF810F0010FC
:402D000001B40248844601BC604700BF6B19001001B40248844601BC604700BFED17001001B40248844601BC604700BF6511001001B40248844601BC604700BF7319001019
:402D400001B40248844601BC604700BF9D0B001001B40248844601BC604700BFF50E001001B40248844601BC604700BF690D0010000000000000000000000000000000003E
:402D80000000000000000000000000000000000000000000000000000000000000000000000000000000000000000000000000000000000000000000000000000000000013
:402DC00000000000000000000000000000000000000000000000000000000000000000000000000000000000000000000000000000000000000000000000000000000000D3
:020000041008E2
:4000000000780408EB0208100D0000005103081051030810510308105103081000000000000000000000000000000000319208104D03081000000000D192081035930810DC
:400040004D0308104D0308104D0308104D0308104D0308104D0308104D0308104D0308104D0308104D0308104D0308104D0308104D0308104D0308104D0308104D03081000
:400080004D0308104D0308104D0308104D0308104D0308104D0308104D0308104D0308104D0308104D0308104D0308104D0308104D0308104D0308104D0308104D030810C0
:4000C0004D0308104D0308104D0308104D0308104D0308104D0308104D0308104D0308104D0308104D0308104D0308104D0308104D0308104D0308104D0308104D03081080
:400100004D0308104D0308104D0308104D0308104D0308104D0308104D0308104D0308104D0308104D0308104D0308104D0308104D0308104D0308104D0308104D0308103F
:400140004D0308104D0308104D0308104D0308104D0308104D0308104D0308104D0308104D0308104D0308104D0308104D0308104D0308104D0308104D0308104D030810FF
:400180004D0308104D0308104D0308104D0308104D0308104D0308104D0308104D0308104D0308104D0308104D0308104D0308104D0308104D0308104D0308104D030810BF
:4001C0004D0308104D0308104D0308104D0308104D0308104D0308104D0308104D0308104D0308104D0308104D0308104D0308104D0308104D0308104D0308104D0308107F
:400200004D0308104D0308104D0308104D0308104D0308104D0308104D0308104D0308104D0308104D0308104D0308104D0308104D0308104D0308104D0308104D0308103E
:400240004D0308104D0308104D0308104D0308104D0308104D0308104D0308104D0308104D0308104D0308104D0308104D0308104D0308104D0308104D0308104D030810FE
:400280004D0308104D0308104D03081010B5054C237833B9044B13B10448AFF300800123237010BD7C4A02080000000034C10910084B10B51BB108490848AFF3008008488F
:4002C000036803B910BD074B002BFBD0BDE81040184700BF00000000804A020834C109104C440208000000007047FFF7FDFF72B6104C114DAC4209DA21686268A368043B3A
:40030000A2BFC858D050FAE70C34F3E70B490C4A00209142BCBF41F8040BFAE709480A490860BFF34F8F00F0FFFC00F0D9FC00F0C1FBFEE738C1091050C109107C4A0208F7
:40034000B04004080040020808ED00E0FEE7FEE700B504207146084202D0EFF3098001E0EFF30880043007F091FAFEE710B54FF4FA7008F0BBFA1548154BC361154B0362D6
:40038000154B43626823437002F0BCFAC8B9134812F0F4FB0D4C0B2363730423A3730023E373152222730C2262710522A271E37111232371204602F0F5FA636A322098470A
:4003C00010BD074812F0DAFB10BD00BF984A020841040810E5030810ED880810044C09102C4C09102DE9F04182B0884616461D46114C124F009700231A460146204606F02D
:4004000085FA3B4600224146204606F0EDFB002406E00A4B0022315D074806F0E5FB0134AC42F6DB054A0021034806F051FB002002B0BDE8F08100BF000064403C3E0408D9
:400440002DE9F04383B08046894616461D461B4C1B4F009700231A460146204606F056FA3B4600224946204606F0BEFB0097002301224146204606F0C1FA002408E0104BA5
:4004800000930023321919460C4806F053FB01346B1E9C42F3DB1A46084C094D0095002332440121204606F045FB2A460021204606F00EFB002003B0BDE8F083000064405F
:4004C0003C3E0408F0B583B007460E460D4C0E4D0095642300225721204606F017FA2B4664223946204606F07FFB2B4664223146204606F079FB2A466421204606F0E8FA69
:4005000003B0F0BD00006340883E04082DE9F04182B080460D4616461A4C1B4F0097642300225721204606F0F1F93B4664224146204606F059FB00976423012257212046CD
:4005400006F05CFA002409E00F4B009364232A1900210C4806F0EEFA0134E4B2731E9C42F2DB084E084F009764232A190121304606F0E0FA3A466421304606F0A9FA02B0D5
:40058000BDE8F08100006340883E040830B583B005460C46062269460720FFF7B7FF1049104805F06BFB9DF800301B0403F440339DF8012003EB02239DF8022013442B6095
:4005C0009DF803301B0403F440339DF8042003EB02239DF805201344236003B030BD00BF3C4C09100000664070B510251D4B9D601D4C1E49204605F041FB40210920FFF7FE
:4006000061FF4FF47A7007F00DF9C0210220FFF759FF00210320FFF755FF00210620FFF751FF0F210820FFF74DFF03210920FFF749FF47210A20FFF745FF0D4E3168C9B264
:400640000C20FFF73FFF3168C9B20D20FFF73AFF7F212846FFF736FF0649204605F00EFB012070BD8004324000006640484C0910C4420208584C09102DE9F04F2DED028B5E
:400680008BB00222BE4B9A60002315E09A0050F8234007EE904AF8EE677ABA4C1444C4ED007A51F8234007EE904AF8EE677AB64C2244C2ED007A0133B3F57A7FE6DB0024CF
:4006C00009940894DFF8BC8209AA4FF47A71404609F09EFDDFF8B0B208AA4FF47A71584609F096FDDFF8CC92A84FA94DDFF8B8A2DAF8003000934B463A463321284609F0BA
:400700005BFEA44E4FF47A7332464146284609F065FEDFF890824FF47A7342465946284609F05CFEDAF8003000934B4607F1CC023321284609F040FE974F4FF47A733A46F9
:400740003146284609F04AFE944E4FF47A7332464146284609F042FE079406940594049403AB07AA4FF47A71384609F08DFD03AB06AA4FF47A71304609F086FD03AB05AACC
:400780004FF47A71384609F0ABFC03AB04AA4FF47A71304609F0A4FCDDED078ADDED057A78EEE77A17EE905A9DED047ADDED067A77EEC77ADDED086A87EEA67ADDED096AF4
:4007C00006EE105AC6EE267A87EE278A68EE087A17EE900A10F088FE61A3D3E9002310F0D7FE06460F4618EE100A10F07DFE5EA3D3E9002310F0CCFE02460B4630463946F8
:4008000010F012FD5AA3D3E9002310F00FFD11F097F9634B03F644421060D3F8482C0132C3F8482C012435E05B4B03EB8402D2ED007A621E03EB820393ED007AF4EEC77A55
:40084000F1EE10FA25DD631C534A02EB830393ED007AF4EEC77AF1EE10FA1ADD17EE900A10F042FE06460F46284610F03DFE42A3D3E9002310F08CFE02460B4630463946FC
:4008800011F016F928B1464AD2F84C3C0133C2F84C3C013440F2E6339C42C5DD002114E08B0038481844002202603B48184402603848184402603448184402603948184461
:4008C0000260364803441A600131B1F57A7FE7DB334BD3F8483C012B06D1314AD2F84C3C03EB4303C2F8503C2D4BD3F8483C022B0ED12B4AD2F84C3C03EB430303EBD373AB
:400900005B10C2F8503C0023C2F84C3CC2F8483C234BD3F8502C244B5B689A4206DC204BD3F8502C204B9B689A4202DA0222144B5A60DFED1E7AF4EEE78AF1EE10FA08D52C
:40094000174B03F644421A49116040F29A22C3F8502C0BB0BDEC028BBDE8F08FAFF30080213AA9D49188F93F26B49BCF6F5441401C333FED266C5A409A9999999999D93F5F
:4009800080053240BC820308CC5303086C4A0910B0820308107303082C44030870630308905B02085C9203088C4202080000614400802644C44A0208F0B5A7B0194D1A49A8
:4009C000284605F05BF9194C20888000184F194E39183044FFF7DAFD1749284605F04EF9228857F8223056F822201449684612F0CDF86946284605F041F9238801339BB224
:400A00002380B3F57A7F06D10D4BD9681869FFF733FE002222800B49024805F02FF927B0F0BD00BF000066406C4C09106C6303083CC103089CB10308784C0910884C09101D
:400A40008C420208984C091010B584B008F0EEFDFFF78CFC0024124B002201A9012001F0C3FF022007F042FFBDF90430C834A3420ADD0C4A12783AB10B490C4805F0FEF8BC
:400A800008220B4B5A6007E0B3F5167F04DA0822074B9A60FFF790FFBDF90440DBE700BF984A0208C8420208A44C0910000066400000324000B583B062B60822194B9A60DB
:400AC00002F082F802F02EFE08F0F6FD08F072FDFFF78AFD00F004F908F06CFD002401940125009523464FF4C8720F490F4807F087FD0194009523464FF4C8720C490D4811
:400B000007F07EFD0194009523464FF4C8720A490A4807F075FD07F0A5FD02F091FD0028FBD1FEE700003240CC4C0910490A0810D84C091071130810E84C0910F5130810DF
:400B400008B5012004F0FCFF08BD00BF704700BF5C4AD2F8803303F00F0303F1D00152F8212002F00702032A04D0042A05D092B9554914E0554A116811E003F1C002514901
:400B800051F8222002F01F02112A06D0132A04D04FF4FA4103E04E4901E04FF400418BBB484BD3F8902502F00100D3F88825C2F30172D3F8883513F0405F07D0414BD3F8D4
:400BC0008835C3F30173012B02D102E0012300E0002303B108B9032A46D13A48D0F88025C2F31103D0F88425C2F30C02D0F88005C0F300600130B1FBF2F202FB03F2B2FBA1
:400C0000F0F131E0012B2FD12E4BD3F8402602F00100D3F80026C2F30172D3F8003613F0405F07D0274BD3F80036C3F30173012B02D102E0012300E0002303B108B9032A1F
:400C400012D12048D0F8002602F07F02D0F80036C3F30423D0F80006C0F3044002FB01F2B2FBF3F2B2FBF0F1164BD3F88033C3F3011321FA03F215494A601648D0F8903071
:400C8000C3F3072301330069000E0130B2FBF0F08860B2FBF3F3CB600B6103F5742202F23F220D48A0FB0202C2F387420A7503F2E7330A4AA2FB03239B098B61DB03CB6145
:400CC000704700BF0000264000127A00A042020800366E010000214083DE1B43D34D621008B50D4806F0BCFEFFF730FFFFF730FF00221146042004F0EBFC084804F07EFD06
:400D0000074B1B6893F8513013B1064804F0E6FD04F0ACFB08BD00BF7C560910E8670208B03D0408F84C091008B506F00AFE074AD2F8883043F47003C2F88830BFF34F8FF6
:400D4000BFF36F8F06F001FE08BD00BF00ED00E0104B5A6910225A615B690F4BB3F90030002B09DB5A0903F01F03012101FA03F360320A4941F82230094B1B78022B03D186
:400D80000122074B1A707047012B02D10222044B1A70704700003240844F091000E100E0C042020810B404460068012305E054F82320904200DA104601338B42F7DB5DF867
:400DC000044B704710B404460068012305E054F82320904200DD104601338B42F7DB5DF8044B7047F8B506460F4601F071FE0546064C3B4632460146204601F0F1F841F2AE
:400E0000B0622946204611F0BFF9F8BD686902081C4B5B78022B33D110B51B4B93F8B8356BB1184C6368053B63606168C9B20C20FFF748FB6168C9B20D20FFF743FB124B7B
:400E400093F8B9356BB10F4C6368053363606168C9B20C20FFF736FB6168C9B20D20FFF731FB084B5B68042B02DC1422054B5A60044B5B68322B02DD0522024B5A6010BDE6
:400E8000704700BFC0420208607A0208094B5B78032B0DD1084B93F8B83513B10022054B1A72054B93F8B93513B10122014B1A72704700BFC0420208607A02080E4B5B78F2
:400EC000042B17D10D4B93F8B8353BB10C4A1368023313600B4A1368023B1360074B93F8B9353BB1074A136802331360044A1368023B1360704700BFC0420208607A02081C
:400F00009442020890420208F0B5ADF57B7D04460F46002306E01D49C96852F8230041F823000133A342F6DB184BDD6821462846FFF738FF064621462846FFF743FF044677
:400F40004FF47A720021684611F044F9002108460CE055F821301B1B962202FB03F3321B93FBF2F32DF8103001303944B1F5FA7FEFDB074BC3F800D001231A46FA21684675
:400F80000AF040FF0DF57B7DF0BD00BFC04202087CE0030870B5A6B006460D4613480AF087FC00200AF0B4FC96220A2110480AF017FF104C324621460DA811F0E7FD96228B
:400FC00057210DA80AF00CFF962211460A480AF007FF2A462146684611F0D8FD9622DC2168460AF0FDFE26B070BD00BFE46D09102C4D0910344D0910384D091008B50AF0FE
:4010000023FD142000F0D8FF012000F0DDFF01200AF002FC00200AF041FC6FF07F400AF033FC0AF0DFFC08BD10B50446AF2340F207120121084609F0DFFD04200AF0ECFBE1
:401040000F23F322194614200BF080F915480AF02FFC02200AF05CFC0522842112480AF0BFFE12480AF024FC00200AF051FC1E2211460F480AF0B4FE3C221E210D480AF0EE
:40108000AFFE5A221E210C480AF0AAFE78221E210A480AF0A5FE0222214610200AF098FA10BD00BFB88E0910404D091004580910484D09106C4D0910944D0910B84D091025
:4010C00000B58FB011480AF0F3FB02200AF020FC052284210E480AF083FE0E480AF0E8FB00200AF015FC3C220A210B480AF078FE0A4B5A680A4901A811F048FD3C22A021C4
:4011000001A80AF06DFE0FB05DF804FBB88E0910DC4D091004580910EC4D0910C0420208344D091008B516480AF0C2FB02200AF0EFFB0522842113480AF052FE12480AF0E3
:40114000B7FB00200AF0E4FB3C220A210F480AF047FE5A220A210E480AF042FE0D4B1B7A23B1782232210C480AF03AFE094B1B7A23B97822322109480AF032FE08BD00BF89
:40118000E46D0910084E091004580910204E0910484E0910C0420208704E0910804E091010B59AB019480AF083FB02200AF0B0FB0522842116480AF013FE16480AF078FB32
:4011C00000200AF0A5FB3C220A2113480AF008FE124B1A68124C21460DA811F0D7FC3C2296210DA80AF0FCFD5A220A210D480AF0F7FD0D4B1A682146684611F0C7FC5A224E
:40120000962168460AF0ECFD1AB010BDE46D0910944E091004580910A44E091090420208344D0910C04E09109442020808B518480AF03EFB02200AF06BFB164B1B78022B7A
:4012400008D1154A154B1A600522842114480AF0C7FD09E0012B07D1124A104B1A600522842111480AF0BCFD104B1868104BD3ED007AFDEEE77A17EE901AFFF78BFE074B44
:401280001A6802214FF47A70FFF73EFE08BD00BFE46D0910C04202083CC1030824F00308DC4E09109CB10308F44E0910E0670208D467020805490B690A3B054A82FB0302A5
:4012C0001A44DB17C3EB22134B617047C0420208898888880E4B5B69013B032B13D8DFE803F002060A0E0222094B5A7070470322074B5A7070470422054B5A7070470522D0
:40130000034B5A7070470122014B5A70704700BFC042020808B5144B93F8BA350BB1FFF7C9FF124B5B78012B1DD10F4B93F8B8351BB10E4A13691E3B13610B4B93F8B935BB
:401340001BB10A4A13691E331361084B1B69272B02DC8222054B1A61044B1B69822B02DD2822024B1A6108BD607A0208C042020838B5002003F0A2FF0024254601F042FC11
:40138000022001F0DFFE80B2194BA3F8BC05002001F0C4FE18B10124154B83F8BE45012001F0BCFE20B10124114B83F8BA450FE0022003F043FF542806D05C2808D10124FA
:4013C0000B4B83F8B84503E00124094B83F8B94502F094F802F0A6F90535284603F06EFF14B1FFF797FF0024322007F07FFAC5E7607A020808B5704C7049204606F0D8F90D
:40140000B4F90030002B08DB5A0903F01F000121814060326A4840F82210002B08DB590903F01F03012202FA03F3654A42F82130FFF7E4FD634B1869FFF7F6FD0121084688
:40144000FFF7D0FC5F4B5B78052B11D10BE00AF0C9FAFFF7EBFE01210846FFF7C3FC4FF47A7007F043FA584B93F8BE35002BEED0554B93F8B8351BB9534B93F8B9359BB1B5
:40148000504B5B78012B0FD10AF0ACFA4D4B1869FFF7CAFD01210846FFF7A4FC4A4B002283F8B82583F8B925474B93F8BA355BB10AF098FAFFF70EFF01210846FFF792FC33
:4014C0000022414B83F8BA253F4B93F8BE359BB13C4B5B78012B0FD03A4D01246C700AF081FA2869FFF7A0FD21462046FFF77AFC0022354B83F8BE25324B5B78022B19D16A
:4015000013E00AF06FFAFFF783FCFFF7D9FD01210846FFF767FC2C4B002283F8B82583F8B9254FF47A7007F0E1F9274B93F8BE35002BE6D0234B5B78032B19D113E00AF0EC
:4015400051FAFFF7A3FCFFF7EDFD01210846FFF749FC1D4B002283F8B82583F8B9254FF47A7007F0C3F9184B93F8BE35002BE6D0144B5B78042B19D113E00AF033FAFFF7C8
:401580009DFCFFF70DFE01210846FFF72BFC0E4B002283F8B82583F8B9254FF47A7007F0A5F9094B93F8BE35002BE6D04FF47A7007F09CF946E700BF844F0910510D08105C
:4015C00000E100E0C0420208607A02082DE9F04180460E4617460A4C08256560702000F06FFD404600F06CFDA5606560722000F067FD3946304600F0C7FDA560BDE8F081F5
:401600000006324000B583B002AB03F8011D01221946FFF7DBFF03B05DF804FBF8B507460E46094C08256560702000F049FD384600F046FDA5606560732000F041FD30461E
:4016400000F06EFDA560F8BD0006324038B50425084B5D60084C402363601023636000F0FFFC0822054B5A6065602023636000F0E1FC38BD000032408002324000063240BD
:4016800010B5434C6F220021204610F0A3FD631C236704F14E03636704F12203A36700F0C9FC03E000F0D0FC032868D800F0AEFD0028F7D100F0CEFC00217220FFF7AEFF87
:4016C00000F00F0002285CD14021FFF79BFF00210F20FFF7A3FF10F0800F54D002210B20FFF790FF08222B490120FFF76FFFD1210720FFF787FF02210820FFF783FFC221D7
:401700000920FFF77FFF03210420FFF77BFF01210320FFF777FF00210320FFF773FF0A2006F080F8002400E01C4601210520FFF769FF642006F076F803210520FFF762FFCC
:40174000322006F06FF80F210520FFF75BFF322006F068F800210F20FFF760FF10F0400F05D040210220FFF74DFF234603E0631C9BB2042CD8D1032B07D9052010BD0120CD
:4017800010BD022010BD032010BD002010BD00BF20800208084F091010F1090F0EDB10F1040F0EDB05280FDD0A2810DD0F2811DD142811DD282811DC5A2210E04FF496624D
:4017C0000DE04FF461720AE04FF4167207E04FF4A57204E0DC2202E0B42200E03C22034BA3F87C20A3F87E20704700BF208002082DE9F84F06460D46047828B1CA4B9842FA
:4018000005D10127002403E00127FF2400E0002700F010FC4FF00008D0E1C8EBC80AC8EB0A1ADFF80C930AEB090B6F220021584610F0D0FC0BF1010EBC4BC3F870E00AF14E
:4018400048004844063058670AF1200AD14409F10209C3F878902022002397E10FB934780136032D00F29081DFE815F004006500C600270100EB030C14F0400F01D0C021C0
:4018800000E080218CF8001049B214F0100F02D04FF0300A01E04FF0200A4AEA01018CF8001014F0040F02D04FF00C0A01E04FF0080A4AEA01018CF8001014F0010F02D076
:4018C0004FF0030A01E04FF0020A4AEA01018CF800100EEB020C14F0800F01D0032100E002218CF8001049B214F0200F02D04FF00C0A01E04FF0080A4AEA01018CF800102F
:4019000014F0080F02D04FF0300A01E04FF0200A4AEA01018CF80010013A92B214F0020F02D06FF03F0A01E06FF07F0A4AEA01018CF8001028E100EB030C14F0400F01D065
:40194000802100E040218CF8001049B214F0100F02D04FF0200A01E04FF0100A4AEA01018CF8001014F0040F02D04FF0080A01E04FF0040A4AEA01018CF8001014F0010F4E
:4019800002D04FF0020A01E04FF0010A4AEA01018CF800100EEB020C14F0800F01D0022100E001218CF8001049B214F0200F02D04FF0080A01E04FF0040A4AEA01018CF8B8
:4019C000001014F0080F02D04FF0200A01E04FF0100A4AEA01018CF80010013A92B214F0020F02D06FF07F0A01E04FF0400A4AEA01018CF80010C7E000EB030C14F0400F07
:401A000001D0C02100E040218CF8001049B214F0100F02D04FF0300A01E04FF0100A4AEA01018CF8001014F0040F02D04FF00C0A01E04FF0040A4AEA01018CF8001014F078
:401A4000010F02D04FF0030A01E04FF0010A4AEA01018CF800100EEB020C14F0800F01D0032100E001218CF8001049B214F0200F02D04FF00C0A01E04FF0040A4AEA010165
:401A80008CF8001014F0080F02D04FF0300A01E04FF0100A4AEA01018CF80010013A92B214F0020F02D06FF03F0A01E04FF0400A4AEA01018CF8001066E000EB030C14F0A2
:401AC000400F01D0802100E0C0218CF8001049B214F0100F02D04FF0200A01E04FF0300A4AEA01018CF8001014F0040F02D04FF0080A01E04FF00C0A4AEA01018CF8001019
:401B000014F0010F02D04FF0020A01E04FF0030A4AEA01018CF800100EEB020C14F0800F08D0022107E000BFFFFF0F102080020828F0030803218CF8001049B214F0200F72
:401B400002D04FF0080A01E04FF00C0A4AEA01018CF8001014F0080F02D04FF0200A01E04FF0300A4AEA01018CF80010013A92B214F0020F02D06FF07F0A01E06FF03F0AF1
:401B80004AEA01018CF8001001339BB2202B7FF665AEC8F1AF031BB299101A4A134003D5013B63F003030133174A02FA83F31B7A09F8013008F101081FFA88F8B8F1AF0F32
:401BC0007FF62BAE00240FE0C4EBC403C4EB03136F220E4919440A20FFF7F8FC07210220FFF710FD0134A4B2AF2CEDD9084BB3F87C4000F029FA8442E4D800F02BFABDE86E
:401C0000F88F00BF03000080084F091028F00308208002082DE9F04706460D4600F00AFAD2210920FFF7EEFC0024C6E0C4EBC407C4EB0717DFF8008207EB08096F220021A3
:401C4000484610F0C7FA09F1010C784BC3F870C007F1480EC6440EF1060EC3F874E02037B84408F10208C3F87880202000218EE0771C32786E1C95F800900EEB010582EABF
:401C8000090212F0400F04D019F0400F03D0802302E0402300E0C0232B705BB212F0100F05D019F0100F05D04FF0200A04E04FF0100A01E04FF0300A4AEA03032B7012F0AC
:401CC000040F05D019F0040F05D04FF0080A04E04FF0040A01E04FF00C0A4AEA03032B7012F0010F05D019F0010F05D04FF0020A04E04FF0010A01E04FF0030A4AEA0303C9
:401D00002B700CEB000512F0800F04D019F0800F03D0022302E0012300E003232B705BB212F0200F05D019F0200F05D04FF0080A04E04FF0040A01E04FF00C0A4AEA03035E
:401D40002B7012F0080F05D019F0080F05D04FF0200A04E04FF0100A01E04FF0300A4AEA03032B70013880B212F0020F05D019F0020F04D06FF07F0203E0402201E06FF06A
:401D80003F0213432B70013189B235463E4620297FF66EAFC4F1AF031BB29910244A134003D5013B63F003030133224A02FA83F31B7A08F801300134A4B2AF2C7FF636AF07
:401DC000002421E0C4EBC405C4EB05151A4B1D446F2229460A20FFF7F9FB07210220FFF711FCC4F1AF0343F38D032B44002283F822206F2229460A20FFF7E8FB072102208E
:401E0000FFF700FC0134A4B2AF2CDBD9074BB3F87E4000F019F98442D2D800F01BF9C2210920FFF7EFFBBDE8F08700BF2080020803000080084F091028F00308002307E0D4
:401E40001349086F5522C254496FCA5401339BB2202BF5D970B5002416E0A6080C4DAA6F04F003030B490B441B7A93556F2229460A20FFF7ABFB07210220FFF7C3FBAB6F3B
:401E800000229A550134A4B2AF2CE6D970BD00BF20800208084F091008B5002304E00021094AD1540133DBB2152BF8D900210420FFF7A8FB6F2204490A20FFF787FB072131
:401EC0000220FFF79FFB08BD2080020838B50E4C1023A360142005F0A5FC00F0D9F808220A4B9A604023A3600425A5600A2005F099FC65600A2005F095FCA5600A2005F05F
:401F000091FCFFF7BDFB38BD800232400006324038B5FFF793FFFFF7BFFF1E2005F082FC234C40256560322005F07CFCA56000210F20FFF773FB10F0400F36D000210B2079
:401F4000FFF760FB01210320FFF75CFB03210520FFF758FB01210520FFF754FB322005F061FC80210420FFF74DFB00210520FFF749FB01210720FFF745FB1E2005F052FC39
:401F800000F094F8102363606560142005F04AFC0822084B5A60042363602025A5601E2005F040FC6560002038BD042038BD00BF800232400006324010B50446FFF746FB3D
:401FC0002046FFF7E9FB10BD08B510B1FFF77EFF01E0FFF79DFF08B9012008BD002008BDF8B507460E4614461D4613B10120FFF7EBFF24B931463846FFF70CFE15E0631ECC
:40200000DBB2012B11D800213846FFF7F1FB012C07D101213846FFF7EBFB02213046FFF7E7FB03213046FFF7E3FB15B10020FFF7CBFFF8BD08B50022024BC3F8082100F0C2
:4020400099FD08BD00003840014BD3F808017047000038400122014B5A6070470000384010B5074C074A0849204604F0B5FE236843F0004323600822044B9A6010BD00BF9C
:4020800000006740783C04088C4F0910000632400822044B9A60044A136843F000431360704700BF000632400000674008B50249024804F0C5FF08BD783C0408000067405D
:4020C00008B50146154803F07BFD144BD3F8C03F13F0040FF9D0114BD3F8042242F48032C3F80422D3F8042222F48032C3F80422D3F80422D3F8042342F48032C3F80423AF
:40210000D3F8042322F48032C3F80423D3F804230422C3F8C02FD3F8C03F08BD0000674008B50146174803F04BFD164BD3F8C03F13F0040FF9D0134BD3F84003D3F8042206
:4021400042F48032C3F80422D3F8042222F48032C3F80422D3F80422D3F8042342F48032C3F80423D3F8042322F48032C3F80423D3F804230422C3F8C02FD3F8C03FC0B2B5
:4021800008BD00BF0000674038B50C46054600B121B940F2E6511B4805F068FB22462946194803F053FD184AD2F80832C3F30803D2F80822C2F3C032D342F4D1124BD3F87C
:4021C000042242F48032C3F80422D3F8042222F48032C3F80422D3F80422D3F8042342F48032C3F80423D3F8042322F48032C3F80423D3F804230422C3F8C02FD3F8C03F81
:40220000204638BD144F091000006740044B1B6913F0080F01D0012070470020704700BF8002324040B1C2694AB1026A52B1436A5BB94FF0FF3070474FF0FF3070474FF030
:40224000FF3070474FF0FF3070470020704700BF0222C271082343711021017103218171C2734373142303730023837343688360C3680361704700BF4B790C2B0BD84A7AE8
:4022800093420BD0027802F0F00203F00F0313430370002070476FF00300704700207047CB79072B0CD8CA7A93420CD0027802F08F021B0103F0700313430370002070470D
:4022C0006FF0030070470020704700BF8B790C2B0BD88A7A93420BD0027802F0F00203F00F0313430370002070476FF003007047002070474B7B0D2B0BD84A7C93420BD013
:40230000027802F0F00203F00F0313430370002070476FF00300704700207047CB7B022B09D8027802F0CF021B0103F0300313430370002070476FF0030070478B7B042BE9
:402340000BD88A7C93420BD0027802F0F80203F0070313430370002070476FF003007047002070477BB138B51C46DD6975B182B19B78012B01D140F0800013460A46014606
:402380006078A84738BD4FF0FF3070474FF0FF3038BD6FF00B0038BD38B504460D460B46022201464020FFF7DDFF034680B929462046FFF761FF034650B929462046FFF738
:4023C0006FFF034620B92946601CFFF77FFF0346184638BD38B504460D460B46022201464220FFF7BFFF034680B929462046FFF781FF034650B929462046FFF78FFF034635
:4024000020B92946601CFFF799FF0346184638BD00B583B002A9002301F8013D034601220220FFF79FFF9DF80730C3F34303012B06D0022B07D0032B08D0072B0BD108E0D5
:402440006FF0050007E06FF0060004E06FF0070001E06FF0080003B05DF804FB30B585B005460C460023019302938DF80C301346821D01A91220FFF775FF48BB02469DF831
:4024800005301B021BB29DF804100B4323809DF807301B021BB29DF806100B4363809DF809301B021BB29DF808100B43A380032D0BD19DF80A009DF80B309DF80C100904C2
:4024C00041EA03230343A36004E00023A36001E06FF00102104605B030BD00BF10B584B00C4613460021009101910291CDF80B1010BB062269460C20FFF734FF014600287D
:4025000046D19DF801301B021BB29DF80020134323809DF803301B021BB29DF80220134363809DF805301B021BB29DF804201343A3800023A36030E002460C3269460C2007
:40254000FFF710FF014630BB9DF801301B021BB29DF80020134323809DF803301B021BB29DF80220134363809DF805301B021BB29DF804201343A3809DF80C009DF80D30CB
:402580009DF80E20120442EA03230343A36004E06FF0010101E06FF00101084604B010BD70B584B006460D4614460022009201920292CDF80B2000F10C0269460C20FFF764
:4025C000D1FE002843D102469DF801301B021BB29DF800100B4323809DF803301B021BB29DF802100B4363809DF805301B021BB29DF804100B43A3809DF807301B021BB234
:402600009DF806100B432B809DF809301B021BB29DF808100B436B809DF80B301B021BB29DF80A100B43AB80032E0CD19DF80C009DF80D309DF80E10090441EA032303439E
:40264000AB60A36005E00023AB60A36001E06FF00102104604B070BD2DE9F843002B34D00546894690461E461C6A002C30D0002A31D09B78012B01D100F07F05337A112B9D
:4026800002D0337C152B19D143464A4629467078A0470746736A0120984714E0376A012309EB040229467078B84707460135EDB2736A012098470134E4B201E000242746A9
:4026C000A3B29845EAD85FB108E04FF0FF3707E04FF0FF3704E06FF00B0701E06FF001073846BDE8F88300BF10B582B0044602A8002320F8043D2146FFF74EFE0346B0B961
:402700002346012201A94020FFF7A6FF034670B963796372E379E372234601220DF105014120FFF799FF034608B9A279A272184602B010BD10B582B0044602A8002320F8D9
:40274000043D2146FFF746FE0346B0B92346012201A94220FFF780FF034670B9637B6374E37BE374234601220DF105014320FFF773FF034608B9A27BA274184602B010BD67
:4027800030B583B004460D4600238DF807300B46012201464020FFF7E5FD034628BB2A79122A14D1237863F07F0323702B46012221464020FFF750FF0346B0B92B460222B8
:4027C0000DF107015820FFF747FF03460DE0227812F0800F09D002F07F0222702B46012221464020FFF738FF0346184603B030BD30B583B000238DF807300279A2F11003F9
:40280000DBB2022B1AD8037A9A421AD0044601460DF10700FFF7B4FF054698B923460122211D7E20FFF718FF0546237A102B02D1636A052098472379237203E06FF0030517
:4028400000E00025284603B030BD00BF38B5027BA2F11403DBB2012B01D9172A1DD1037C9A421DD004460346012200F10C017E20FFF7F2FE0546237C142B03D1636A5120F5
:40288000984707E0172B05D1237B152B02D1636A0A209847237B237403E06FF0030500E00025284638BD00BF30B583B0B6238DF80730F0B10446436AF3B1034601220DF1BA
:4028C00007017E20FFF7C8FE0546636A0120984755B9A378012B07D1234601220DF107017F20FFF73FFD054645B92046FFF7B0FC04E04FF0FF3501E04FF0FF35284603B0B1
:4029000030BD00BF30B583B00446FFF78BFC014650B9A378012B07D1234601220DF107017F20FFF71FFD014609BB00232370032207E02346012221460020FFF713FD01462D
:402940002A46531EDDB212B12378D12BF1D149B92378D12B09D1FF23E3702046FFF7A4FF014604E06FF0020101E06FF00201084603B030BD60B1426A6AB110B50446FFF749
:4029800037FF034658B92046FFF760FF034606E04FF0FF3301E04FF0FF3318467047184610BD00BFB0B1426ABAB110B50446FFF79BFE0346A8B92046FFF7BCFE034680B983
:4029C0002046FFF7D7FF034658B92046FFF720FD034606E04FF0FF3301E04FF0FF3318467047184610BD00BF38B500F0030510F0040F01D1002000E00320B3B11446022D07
:402A000008D0032D0CD0012D12D1A1B11A46FFF725FD38BD92B11A462146FFF75FFD38BD7AB189B1FFF7BCFD38BD4FF0FF3038BD6FF0040038BD4FF0FF3038BD4FF0FF30FC
:402A400038BD4FF0FF3038BD4FF0FF3038BD00BF10B582B002AC012344F8043D00231A461449154809F00EF921460AF022FE0BF081FA60B14FF48472B02100200BF05FFBD2
:402A80004FF48472B02100200BF085FB0BE0B0224FF4847100200BF052FBB0224FF4847100200BF078FB054900200BF05FFB02B010BD00BFFCBC091030BD0910F042020868
:402AC000012901D1002070474FF0FF30704700BF00487047A080020808B5012005F002FA014B186008BD00BF5097020808B500231A4619460248006805F020F908BD00BF0B
:402B00005097020808B54FF0FF31024B186805F013FB08BD5097020808B506F041F808BD704700BF08B54FF40041034808F0B4F9024808F01FFF08BD5497020874B509103E
:402B400010B504462146034803F03AF80028F9D010BD00BF00006140054BD3F80833C3F30803002BF8D0024BD3F84003704700BF0000614008B5084B1B783BB9074A0021CC
:402B8000074804F0E5FE0122034B1A70044B01229A609A6108BD00BF54170308C04F09100000384008B5074B1B7833B900F06CFA00F0E4FA0122034B1A7000F05DF801F010
:402BC00025F808BD5517030810B5FFF7EBFF044610B900F017FF044614B900F08FFE044614B900F09FFD044600F02AFD0028FBD100F0A6FB00F014FB0CB902F007FB204683
:402C000010BD00BF70B5194D0026344629E063090433174A52F8233004F01F02D34013F0010F1CD0EB7E012B02D0022B09D011E0284600F0B3F806462946204600F0EAF9B1
:402C40000DE0284600F086F806462946204600F019F904E04FF4B871064804F007FE30350134022CD3D9304670BD00BF705009109C3C04080C500910F8B500230AE0204AA5
:402C8000191D02EB8100002444604FF0FF3042F821000133002BF2D01A4C03232CE06668A27E174B2B4400211976012A03D00AB3032A07D91EE02069E0B1228BF1790FF0C1
:402CC00089FA17E023690BB1F2791A70676800260EE006F1080307EB43034FF6FF729A80A06A20B1114600EB460002F055FA0136002EEED030342B465D1E002BCFD1F8BD99
:402D00009C3C04087050091010B582B004460846638802A921F8083D1346228A07F072F9BDF8003063809DF8023023719DF8033063719DF80430A37102B010BD30B40B885A
:402D40004A889C1A0025CD800079844200DDCC8030BC70472DE9F843C5688468038B4768867E4FF0000911E032462146284600F03FFB32462146384600F050FB814621462D
:402D80003846FFF7DBFF0A340A35434603F1FF38002BE9D14846BDE8F88300BF2DE9F04F83B08146837E062B02D14FF0010B01E04FF0000BD9F80C80D9F80840D9F80470BD
:402DC0009A46D9F824600025019520E052462146404600F00DFB3246398A208807F03AF92A4631463846FFF78FFF0C3652462146384600F013FB019021463846FFF79EFFAA
:402E00000A34BBF1000F01D108F10A080135B9F818309D42DAD3019803B0BDE8F08F00BFF0B50C8B8D684F680A69012324E010EA030403D17E88B979314402E07988BE79B3
:402E4000891BEE88B14201D3002100E01946A14202D01678013E1670A14201D014783CB920EA0300084309B9F97900E0012111705B000A350132744604F1FF3E002CD6D139
:402E8000F0BD00BF38B504468A7E154B03441D7E012A04D12846FFF7C3FF054604E04FF43871104804F0E2FC0D4B23441D76620904F01F04012303FA04F445B90432084B46
:402EC00003EB8202536823EA0404546038BD0432034B03EB820253681C43546038BD00BF9C3C0408385009102DE9F04F83B088460B8B8A684F68D1F810E08E6A844618B909
:402F00007C88B9790C4402E07988BC790C1B0025012109E0D3889C4201D3002300E00B461D430A3249000346581E002BF2D155B19EF8003013B1013B8EF800309EF8003061
:402F400023B1654602E0FB798EF80030002D4AD07A88BB79B8F81890D21A4946D8F8080002F06CF8044600284DD098F81A30022B49D100234A46D8F8201001A802F0CAF888
:402F80000446D8F814A0D8F828904FF0000827E001AB33F818B008F1080307EB43039A884FF6FF739A4204D15946484602F0F4F809E01AF0400F06D0B9F800305B44A9F8C4
:402FC00000B0C3F34E0B08F1080307EB4303A3F804B0B9F1000F01D009F1020908F101084445D5D80FE000240DE004F1080307EB43034FF6FF729A8026B1114606EB440055
:4030000002F0CAF80134002CEFD0284603B0BDE8F08F00BF38B504468A7E194B03441D7E012A03D062B1032A05D909E02846FFF7F7FE054609E02846FFF756FF054604E0B9
:4030400040F226410F4804F011FC0D4B23441D76620904F01F04012303FA04F445B90432074B03EB8202536823EA0404546038BD0432034B03EB820253681C43546038BD48
:403080009C3C040838500910F8B5224F4FF48672002138460FF09EF84BF274333B804FF410637B8043F2D403BB800623BB831023BB770823FB77184E07F1200406F19805E8
:4030C0000FCD0FC40FCD0FC40FCD0FC495E80F0007C423800123C7F8FC30562206F1D80107F1A4000FF050F8304606F1080403230CE0A268238B04E010F8013B53720A3223
:403100000B46591E002BF7D130342B465D1E002BEFD1F8BD9C3C04086850091002280DD800F01F02012303FA02F24009031D044800EB83035B6802EA030070470020704794
:403140009C3C0408022811D800EB400213010A4A134493F82230023BDBB2012B09D800EB400003011344DB68988A70474FF6FF7070474FF6FF707047685009100023024A00
:40318000D380024A136070479C3C0408F0170308C9B2062902D083180021197130F8121000EB42035980024400231372704700BF70B506460D46012305E0224629463046BD
:4031C000FFF7E6FF23465C1E002BF6D170BD00BF70B5084D43001A18140122462C44A66801EB81014C002A44917E3019FFF7E0FF70BD00BF7050091038B5054600EB4002CA
:403200001301064A13441B8B04E021462846FFF7DFFF23465C1E002BF7D138BD7050091010B5032303E02046FFF7E6FF23465C1E002BF8D110BD00BF70B401230DE0D3B2D0
:40324000062B09D031F81460A30023445D004319465331F814505D8023465C1E002BEED170BC704770B4012410E0D4B2062C0CD031F813609D001D446C000444A68031F8C7
:403280001350E58031F8135025811C46631E002CEBD170BC704700BF2DE9F04F83B005464200024413011F4A13445A6801921B8B32E06A002A4413011A4A1344D3F808B041
:4032C00004EB84024FEA42080BEB080AD86881465E6A04EB44018A0016449F7E062F01D000EB08093A4651464846FFF7A5FF3A4651464846FFF7B6FF05EB45021301094A9B
:403300001344DB7E012B06D13246019B198A3BF8080006F093FE23465C1E002BC9D103B0BDE8F08F7050091010B5032303E02046FFF7B2FF23465C1E002BF8D110BD00BFCB
:4033400008B5FFF7F1FF08BDF0B4012319E0D3B2062B15D031F81460A70027447B0003449D883544DF88EE191D8935441F819E88DE8031F814609E80C5F38F0321F8143067
:4033800023465C1E002BE2D1F0BC7047884202D9034608461946914200D91146884238BF084670472DE9F04707460E469046012319E05FFA88F3062B14D0A30023445D0054
:4033C00007EB050937F805A0B9F80220514636F81400FFF7DBFFA9F802A036F814307B5326F8140023465C1E002BE2D1BDE8F08770B504460D461646FFF7D4FF324629461D
:403400002046FFF7A1FF70BD00FA03F3C2F5807001FB00F102FB0310000A70472DE9F04107460D461646012338E035F8140005EB44035988884207D3421A2B194FF0000EA5
:4034400083F808E0012301E00A1A00238BB97B799A420ED92B191B7A3A7A934205D3224631462846FFF794FE17E02A190133137213E0F3B2062B10D005EB040898F804E087
:40348000082301224EEA0121FFF7BEFFC0F30F2205EB44035A8088F8040023465C1E002BC3D10020BDE8F08170B5074E42001418230133449C6801EB81014D009A7E61198C
:4034C0005868FFF7ABFF70BD7050091070B5064600EB40021301084A13441B8B002505E021463046FFF7E0FF054323465C1E002BF6D1284670BD00BF7050091038B5002547
:40350000032304E02046FFF7E1FF054323465C1E002BF7D1284638BD30B49F280ED940F2FE3399420AD9244CA1FB04454B1B05EB53035B0AC3EB832399422FD09F280DD9D0
:40354000B1F5FF7F0AD91D4CA1FB04454B1B05EB53031B0AC3EB4323994221D09F280CD97E290AD9164CA1FB04454B1B05EB53039B09C3EBC313994214D09F2814D93E291A
:4035800014D9104CA1FB04454B1B05EB53035B09C3EB831399420BD000200AE0042008E0032006E0022004E0002002E0002000E0012030BC704700BF0510400021408000F3
:4035C00011080402054110044A1E032A01D8102300E0002379B183B1642202FB03F3B3FBF0F3002001E001305B00092BFBD90A2B04D9013802E0002000E00020C0B270473B
:4036000008B501F0B7FC08BD08B50A4B1A689169094B5B1ADB09526902EB03135A6822F0F8525A60054A136823F00103136000F045FF08BDB03D040880033240A802364038
:40364000024BD86800F08000704700BF9C3C0408034B0340034AD0681843D060704700BF800001009C3C0408034B0340034AD06820EA0300D0607047800001009C3C040808
:4036800010B5174BDB6813F4803F0ED102280ED843090433124A52F8233000F01F02D34013F0010F05D1012404E0112402E0012400E000248CB900EB40021301094A1344E9
:4036C000DB7E022B02D101F067FC06E0012B02D100F006FF01E04FF0FF34204610BD00BF9C3C04087050091008B50C4BDB6813F4803F0DD10A4B1B78012B05D0022B09D156
:4037000001F01AFB002008BD00F036FE002008BD112008BD4FF0FF3008BD00BF9C3C0408F4170308124BDB6813F0800F1AD110B500244FF0FF3312E02046FFF7A1FF034605
:4037400060B9012C03D801220A4B5A7002E00022084B5A70FFF7C8FF034606E00134022CEAD902E0112318467047184610BD00BF9C3C0408F4170308124B1B78834220D0FF
:4037800010B50446012B02D1FFF73EFF03E0022B01D1FFF735FF012C05D100F065FC0122084B1A7010BD022C05D101F011F90222044B1A7010BD032C02D00022014B1A70D9
:4037C00010BD7047F417030830B583B00025074C08E02179002300930E22206801F04EFE08340135082DF4D903B030BD9851091038B51B4A93780133DBB293709078FFF73D
:403800003FFF044650B9164B9B78DBB2022B02D10022134B5A70FFF767FF1EE0104B9B78DBB2022B10D10F4D2B8901332B818020FFF71AFFEB6823F07F43EB60EB6843EAB7
:403840000464EC60002408E0064BDA6822F07F42DA60DA6842EA0062DA60002CC9D138BDF41703089C3C040810B50146124BB3F90030002B0DDB5A0903F01F03012404FA36
:4038800003F320320D4840F82230BFF34F8FBFF36F8F094C204603F08BFFB4F90030002B08DB590903F01F03012202FA03F3034A42F8213010BD00BF544F091000E100E011
:4038C00070B5022801D8002500E0012595B9044600EB40021301084A1344DE7E022E02D1282101F025F9012E04D15521204600F0CBFE0546284670BD7050091038B50024D3
:40390000254604E02046FFF7DBFF05430134022CF8D9284638BD00BF70B500241CE004EB440213010E4A1344DB7E012B13D104EB440213010A4AD658002504E006EBC50034
:4039400000F066FD013504EB44021301044A13441B7E9D42F2D30134022CE0D970BD00BF7050091000EB40000301024A13445B68588970477050091000EB40000301024A31
:4039800013445B685981704770500910C0EB0032012303FA01F101398A4205D9C0EB0020814203D30520704706207047002070472DE9F04180460E46FFF7D4FF0746002222
:4039C000318800F01BFC01463846FFF7A5FD054620B931887800FFF7D9FF054629463846FFF7F2FD04466B1FDBB2012B03D839464046FFF7C1FF2001C0B228433073BDE801
:403A0000F08100BFF0B58BB04FF47A73ADF8003040F2C343ADF802304FF49673ADF80430584B9A7F584BB3FBF2F3ADF80C3000F01BFB0024264655E004EB44021301534AB9
:403A40001344DB7E012B46D104EB440213014F4A13445D680C232B8000232B73BDF80C304B4AA2FB03235B092F4627F80A3F5521204600F009FE0497464B1B788DF81830D1
:403A8000454B1A884FF47A7303FB02F2434BA3FB0213D21A03EB5203C3F3CF23ADF80E30684606F057FA3E4B984203D9062601E05B006B81BDF80C106B8941F2707202FB58
:403AC00003F29142F4D8032BF2D90AAB03EB840343F80C0C05E001220AAB03EB840343F80C2C0134022CA7D900242AE004EB44021301264A1344DB7E012B21D104EB44024A
:403B00001301224A13445D685521204600F0BCFD064305F10A0304930AAB03EB840353F80C3C02931B4B1B788DF81830EB89ADF8063005F110030593684606F031FA288002
:403B40000134022CD2D9002416E004EB440213010E4A1344DB7E012B0DD104EB440213010A4A134459682046FFF722FF5521204600F08AFD06430134022CE6D930460BB0A1
:403B8000F0BD00BF9C3C0408A086010070500910F1197605144302081643020801011000870D0100F8B5002428E0620022441301144A13445D68DB7E012B02D0022B05D03D
:403BC00016E029462046FFF7F3FE16E02E88204601F02AFA07463146FFF79EFC064601463846FFF7F1FC0001C0B23043287304E040F25971044803F039FE0134022CD4D9BD
:403C0000F8BD00BF705009102452091008B5FFF7C9FFFFF7D9FD0020FFF7AEFD002008BD38B52D4D2A6893692C4CE31ADB09526902EB03135A6822F0F8525A608023636071
:403C40002B6893F87D20135923F0704343F0C04313512A689369E31ADB0951691B01CA5822F4F852CA50022363602B6893F87D20135923F0F00343F0600313512A6893693F
:403C8000E31ADB0951691B01CA5822F4F812CA50042363602B6893F87D20135923F4706343F4C0631351012003F0D4FD2B6893F87D20135923F0704313512B6893F87D2047
:403CC000135923F0F00313512B6893F87D20135923F47063135138BDB03D0408800332400F4B1B7803EB43031A010E4B1A4453680D4AD2F8D02091B2188801238340013BD1
:403D0000994206D2094B1B680949097823F811207047064A12680649097822F811307047F61703087050091000003640A83D0408E051091038B5234A1378234C03EB43034D
:403D4000190121444868137803EB43031A012244127E013A1D4B1B78DBB29A421CD91B4C23780133DBB22370164D2B7803EB43031A01154B1A449168237803EB83035A00E5
:403D80000A44134B1A6000F011FA2878217800F02DFB00F075FA38BD00220C4B1A704FF48030FFF761FC0B4B1B78012B02D1FFF71FFD38BD8020FFF757FC074A13890133FB
:403DC000138138BDF617030870500910FC170308A83D0408F51703089C3C040808B5074B4FF483721A601B68FFF77AFF044A1389013313810348FFF737FC08BDF00036403B
:403E00009C3C04088000010010B50C4B1B7803EB43031A010A4B9B580A4A147803EBC404094B4FF483721A601B68FFF759FF204600F0EEFAFFF77EFF10BD00BFF617030815
:403E400070500910FC170308F000364001390843014B1860704700BF000236400E4B1B6823F4F8730D4A917F0D4AB2FBF1F20D498A4204D843F02003074A136070470A49E0
:403E80008A4204D843F03003034A1360704743F04003014A13607047104302089C3C040800E1F505001BB70000366E01044A054B1A604FF0A17203F580731A60704700BFBA
:403EC0000000430100043640084A136803F07F0343F0A17343F48033136002F58072136803F07F0343F480031360704700043640074A136843F0805343F001031360054A1C
:403F0000054B1A604FF0A17203F580731A607047A8023640000043010004364010B40488012000FA04F4013C04EB840303FA00F00C4BA3FB00035B0901335818844200D2D0
:403F400020468B4201D8C91A00E00021914203D8904203D2062002E0062000E000205DF8044B70471F85EB510023164A136002F5927213600432136006212C3A11604FF445
:403F80008071083A11600121903A1160A2F580724FF48371116012680B4A136003220B4B1A604FF4FA6300E0013B094A126812F0040F01D1002BF7D113B90822034B1A6077
:403FC000704700BF8C013640F800364040033640F00036401D4B4FF483721A601B681C4BB3F90030002B08DB590903F01F03012202FA03F3174A42F821300023164A13605F
:4040000030321360043213602C3A1360983A13600121643A11600C3A13608032136843F08073136002220D4B1A604FF4FA6300E0013B0B4AD2F8842012F0070F01D0002BAB
:40404000F6D140F20132074B1A607047F0003640544F091000E100E080023640F8003640000036404003364070B5FFF755FCFFF7D7FD4FF48032404B1A604048036843F0C3
:40408000805343F00103036000233D4A136002F5E07213600C32136060321360A2F5CE72136002F582721360083A1360354C2360A2F5807213604FF0487102F5A87211602D
:4040C000314D2A6892F87D60304AB15821F07041B15029688D69521BD209496901EB0212516821F0F85141F08061516028490A6842F480520A604FF48071264A11600268D8
:4041000042F0805242F0010202604FF0807222490A6041F24140A1F58E71086001F584710B602260FFF7C2FE1C4B9B7F013BFF2B0BD8154A12689068B2F87410425822F426
:404140007F421B029BB213434350FFF787FE144B1B6843F0004343F48053124A13600F22114B1A600022A3F588731A600A2203F590731A6070BD00BF04023640A802364020
:40418000F400364084023640B03D04088003324094023640A0023640A40236409C3C040810430208000036400003364038B5054603F0C7FB0D490B6823F07F020C4B1C7806
:4041C00025446B7A13430B6003F0BFFB03F0B9FB08490B6823F07F02074B1B681C44637A13430B6003F0B1FB38BD00BF00043640E051091000053640A83D040830B40124A5
:404200008C40631E40B10F2904D9A4F10A03B3FBF0F301E0B3FBF0F3053A012A00D85B080BB9012000E0184630BC704708B50C4B1B7803EB43031A010A4B1A4453685989D5
:404240001B7B18045A1F012A01D840F00070053B012B02D8490800D10121FFF7F7FD08BDF61703087050091008B5027B01884089FFF7C4FF80B2014B186008BD14033640B8
:4042800008B50D4BB3F90030002B0DDB5A0903F01F03012101FA03F32032084941F82230BFF34F8FBFF36F8F0122054B1A60FFF75BFEFFF78FFE08BD544F091000E100E000
:4042C0008001364008B50348FFF7C2F9FFF7D8FF08BD00BF80000100F8B5054603F031FB06462F682C79072C04D94FF47171204803F0BCFAA4001F4B1B6893F87D00C259A3
:404300000F23A34022EA0301062202FA04F30B43C3512C682D79072D04D94FF42271144803F0A4FA134B1A689369E31ADB0952691B01D118032D0BD8D158ED001F20A84000
:4043400021EA00000B2101FA05F50543D5500BE0043D4B68ED001F22AA4023EA02020B2303FA05F515434D60304603F0EEFAF8BDE4510910B03D040870B5164E3378164C8F
:4043800003EB43031A0122445068144D00232B70337803EB43031A01224491682B7803EB83035A000A440E4B1A60FFF7FFFE337803EB43031A01A358287803EBC000094BFC
:4043C0001860FFF789FF0848FFF74EFAFFF77AFF70BD00BFF617030870500910FC170308A83D0408AC3D0408093E081008B500EB40000301044AD05800EBC100034B1860B6
