:020000041008E2
:4000000000780408EB0208100D0000005103081051030810510308105103081000000000000000000000000000000000F11208104D030810000000002113081085130810FB
:400040004D0308104D0308104D0308104D0308104D0308104D0308104D0308104D0308104D0308104D0308104D0308104D0308104D0308104D0308104D0308104D03081000
:400080004D0308104D0308104D0308104D0308104D0308104D0308104D0308104D0308104D0308104D0308104D0308104D0308104D0308104D0308104D0308104D030810C0
:4000C0004D0308104D0308104D0308104D0308104D0308104D0308104D0308104D0308104D0308104D0308104D0308104D0308104D0308104D0308104D0308104D03081080
:400100004D0308104D0308104D0308104D0308104D0308104D0308104D0308104D0308104D0308104D0308104D0308104D0308104D0308104D0308104D0308104D0308103F
:400140004D0308104D0308104D0308104D0308104D0308104D0308104D0308104D0308104D0308104D0308104D0308104D0308104D0308104D0308104D0308104D030810FF
:400180004D0308104D0308104D0308104D0308104D0308104D0308104D0308104D0308104D0308104D0308104D0308104D0308104D0308104D0308104D0308104D030810BF
:4001C0004D0308104D0308104D0308104D0308104D0308104D0308104D0308104D0308104D0308104D0308104D0308104D0308104D0308104D0308104D0308104D0308107F
:400200004D0308104D0308104D0308104D0308104D0308104D0308104D0308104D0308104D0308104D0308104D0308104D0308104D0308104D0308104D0308104D0308103E
:400240004D0308104D0308104D0308104D0308104D0308104D0308104D0308104D0308104D0308104D0308104D0308104D0308104D0308104D0308104D0308104D030810FE
:400280004D0308104D0308104D03081010B5054C237833B9044B13B10448AFF300800123237010BD544902080000000050450810084B10B51BB108490848AFF30080084819
:4002C000036803B910BD074B002BFBD0BDE81040184700BF00000000584902085045081020430208000000007047FFF7FDFF72B6104C114DAC4209DA21686268A368043BF1
:40030000A2BFC858D050FAE70C34F3E70B490C4A00209142BCBF41F8040BFAE709480A490860BFF34F8F00F0E5F900F0BFF900F01FF8FEE7544508106C45081054490208C1
:40034000805402080040020808ED00E0FEE7FEE700B504207146084202D0EFF3098001E0EFF30880043000F011FEFEE7000000002DE9F041ADF57D6D00F098F95C4D5D4C96
:40038000DFF884815C4B1B6800932B462246FD21404601F08BF94FF47A76324604F57D710DF6E83002F090FC324604F2DC710DF5006002F089FC0DF2FC76002434600DF5C8
:4003C000FF673C603246FA210DF6E83001F09AF83A46FA210DF5006001F094F8099408940794069400230593FA230DF582620DF6E831404601F06CF9FA230AAA0DF50061F8
:40040000404601F065F905AB09AAFA210DF5826001F0B4F805AB08AAFA210AA801F0AEF805AB07AAFA210DF5826000F0D3FF05AB06AAFA210AA800F0CDFFDDED097A9DED40
:40044000077A77EEC77A9DED087ADDED066A37EE667A97ED006AC7EE066A96ED006A87EE867AC6EE877A05F5FB64C4ED007A206801F0A0FE02460B46204902A802F038FC73
:400480000A2202A91E4800F005FE94ED007AD4ED007A67EE277A17EE900A01F08BFE10A3D3E9002301F0DAFE06460F46206801F081FE0DA3D3E9002301F0D0FE02460B46EC
:4004C0003046394601F018FD00220E4B01F014FD02F0D6F805F2DC75286062B6FEE700BFEA5A7B9FAAAA30C0E4558CA9AAAA204070490208183608108C420208DC4108103E
:4005000000006640000059406C54020808B5012000F0B6FC08BD00BF704700BF5C4AD2F8803303F00F0303F1D00152F8212002F00702032A04D0042A05D092B9554914E0E4
:40054000554A116811E003F1C002514951F8222002F01F02112A06D0132A04D04FF4FA4103E04E4901E04FF400418BBB484BD3F8902502F00100D3F88825C2F30172D3F84E
:40058000883513F0405F07D0414BD3F88835C3F30173012B02D102E0012300E0002303B108B9032A46D13A48D0F88025C2F31103D0F88425C2F30C02D0F88005C0F30060BA
:4005C0000130B1FBF2F202FB03F2B2FBF0F131E0012B2FD12E4BD3F8402602F00100D3F80026C2F30172D3F8003613F0405F07D0274BD3F80036C3F30173012B02D102E0CF
:40060000012300E0002303B108B9032A12D12048D0F8002602F07F02D0F80036C3F30423D0F80006C0F3044002FB01F2B2FBF3F2B2FBF0F1164BD3F88033C3F3011321FAD1
:4006400003F215494A601648D0F89030C3F3072301330069000E0130B2FBF0F08860B2FBF3F3CB600B6103F5742202F23F220D48A0FB0202C2F387420A7503F2E7330A4A05
:40068000A2FB03239B098B61DB03CB61704700BF0000264000127A009442020800366E010000214083DE1B43D34D621008B50D4800F0CEFCFFF730FFFFF730FF00221146AF
:4006C000042000F0A5F9084800F038FA074B1B6893F8513013B1064800F0A0FA00F0E2F808BD00BF104408105051020878540208E041081008B500F0A4FC074AD2F88830C5
:4007000043F47003C2F88830BFF34F8FBFF36F8F00F09BFC08BD00BF00ED00E01F4B98422DD00CD840282ED003D8E8B1102828D02FE0802829D0B0F5807F28D029E0184B9E
:40074000984228D006D8B0F1204F0DD0154B984212D01EE0144B98420AD00133984209D0023B984215D101E0002070470F4870470F4870470F4870474FF4A0007047074800
:4007800070470D4870470D4870470D487047034870470C4870474FF4A400704706005200010000F0090000A0040000F001005200020052000300520001005000020050002E
:4007C00005005200FF00520038B5124B1B6893F83130012B04D840F2C3110F4800F0C6FB0C4B1D682A6AB5F8B03013442C46D5F8B420D358002B0BDB084B1868FFF78EFF89
:400800006B6801229A6063689B68002BFBD138BD034838BD7854020814420810D0520208020050001A4B186128B102230370FF23437000234380174B1B6893F850202AB345
:4008400000B583B0B3F93830ADF80030002301931149684600F04EFBBDF90030002B08DB590903F01F03012202FA03F30B4A42F82130084B1B6893F8513023B10222084924
:40088000012000F077FA03B05DF804FB704700BFD0520208785402089143020800E100E04944020808B50248FFF7BCFF08BD00BFE452020838B50B4B1B68D3F8B4301B589D
:4008C000002B0DDA0D4604460B0C1B0423B140F2D521054800F04AFBA9B26160002038BD024838BD785402085442081001008A0038B50368002B01DA002300E0094B73B935
:400900000D460446C2600B0C1B0423B140F2BB21054800F02BFBA9B2A160002038BD014838BD00BF01008A005442081038B504460D4619B99921084800F018FB074B1B6898
:40094000D3F8B4301B59002B03DAE3682B60002038BD034838BD00BF944208107854020801008A00254B1B6893F8313083423AD900293AD00B6813F01F0F38D170B50D4604
:4009800004461E4B1B6893F83130984204D340F2C3111B4800F0EAFA184B1B68186AB3F8B03004FB0304174E34602A68D2080021686802F094F900212046FFF77BFF3468C6
:4009C00025B940F293310E4800F0D0FA2A4600212046FFF78DFF60B900210A4B1868FFF769FF40B970BD084870470748704706487047064870BD054870BD00BF785402086B
:400A000054420810E852020803018A0001018A0010B504461346B2B9A9B9124B1B6893F83130984204D340F2C3110F4800F09EFA0C4B1B681A6AB3F8B03004FB03240B4BAE
:400A40001C60002010BD43B149B1084A51609360111D2046FFF786FF10BD054810BD044810BD00BF7854020854420810E852020803018A002DE9F0411B4B1B68DC68236806
:400A800083422CD90D464609A0EB4610012303FA00F819B900F0D5FA074600E00027124B18680368002B01DA002300E00F4B83B9626852F8263018EA030F05D023EA080399
:400AC00042F82630002400E0094C0021FFF7F2FE00E0084C25B9384600F0B7FA00E0064C2046BDE8F08100BFE852020801008A00020188000301880004018A000B4B1B681A
:400B0000DB681A6882420CD94109A0EB4110012202FA00F05B6853F82130184203D004487047044870470448704700BFE85202080101880004018A0000018800024B1B6808
:400B40000BB9014B18607047F45202082DE9F8430446884691461D46089F2C4B1B681BB9B5212B4800F002FA284B1B682C2000FB04F01C18EEB21E50C5F3072363602D0C48
:400B8000A560244B1B6893F831309E4204D340F2C311214800F0EAF91E4B1B68196AB3F8B02006FB02162661666893F832309E4204D340F2DF11184800F0D8F9154B1B6837
:400BC0001D6A803605EB46156561A668330C1B0423B14FF4FF71104800F0C8F9330C1B0423B140F2FF110C4800F0C0F9B3B243EA0646AE60C4F81C90C4F820800023A36163
:400C000017B1B7F90030A381BDE8F883F4520208D44208107854020854420810F0B58FB0044618B95221274800F0A0F9A369072B03D95621234800F099F9E36A1BB9582144
:400C4000204800F093F9236B1BB959211D4800F08DF907AD04F114060FCE0FC537682F6002AD26460FCE0FC533682B60164B1B68B3F93620079B1344ADF83030089B0D931E
:400C8000A26AE16A0CAD00953B460A98FFF75EFF00210091069B0A460598FFF757FF216B284600F027F9BDF93030002B08DB590903F01F03012202FA03F3044A42F82130FA
:400CC0000FB0F0BDD44208107854020800E100E0F8B506460F461D4614461AB9FD211F4800F044F91E4B1B681BB9FE211B4800F03DF91B4B1B682C2101FB063001FB07312F
:400D00004B68012202FA03F31B04466802FA06F60269EAB18F69EFB91268002A01DA002200E0104AC2B92288134323600369DC6001238B614D620469330C1B0423B140F26F
:400D4000BB21094800F012F9B2B2A2600020F8BD0648F8BD0648F8BD0548F8BDD4420810F452020801008A005442081004028A0007028A00F8B505460F4616460E4B1B68A9
:400D800023B94FF4AF710D4800F0F0F80A4B1B682C2404FB0534236A23B94FF4B171074800F0E4F8E369B34204D9236A43F826700020F8BD0248F8BDF4520208D4420810B0
:400DC0000A028A0070B582B000230193044620B940F2D111284800F0C9F8236923B94FF4E971254800F0C2F8636923B940F2D311214800F0BBF8236A23B94FF4EA711E48A4
:400E000000F0B4F86369DD682A0C20D012041A601B682069194B1B68D3F8B430C358002B15DA01A9FFF782FD60B9019803681E0CDBB2E269934206D2226A52F8233013B1A0
:400E4000984700E0002631462069FFF733FDADB275B16369ADB21D601B68636A1BB198470023636202E0A36A03B198470023A36163691B6802B070BDD4420810785402087C
:400E800010B50446074B1B6823B940F2B111064800F06CF8034B1B682C2000FB0430FFF791FF10BDF4520208D442081038B50D4B9A680D4B9A420FD10D46044621B940F2BB
:400EC00037110A4800F052F804F11003064A52F8230042F8235038BD1030054B53F8200038BD00BF00ED00E000400208144308100000081048B338B504460D464368072B08
:400F000003D93221134800F031F8B4F900306268002B08DB5201D2B203F1604303F5614383F8002305E003F00F035201D2B20A49CA540A4B9A680A4B9A4208D12946B4F902
:400F40000000FFF7B3FF002038BD06487047002038BD00BF1443081014ED00E000ED00E0004002080100560001BEFEE738B50D46044C18220146204601F0DEFEA56100200F
:400F8000FFF7F2FFC0480208FEE700BF08B50268254BDA6142681A6282685A62C2689A620269DA6242691A6382695A63C2699A631E4A916AD963D16A1964516A5964516BA6
:400FC0009964926BDA64F1EE103A13F0900F27D0026A154B1A65426A5A65826A9A65C26ADA65026B1A66426B5A66826B9A66C26BDA66026C1A67426C5A67826C9A67C26CBC
:40100000DA67026DC3F88020426DC3F88420826DC3F88820C26DC3F88C20026EC3F89020FFF7B2FF08BD00BFC048020800ED00E00230800803D001300238FCD100BF00BF87
:401040007047EFF3108072B6704780F310887047014B1860704700BF7854020810B4D0F8003203F00F03072B06D900230DE0CC5CC0F84042013300E000239342F7D306E094
:4010800031F81340C0F8404201339342F8D35DF8044B704710B51446036813F4006F01D0802200E04022D0F80832C3F30803D31AA34200D81C462246FFF7D0FF204610BD67
:4010C00043684B609A688A609A68516099600861036801330360704703694268816891608268416851605A68904201D182685A60002202611A68013A1A601868704700BFF0
:40110000094B9B6A1B680BB9012300E0002323B14FF0FF32044BDA627047034B9A6AD268D2685268DA627047345302082DE9F0413C4BD3F81831002B65D13A4BD3F8144176
:401140000134C3F81441CCB99B6A1B6843B14FF03F0383F31188BFF36F8FBFF34F8FFEE7304B9A6AD3F8F8109962C3F8F820D3F820210132C3F82021FFF7C2FF294BDB6AA9
:401180009C4203D2002645E0012600E00026254B9B6A1B680BB9012300E0002323B14FF0FF32204BDA6235E01E4B9B6ADB68DD686B689C4202D21B4AD3622BE005F10408FF
:4011C0004046FFF789FFAB6A1BB105F11800FFF783FFEB6A134AD2F80C21934202D9114AC2F80C310F4F07F1300003EB83039A0041461044FFF764FFEA6AD7F80031DB6A78
:401200009A42C1D2C3E7074AD2F824310133C2F824310026034BD3F8283103B101263046BDE8F08134530208304BD3F8183123B101222E4BC3F82821704710B52B4B00223B
:40124000C3F82821D3F800311B6B1A68B2F1A53F0BD15A68B2F1A53F07D19A68B2F1A53F03D1DB68B3F1A53F07D0204BD3F80001D3F80011343100F09BF81C4BD3F80C3179
:401280000AE043B94FF03F0383F31188BFF36F8FBFF34F8FFEE7013B03EB83018A0013490A44126B002AECD008469900CC18A2000244546B64685463303019448A000832D8
:4012C0000244944206D1606803EB83018A0007490A445063054903EB830082000A44526BD268C1F80021C1F80C3110BD34530208074B19680868B0E8F04F80F30988BFF362
:401300006F8F4FF0000080F311887047AFF3008034540208000000000000000000000000EFF30980BFF36F8F154B1A681EF0100F08BF20ED108A20E9F04F10602DE909008A
:401340004FF03F0080F31188BFF34F8FBFF36F8FFFF76AFF4FF0000080F3118809BC19680868B0E8F04F1EF0100F08BFB0EC108A80F30988BFF36F8F704700BFAFF30080F6
:401380003454020808B54FF03F0383F31188BFF36F8FBFF34F8FFFF7C9FE18B14FF08052024B1A60002383F3118808BD04ED00E008B54FF03F0383F31188BFF36F8FBFF339
:4013C0004F8F4FF441710248FFF7D0FDFEE700BFC84408102DE9F04F89B000F1040A0691013904938B0802910392D0F80090059300F0858000F11406019304270024CDF8FD
:401400001CA03EE0D0464946504601F035FC5946002818BF2C464046BD1E01F04BFC002840D0D9465946404601F044FC56F808AC56F8048C002818BF2C465146484607F1B1
:40144000FF3B01F037FC58B355465146484601F031FC4146002818BF5C46284601F02AFCE0B1C1464146284601F024FC019B002818BF3C46013B06F1100607F104070193DD
:4014800012D056F810AC56F80CBC50464946FD1E01F0F2FB0028B5D1C846B4E7A946E1E74D46D2E7C146BDE7059BDDF81CA00AEB031A029B13F0030519D0069B5D1B98463C
:4014C0000BE03E464946384601F0D6FB002818BF2C460135A845B1460AD05AF8047B4946384601F0C9FB0028EBD14E46EAE74E46039B1E60049B1C6009B0BDE8F08F1C4663
:401500000B46D7E72DE9F0475FEA91098846074692464FF000051AD000F110044E4654F8101C284601F002F954F80C1C01F0FEF854F8081C01F0FAF854F8041C01F0F6F8E7
:40154000013E054604F11004E9D107EB091718F0030407D0284657F8041B01F0E7F8013C0546F7D1404601F091F90146284601F099FACAF80000BDE8F08700BF2DE9F04FFE
:4015800089B000F1040A0691013904938B0802910392D0F80090059300F0858000F11406019304270024CDF81CA03EE0D0464946504601F07FFB5946002818BF2C46404622
:4015C000BD1E01F059FB002840D0D9465946404601F052FB56F808AC56F8048C002818BF2C465146484607F1FF3B01F045FB58B355465146484601F03FFB4146002818BFBC
:401600005C46284601F038FBE0B1C1464146284601F032FB019B002818BF3C46013B06F1100607F10407019312D056F810AC56F80CBC50464946FD1E01F03CFB0028B5D1B6
:40164000C846B4E7A946E1E74D46D2E7C146BDE7059BDDF81CA00AEB031A029B13F0030519D0069B5D1B98460BE03E464946384601F020FB002818BF2C460135A845B14635
:401680000AD05AF8047B4946384601F013FB0028EBD14E46EAE74E46039B1E60049B1C6009B0BDE8F08F1C460B46D7E770B5049C826004F18044013C05460C4401801E46F4
:4016C000A2001846002101F00AFB6E6070BD00BF2DE9F04F0546A1B06C681E9000881A94264600F18048AC681F9308F1FF3827461494DB0806EB8804159011911C921B943C
:401700001D9300F0838396461A46C3082546169304465B0138461844043B199304F00703179305F120030F930B462033109306F120030E9373462033189013931292109A70
:401740000F9C52F8203C44F8203C52F81C3C44F81C3C11460A4651F8183C44F8183C51F8143C44F8143C51F8103C44F8103C51F80C3C44F80C3C52F8083C44F8083C52F8C7
:40178000043C0E9A44F8043C52F8203C0093134652F81C2C03921A46194653F8183C049352F8143C059351F80C3C52F8102C079351F8083C0692089316980B1F002800F084
:4017C0008A83149B0B900022203301F11C040193164617460A92914692469346904615460294019B029A53F8204C52F8201C09912046009901F0A2F8414600F097FF039991
:401800000D90204601F09AF8594600F08FFF04998346204601F092F8514600F087FF05998246204601F08AF8494600F07FFF06998146204601F082F80A9900F077FF079995
:401840008046204601F07AF8394600F06FFF08990746204601F072F8314600F067FF09990646204601F06AF8029B019C53F81CEC294654F81C5CCDF800E000F057FF039992
:401880000C90284601F05AF80D9B0146184600F04DFF04990A90284601F050F8594600F045FF05998346284601F048F8514600F03DFF06998246284601F040F8494600F05B
:4018C00035FF07998146284601F038F8414600F02DFF029B089953F818CCCDF80CC080462846019401F02AF8394600F01FFF29460746099854F8184C01F020F8314600F037
:4019000015FF00990646284601F018F80C9A114600F00CFF04990546204601F00FF80A9B0146184600F002FF05990A90204601F005F8594600F0FAFE06998346204600F0F5
:40194000FDFF514600F0F2FE07998246204600F0F5FF494600F0EAFE08998146204600F0EDFF414600F0E2FE21468046099800F0E5FF394600F0DAFE21460746009800F0B5
:40198000DDFF314600F0D2FE03990646204600F0D5FF029A019C52F814ECCDF810E029460B9D013D0B9500F0C1FE54F8145C05990C90284600F0C2FF0A9B0146184600F0D7
:4019C000B5FE0A900699284600F0B8FF594600F0ADFE07998346284600F0B0FF514600F0A5FE029B089953F810CCCDF814C082462846019400F0A2FF494600F097FE29462F
:401A00008146099854F8104C00F098FF414600F08DFE29468046009800F090FF394600F085FE29460746039800F088FF314600F07DFE04990646284600F080FF0C9A11465C
:401A400000F074FE06990546204600F077FF0A9B0146184600F06AFE07990D90204600F06DFF594600F062FE08998346204600F065FF514600F05AFE21468246099800F0FB
:401A80005DFF494600F052FE21468146009800F055FF414600F04AFE21460A90039800F04DFF394600F042FE21460746049800F045FF314600F03AFE05990646204600F048
:401AC0003DFF029B019C53F80C8CCDF81880294600F02CFE54F80C5C07990C90284600F02DFF0D9B0146184600F020FE029A019B52F808EC089953F8084CCDF81CE0804695
:401B0000284600F01BFF594600F010FE29468346099800F013FF514600F008FE29468246009800F00BFF494600F000FE29468146039800F003FF0A9900F0F8FD29460A908E
:401B4000049800F0FBFE394600F0F0FD29460746059800F0F3FE314600F0E8FD06990646284600F0EBFE0C9A114600F0DFFD08990546204600F0E2FE0146404600F0D6FD51
:401B800021468046099800F0D9FE594600F0CEFD21468346009800F0D1FE514600F0C6FD21468246039800F0C9FE494600F0BEFD21468146049800F0C1FE0A9B194600F03D
:401BC000B5FD21460A90059800F0B8FE394600F0ADFD21460746069800F0B0FE314600F0A5FD029B019A53F804CC0799CDF820C00646204652F8044C00F0A0FE294600F00C
:401C000095FD21460546099800F098FE414600F08DFD21468046009800F090FE594600F085FD21468346039800F088FE514600F07DFD21468246049800F080FE494600F0EA
:401C400075FD21468146059800F078FE0A9B194600F06CFD21460A90069800F06FFE394600F064FD21460746079800F067FE314600F05CFD08990646204600F05FFE029BF3
:401C8000019A294602F1200403F120020194029200F04CFD0B9B0546002B7FF4A2AD199B0E990196189E02460B44179900297BD0CDF80880DDF81480CDF814B0DDF820B066
:401CC000CDF820A0DDF81CA0CDF81C90DDF818900697049F04933346039E099153F8044B0393049B009953F8045B049320460B9200F024FE0146029800F018FD31460290A8
:401D0000204600F01BFE0146059800F00FFD39460590204600F012FE0146089800F006FD41460890204600F009FE0146079800F0FDFC49460790204600F000FE01460A9852
:401D400000F0F4FC51460A90204600F0F7FD0146069800F0EBFC59460690204600F0EEFD0146019800F0E2FC29460190204600F0E5FD0B9A00960146104600F0D7FC099BB1
:401D8000013B3E46099347460246C846039BD146DA46AB46A2D1DDF80880DDF814B0DDF820A0DDF81C90069F13990A9841F8208C0B4641F81CBC41F818AC41F8149C41F846
:401DC000100C41F80C7C43F8042C0F9A019943F8081C20320F92109A20332032109213930E9A129B2032013B0E9212937FF4A7AC1D9B1B9A5B011A441B92119A1A44119201
:401E00001A9A1A441A921C9A1A441C921F9B13F007092CD01B9B1A9EDDF870A0CDF80090A3F104084F46119A159C52F8043B48F8043FDDF8509011920025B34659F8041B2E
:401E40005BF8040B00F07AFD0146284600F06EFC013C0546F2D1013F4AF8040B06F10406E1D11A9BDDF8009003EB89031A93159B591E1E9B8E085C681FD01A9B04F11002D5
:401E80001033304653F8105C42F8105C53F80C5C42F80C5C53F8085C42F8085C53F8045C42F8045C013803F1100302F11002E9D11A9A33011A441C441A9211F0030307D0F6
:401EC0001A99221F51F8040B42F8040F013BF9D121B0BDE8F08F0022149E019217460A929146924693469046DFE600BF81F0004102E000BF83F0004330B54FEA41044FEA67
:401F0000430594EA050F08BF90EA020F1FBF54EA000C55EA020C7FEA645C7FEA655C00F0E2804FEA5454D4EB5555B8BF6D420CDD2C4480EA020281EA030382EA000083EADA
:401F4000010180EA020281EA0303362D88BF30BD11F0004F4FEA01314FF4801C4CEA113102D0404261EB410113F0004F4FEA03334CEA133302D0524263EB430394EA050F2C
:401F800000F0A780A4F10104D5F1200E0DDB02FA0EFC22FA05F2801841F1000103FA0EF2801843FA05F359410EE0A5F120050EF1200E012A03FA0EFC28BF4CF0020C43FAD6
:401FC00005F3C01851EBE37101F0004507D54FF0000EDCF1000C7EEB00006EEB0101B1F5801F1BD3B1F5001F0CD349085FEA30004FEA3C0C04F101044FEA445212F5800F04
:4020000080F09A80BCF1004F08BF5FEA500C50F1000041EB045141EA050130BD5FEA4C0C404141EB010111F4801FA4F10104E9D191F0000F04BF01460020B1FA81F308BFE6
:402040002033A3F10B03B3F120020CDA0C3208DD02F1140CC2F10C0201FA0CF021FA02F10CE002F11402D8BFC2F1200C01FA02F120FA0CFCDCBF41EA0C019040E41AA2BF46
:4020800001EB0451294330BD6FEA04041F3C1CDA0C340EDC04F11404C4F1200220FA04F001FA02F340EA030021FA04F345EA030130BDC4F10C04C4F1200220FA02F001FAC6
:4020C00004F340EA0300294630BD21FA04F0294630BD94F0000F83F4801306BF81F480110134013D4EE77FEA645C18BF7FEA655C29D094EA050F08BF90EA020F05D054EACB
:40210000000C04BF1946104630BD91EA030F1EBF0021002030BD5FEA545C05D14000494128BF41F0004130BD14F580043CBF01F5801130BD01F0004545F0FE4141F470016B
:402140004FF0000030BD7FEA645C1ABF194610467FEA655C1CBF0B46024650EA013406BF52EA033591EA030F41F4002130BD00BF90F0000F04BF0021704730B54FF4806471
:4021800004F132044FF000054FF0000150E700BF90F0000F04BF0021704730B54FF4806404F1320410F0004548BF40424FF000013EE700BF42004FEAE2014FEA31014FEA25
:4021C00002701FBF12F07F4393F07F4F81F06051704792F0000F14BF93F07F4F704730B54FF4607401F0004521F0004120E700BF50EA010208BF704730B54FF000050AE01D
:4022000050EA010208BF704730B511F0004502D5404261EB41014FF4806404F132045FEA915C3FF4DCAE4FF003025FEADC0C18BF03325FEADC0C18BF033202EBDC02C2F150
:40224000200300FA03FC20FA02F001FA03FE40EA0E0021FA02F11444C1E600BF70B54FF0FF0C4CF4E06C1CEA11541DBF1CEA135594EA0C0F95EA0C0F00F0DEF82C4481EAB2
:40228000030621EA4C5123EA4C5350EA013518BF52EA033541F4801143F4801338D0A0FB02CE4FF00005E1FB02E506F00042E0FB03E54FF00006E1FB03569CF0000F18BF15
:4022C0004EF0010EA4F1FF04B6F5007F64F5407404D25FEA4E0E6D4146EB060642EAC62141EA55514FEAC52040EA5E504FEACE2EB4F1FD0C88BFBCF5E06F1ED8BEF1004F64
:4023000008BF5FEA500E50F1000041EB045170BD06F0004646EA010140EA020081EA0301B4EB5C04C2BFD4EB0C0541EA045170BD41F480114FF0000E013C00F3AB8014F1C7
:40234000360FDEBF002001F0004170BDC4F10004203C35DA0C341BDC04F11404C4F1200500FA05F320FA04F001FA05F240EA020001F0004221F0004110EBD37021FA04F6C4
:4023800042EB06015EEA430E08BF20EAD37070BDC4F10C04C4F1200500FA04F320FA05F001FA04F240EA020001F0004110EBD37041F100015EEA430E08BF20EAD37070BDD6
:4023C000C4F1200500FA05F24EEA020E20FA04F301FA05F243EA020321FA04F001F0004121FA04F220EA020000EBD3705EEA430E08BF20EAD37070BD94F0000F0FD101F0CB
:402400000046400041EB010111F4801F08BF013CF7D041EA060195F0000F18BF704703F00046520043EB030313F4801F08BF013DF7D043EA0603704794EA0C0F0CEA135510
:4024400018BF95EA0C0F0CD050EA410618BF52EA4306D1D181EA030101F000414FF0000070BD50EA410606BF1046194652EA430619D094EA0C0F02D150EA013613D195EADA
:402480000C0F05D152EA03361CBF104619460AD181EA030101F0004141F0FE4141F470014FF0000070BD41F0FE4141F4780170BD70B54FF0FF0C4CF4E06C1CEA11541DBF9B
:4024C0001CEA135594EA0C0F95EA0C0F00F0A7F8A4EB050481EA030E52EA03354FEA013100F088804FEA03334FF0805545EA131343EA12634FEA022245EA111545EA1065F1
:402500004FEA00260EF000419D4208BF964244F1FD0404F5407402D25B084FEA3202B61A65EB03055B084FEA32024FF480104FF4002CB6EB020E75EB030E22BFB61A754630
:4025400040EA0C005B084FEA3202B6EB020E75EB030E22BFB61A754640EA5C005B084FEA3202B6EB020E75EB030E22BFB61A754640EA9C005B084FEA3202B6EB020E75EB3C
:40258000030E22BFB61A754640EADC0055EA060E18D04FEA051545EA16754FEA06164FEAC30343EA52734FEAC2025FEA1C1CC0D111F4801F0BD141EA00014FF000004FF0D1
:4025C000004CB6E711F4801F04BF01430020B4F1FD0C88BFBCF5E06F3FF6AFAEB5EB030C04BFB6EB020C5FEA500C50F1000041EB045170BD0EF0004E4EEA113114EB5C04C6
:40260000C2BFD4EB0C0541EA045170BD41F480114FF0000E013C90E645EA060E8DE60CEA135594EA0C0F08BF95EA0C0F3FF43BAF94EA0C0F0AD150EA01347FF434AF95EAF3
:402640000C0F7FF425AF104619462CE795EA0C0F06D152EA03353FF4FDAE1046194622E750EA410618BF52EA43067FF4C5AE50EA41047FF40DAF52EA43057FF4EBAE12E7B5
:402680004FEA4102B2F1E04324BFB3F5001CDCF1FE5C0DD901F0004C4FEAC0024CEA5070B2F1004F40EB830008BF20F00100704711F0804F21D113F13872BCBF01F00040AB
:4026C000704741F480114FEA5252C2F11802C2F1200C10FA0CF320FA02F018BF40F001004FEAC1234FEAD32303FA0CFC40EA0C0023FA02F34FEA4303CCE77FEA625307D1F6
:4027000050EA01331EBF4FF0FE4040F44000704701F0004040F0FE4040F40000704700BF80F0004002E000BF81F0004142001FBF5FEA410392EA030F7FEA226C7FEA236C30
:402740006AD04FEA1262D2EB1363C1BFD218414048404140B8BF5B42192B88BF704710F0004F40F4000020F07F4018BF404211F0004F41F4000121F07F4118BF494292EA15
:40278000030F3FD0A2F1010241FA03FC10EB0C00C3F1200301FA03F100F0004302D5494260EB4000B0F5000F13D3B0F1807F06D340084FEA310102F10102FE2A51D2B1F192
:4027C000004F40EBC25008BF20F0010040EA03007047490040EB000010F4000FA2F10102EDD1B0FA80FCACF1080CB2EB0C0200FA0CF0AABF00EBC25052421843BCBFD0405E
:402800001843704792F0000F81F4000106BF80F400000132013BB5E74FEA41037FEA226C18BF7FEA236C21D092EA030F04D092F0000F08BF0846704790EA010F1CBF0020C3
:40284000704712F07F4F04D1400028BF40F00040704712F100723CBF00F50000704700F0004343F0FE4040F4000070477FEA226216BF08467FEA23630146420206BF5FEA6B
:40288000412390EA010F40F4800070474FF0000304E000BF10F0004348BF40425FEA000C08BF704743F0964301464FF000001CE050EA010208BF70474FF000030AE000BF07
:4028C00050EA010208BF704711F0004302D5404261EB41015FEA010C02BF84460146002043F0B64308BFA3F18053A3F50003BCFA8CF2083AA3EBC25310DB01FA02FC634411
:4029000000FA02FCC2F12002BCF1004F20FA02F243EB020008BF20F00100704702F1200201FA02FCC2F1200250EA4C0021FA02F243EB020008BF20EADC7070474FF0FF0C3B
:402940001CEAD0521EBF1CEAD15392EA0C0F93EA0C0F6FD01A4480EA010C400218BF5FEA41211ED04FF0006343EA501043EA5111A0FB01310CF00040B1F5000F3EBF490071
:4029800041EAD3715B0040EA010062F17F02FD2A1DD8B3F1004F40EBC25008BF20F00100704790F0000F0CF0004C08BF49024CEA502040EA51207F3AC2BFD2F1FF0340EA20
:4029C000C250704740F400004FF00003013A5DDC12F1190FDCBF00F000407047C2F10002410021FA02F1C2F1200200FA02FC5FEA310040F1000053EA4C0308BF20EADC7052
:402A0000704792F0000F00F0004C02BF400010F4000F013AF9D040EA0C0093F0000F01F0004C02BF490011F4000F013BF9D041EA0C018FE70CEAD15392EA0C0F18BF93EA1F
:402A40000C0F0AD030F0004C18BF31F0004CD8D180EA010000F00040704790F0000F17BF90F0004F084691F0000F91F0004F14D092EA0C0F01D142020FD193EA0C0F03D1F7
:402A80004B0218BF084608D180EA010000F0004040F0FE4040F40000704740F0FE4040F4400070474FF0FF0C1CEAD0521EBF1CEAD15392EA0C0F93EA0C0F69D0A2EB0302CB
:402AC00080EA010C49024FEA402037D04FF0805343EA111143EA10130CF000408B4238BF5B0042F17D024FF4000C8B4224BF5B1A40EA0C00B3EB510F24BFA3EB510340EA1F
:402B00005C00B3EB910F24BFA3EB910340EA9C00B3EBD10F24BFA3EBD10340EADC001B0118BF5FEA1C1CE0D1FD2A3FF650AF8B4240EBC25008BF20F0010070470CF0004C06
:402B40004CEA50207F32C2BFD2F1FF0340EAC250704740F400004FF00003013A37E792F0000F00F0004C02BF400010F4000F013AF9D040EA0C0093F0000F01F0004C02BF4B
:402B8000490011F4000F013BF9D041EA0C0195E70CEAD15392EA0C0F08D142027FF47DAF93EA0C0F7FF470AF084676E793EA0C0F04D14B023FF44CAF08466EE730F0004CC6
:402BC00018BF31F0004CCAD130F000427FF45CAF31F000437FF43CAF5FE700BF4FF0FF3C06E000BF4FF0010C02E000BF4FF0010C4DF804CD4FEA40024FEA41037FEA226CF2
:402C000018BF7FEA236C11D001B052EA530C18BF90EA010F58BFB2EB030088BFC81738BF6FEAE17018BF40F0010070477FEA226C02D15FEA402C05D17FEA236CE4D15FEAAF
:402C4000412CE1D05DF8040B704700BF844608466146FFE70FB5FFF7C9FF002848BF10F1000F0FBD4DF808EDFFF7F4FF0CBF012000205DF808FB00BF4DF808EDFFF7EAFFCB
:402C800034BF012000205DF808FB00BF4DF808EDFFF7E0FF94BF012000205DF808FB00BF4DF808EDFFF7D2FF94BF012000205DF808FB00BF4DF808EDFFF7C8FF34BF012058
:402CC00000205DF808FB00BF10B5431E0A44914204D011F8014B03F8014FF8E710BD02440346934202D003F8011BFAE7704700000EB400B59CB04FF402711DABADF8141047
:402D0000029006906FF000410A48049107914FF6FF7153F8042BADF816100068019302A900F076F8029B00221A701CB05DF804EB03B070471443020810B5034642B111F81F
:402D4000014B03F8014B013A002CF7D11A4400E010BD934202D003F8014BFAE710BD2DE9F0478E689E4282460C46914698463ED88A8912F4906F3AD0256809696F1A65696A
:402D8000022305EB450595FBF3F57B1C43449D4238BF1D4653050FD5294600F083FB064698B13A462169FFF78FFFA38923F4906343F08003A38113E02A4600F0D1FB06462E
:402DC00070B92169504600F01FFB0C23CAF80030A38943F04003A3814FF0FF30BDE8F087266165613E44ED1B2660A5604646464528BF464632464946206800F0E9FAA368B6
:402E00009B1BA36023681E4426600020BDE8F0872DE9F04F9DB0804603938B891C060D4616460DD50B695BB9402100F03BFB2860286118B90C23C8F80030CDE040236B6179
:402E40000023099320238DF82930DFF89CB130238DF82A3037463C4614F8013B1BB9B7EB060910D003E0252BF9D02746F3E74B46324629464046FFF772FF013000F0A78080
:402E8000099B4B4409933B78002B00F0A08000234FF0FF3204930793059206938DF853301A930126052221784E4800F041FA671C049B38B14B4A801A06FA00F018430490EB
:402EC0003C46EFE7D90644BF20228DF853201A0744BF2B228DF8532022782A2A03D0079A00210A200BE0039A111D12680391002A10DA524243F00200079204900BE0274622
:402F000001343B78303B092B03D800FB02320121F5E701B107923B782E2B1ED17B782A2B0AD1039B1A1D1B680392002BB8BF4FF0FF330237059310E000230593781C19462A
:402F40000A24074601303A78303A092A03D804FB01210123F5E703B1059103223978224800F0E6F940B14023CBEB000003FA00F0049B18430490013739781C488DF8281072
:402F800006227E1C00F0D4F988B1194B33B9039B073323F007030833039314E003AB00932A46144B04A94046AFF3008007E003AB00932A460F4B04A9404600F093F8B0F1A9
:402FC000FF3F824603D0099B5344099342E7AB895B0601D4099801E04FF0FF301DB0BDE8F08F00BF1A4508102045081024450810000000005F2D08102DE9F04791461F464C
:403000000A698B68DDF820809342B8BF1346C9F8003091F8432006460C4612B10133C9F800302368990642BFD9F800300233C9F80030256815F0060510D104F1190A07E0DE
:403040000123524639463046C04701301AD00135E368D9F800209B1A9D42F1DB94F843302268003318BF012392060FD5E1185A1C302081F84300224494F8451082F84310E9
:40308000023303E04FF0FF30BDE8F08704F1430239463046C0470130F4D02268D9F80050E36802F00602042A08BF5D1B2269A3680CBF25EAE57500259342C4BF9B1AED18E5
:4030C0004FF000091A344D4509D00123224639463046C0470130D5D009F10109F3E70020BDE8F0872DE9F04317460A7E85B06E2A984606460C460C9B01F1430E00F0AE80D8
:4031000011D8632A22D009D8002A00F0BB80582A40F0CA8081F84520834955E0642A1ED0692A1CD0C0E0732A00F0B08009D86F2A2ED0702A40F0B8800A6842F020020A6014
:403140003EE0752A24D0782A3AD0ADE01A6801F14205111D1960136884F84230A8E021681A6811F0800F02D0111D196008E011F0400F02F10401196002D0B2F9003000E0C8
:403180001368002B3CDA2D225B4284F8432037E021681A6811F0800F02D0111D196007E011F0400F02F10401196001D0138800E01368227E5C496F2A14BF0A2208221BE0EC
:4031C00078225A4984F845202268186812F0800F00F104051D6003D1550601D5038800E00368D00744BF42F0200222601BB9226822F0200222601022002084F8430001E00E
:4032000049490A226568A560002D08DB206820F0040020602BB9002D7DD175460CE0002B79D07546B3FBF2F002FB1033CB5C05F8013D03460028F5D1082A0BD12368DA07BA
:4032400008D5236962689A42DEBF302305F8013C05F1FF35C5EB0E0323612EE008681A68496910F0800F03D0101D1860136808E010F0400F02F104001860136801D01980E7
:4032800000E0196000232361754616E01A68111D1960156862680021284600F049F808B1401B6060636804E004F1420584F8422001232361002384F84330CDF800803B4610
:4032C00003AA21463046FFF797FE013002D14FF0FF3026E023692A4639463046C0470130F5D023689B0710D5002504F1190907E001234A4639463046C0470130E7D0013550
:40330000E368039A9B1A9D42F2DBE068039B9842B8BF184605E00B7884F8423004F142058AE705B0BDE8F0832B4508103C45081001F0FF01102A2BDB10F0070F08D010F897
:40334000013B013A8B422DD010F0070F42B3F6D1F0B441EA012141EA014122F007047FF000070023F0E80256083C85EA010586EA010685FA47F5A3FA87F586FA47F6A5FA96
:4033800087F68EB9EED1F0BC01F0FF0102F0070232B110F8013B013A83EA010313B1F8D10020704701387047002D06BF35460338073815F0010F07D1013015F4807F02BFFD
:4033C000013015F4C03F0130F0BC0138704700BF884210B501EB020301D8421E0BE09842FBD28118D21AD34204D013F8014D01F8014DF8E710BD994204D011F8014B02F805
:40340000014FF8E710BD000038B50546002946D051F8043C0C1F002BB8BFE41800F0D6F81F4A1368114613B96360146032E0A3420ED92268A018834204BF18685B6863601D
:4034400004BF121822600C6024E0A24203D813465A68002AF9D118681918A1420BD12168014458188242196014D1106852685A60014419600EE002D90C232B600AE021682F
:403480006018824204BF10685268626004BF091821605C602846BDE8384000F098B838BD6454020870B5CD1C25F0030508350C2D38BF0C25002D064601DBA94202D90C2363
:4034C000336046E000F082F8234B1C681A462146A1B10B685B1B0ED40B2B03D90B60CC18CD501EE08C420DBF63684B686360136018BF0C4615E00C464968E9E7174C23682A
:403500001BB9304600F052F820602946304600F04DF8431C18D0C41C24F00304A0420DD12560304600F053F804F10B00231D20F00700C31A0ED05A42E25070BD211A304677
:4035400000F034F80130EBD10C233360304600F03EF8002070BD00BF6454020860540208F8B5074615460E4621B91146BDE8F840FFF798BF1AB9FFF747FF2846F8BD00F032
:4035800027F885420ED929463846FFF78BFF044650B131462A46FFF797FB31463846FFF733FF01E03046F8BD2046F8BD38B5064C002305460846236000F014F8431C02D127
:4035C000236803B12B6038BD7C5402087047704751F8040C0028BEBF091851F8043CC01804387047044A05491368002B08BF0B461844106018467047685402088054020872
:40360000F8B500BFF8BC08BC9E467047F8B500BFF8BC08BC9E4670476F0FC7BB3CB81FBB4E1236BB94CA46BBFFFA4FBB00DF4FBB8EFF44BBDE362EBB0EFB0ABB0198B6BAC2
:40364000B71CFEB93D5A193AF51EEA3ADFEA493BF2F6903B1DDEBC3B73E1E63BF499063C510D173C3903243C6DD42C3CF404313CFE4D303CA6A32A3CE235203C9370113CE5
:403680001BF1FD3BE248D33BDAE3A43B5EE1693B58660B3B1C3E4B3A2499DDB905F6B8BA85A50CBB38402ABBD06734BB69582BBBC96B10BB1013CCBAB50B3EBA0342723901
:4036C0004EE5A23AA6B7123B3E514E3B4BF47F3BF3F8913BB4BC9B3BF9689C3B54BC933B2F17823B7EE4503B7E91103B190C8E3A4A14E5B8FBC5A9BAC4ED1CBB44635ABB54
:40370000698E84BB56FA92BBBC3897BB0C9490BB2DAC7EBBE7E749BB090004BBA7024CBAAC3C133A16BDFA3AE8A7503B59648C3B0744A83BE1B9B93B6331BF3B18DDB73B1F
:4037400065C1A33BD6B7833B53E8323BA5B09D3A8DC2F4B961640EBBBF1579BB4F9DABBB0BEDD0BB147CE9BB2706F3BB152DECBB1C97D4BB6A02ADBBD18D6EBB2E1CD9BA4D
:403780009A97113AD7543B3B6731A73BCBAFE93BA919103C1322233CE71A2C3CC3B7293C73531B3CB303013C9946B73B1A4A333B284A11BA382A86BB5E5EFBBB4C0B35BC9D
:4037C000982D65BCD61585BC773190BC665692BCAA478ABC9D686EBCE29231BC02EEBCBB1A01173A9A9C033CA947863CB3F8CF3C03300E3D6B62343DC42B593DC2277B3D60
:4038000084818C3D94C8983DCEECA13DDE90A73D7C76A93DDE90A73DCEECA13D94C8983D84818C3DC2277B3DC42B593D6B62343D03300E3DB3F8CF3CA947863C9A9C033C1F
:403840001A01173A02EEBCBBE29231BC9D686EBCAA478ABC665692BC773190BCD61585BC982D65BC4C0B35BC5E5EFBBB382A86BB284A11BA1A4A333B9946B73BB303013C6E
:4038800073531B3CC3B7293CE71A2C3C1322233CA919103CCBAFE93B6731A73BD7543B3B9A97113A2E1CD9BAD18D6EBB6A02ADBB1C97D4BB152DECBB2706F3BB147CE9BB5A
:4038C0000BEDD0BB4F9DABBBBF1579BB61640EBB8DC2F4B9A5B09D3A53E8323BD6B7833B65C1A33B18DDB73B6331BF3BE1B9B93B0744A83B59648C3BE8A7503B16BDFA3A68
:40390000AC3C133AA7024CBA090004BBE7E749BB2DAC7EBB0C9490BBBC3897BB56FA92BB698E84BB44635ABBC4ED1CBBFBC5A9BA4A14E5B8190C8E3A7E91103B7EE4503B5D
:403940002F17823B54BC933BF9689C3BB4BC9B3BF3F8913B4BF47F3B3E514E3BA6B7123B4EE5A23A03427239B50B3EBA1013CCBAC96B10BB69582BBBD06734BB38402ABBED
:4039800085A50CBB05F6B8BA2499DDB91C3E4B3A58660B3B5EE1693BDAE3A43BE248D33B1BF1FD3B9370113CE235203CA6A32A3CFE4D303CF404313C6DD42C3C3903243CA5
:4039C000510D173CF499063C73E1E63B1DDEBC3BF2F6903BDFEA493BF51EEA3A3D5A193AB71CFEB90198B6BA0EFB0ABBDE362EBB8EFF44BB00DF4FBBFFFA4FBB94CA46BB8A
:403A00004E1236BB3CB81FBB6F0FC7BB808DBB4780ACBE4700D3BB47009BBF470001BC470050C047005EBC478011C04780F7BC47809BC0470030BD47803EC04780ACBD4798
:403A400000F4BF478000BE47806ABF470035BE478009BF4780E1BE47004EBE47004EBF4780BCBD478031BF478028BD470031C04780AFBC4700A0BF470090BC478010C04724
:403A80008051BC478082C047007ABC4700E3BF470073BC47802CC0470086BC47009ABF4700EBBC470055BF470043BD4700CCBE478084BD47806DBE47005EBE47800FBE471F
:403AC00080D6BE4700BBBD47805BBF470093BD47006BC0478050BD47805EC0470092BD470053C14700BBBD47001EC247003FBE4780E2C14700A1BE478086C2470000BF47C9
:403B00008040C2470098BF47802DC2470024C04780F5C147009BC04780D6C1478076C1478075C147000CC2478019C14780A8C24700E6C04780BBC34700C0C0470098C34743
:403B400080DBC0478089C44700E0C047801DC547006CC14780DFC447008BC147807BC54700D6C1470002C5478025C24780DEC4478092C2478076C44780D9C247800CC447AF
:403B80000082C3470096C34780D6C3478010C3478069C44700ADC247804EC5470062C2478034C547806FC247002BC6470076C2478086C64700B6C2470023C64700DDC24799
:403BC00080D5C647801EC347008AC647808EC3470040C64780DBC34780E9C5478034C447007BC54700D5C4478019C5478047C547809FC44780D4C5470079C44700DDC6474F
:403C00000001C44780ACC647800CC44700BFC74780F0C34700F5C747805CC44700EDC74700A6C44780C7C84780E2C447805CC8470071C5470069C84780C9C5478002C84742
:403C40008029C64780B9C747000BC747806CC7470086C7470027C7470015C84780D1C6478014C9470078C64780FCC8470086C647003BCA470069C647801DCA470079C647AC
:403C800000C9C9470014C64700BCC947004CC5478038C8478082C44780B7C647802EC34780CCC4470037C24700F5C247002EC1478027C147803CC0478066BF4700BCBF472B
:403CC00000D8BD47006CBF47808ABC478090BE4700CFBB478016BF470026BB470084BE478008BB47006CBE470007BB470011BF47803BBB470095BE478093BB470084BE4726
:403D000080E8BB47806ABE470050BC478046BE478039BD47001EBE4700CFBD4780E9BD47008DBE4700ADBD478097BF478058BD4780AFBF478066BD478012C1470067BD478C
:403D40008014C14780C6BD470051C1478000BE478029C247006CBE4780FCC14780D8BE4780F8C147804ABF47000BC24700CEBF4780CFC147009CC0470062C14700FDC047DB
:403D80008010C147009FC14700A7C0470032C247801DC047001EC24700D4BF47801EC3478069BF4780A3C2470055BF4700E4C247004EBF470049C347803BBF478084C247B6
:403DC0000054BF47006DC2478049BF470009C2470088BF47806CC14700EDBF4780E7C047803BC047005EC04700F3C04700F7BF478074C1474025494840724A4800564948F4
:403E000040204B48005B4948802C4B48C088494840584B4800B4494840B04B48C0DF4948409D4B4880234A4840964B48C0534A4840884B48C0814A48C07E4B4800DB4A4849
:403E4000C0454B48801C4B48401E4B48C06B4B4880EE4A4880CA4B4880C14A4880D64B48C0B84A4840754C48C0974A48404E4C4840AD4A48406E4C4840AF4A48C0B84C4887
:403E800080EF4A4840974C4840154B48408D4C48001F4B4840694C48C0394B48003D4C48C09A4B48001A4C4800C84B4800DB4B48801B4C48C09A4B4840734C4880774B48B0
:403EC000806B4C48805C4B48C0064D4840364B4880E84C4800564B48001B4D48806C4B48C0764D48408B4B48C0464D4800B54B48005D4D4880CB4B48403E4D48800E4C484B
:403F0000C0214D4880724C48C0104D4800BB4C4840E74C48C01A4D4800BF4C4800824D48C0924C48009F4D4880A44C48005A4E4800934C48404D4E4800C84C4840A04E485F
:403F400040E64C4880004F48C0164D4880E04E4880404D4800CF4E48000D4D48C0414E4880B14C48804D4D48800E4C48402F4C48C02A4B4880D74A48C0674A48806E494832
:403F8000C09949484032484800944848000B4748802A484800014648C02C47484056454800BE4648C0BC4448409C4648807A4448C00146484048444840F64548804A444830
:403FC000C0B64548807B4448808F454840CA444800734548C01A4548005F4548C09545484058454800124648403B4548C03E46480070454800274748C086454880234748BF
:4040000000C1454800A5474840064648401E48480046464800144848008C46484059484800C046484040484880084748803A4848406F474840314848C0BB4748001C4848CD
:4040400080304848401D4848009A484840094848C0D9484800EF47488080494840DC4748C06A494880D14748009F4948C0CB474880D1494840C94748C087494880CA47481D
:404080008090494800C14748C023494800C14748C0DC484800C847480080484880C14748C0304848000B4848C0D94748C03A4848008A474840504848C05B474840E3484885
:4040C000C029474880A84848C036474880154948804A474800484948C06B4748C01D4948C096474840804948C0BF4748405C4948C0134848C0604948407A48484055494896
:4041000040C348488051494800464948404F494880B94948802E4948800F4A484048494880C04A48003F494880BC4A48006B4948005C4B4800964948C0AC4B4840D249482C
:4041400080854B4880094A48C0054C48403A4A48C0F04B48C0814A4880DE4B4880C54A4840D64B4800064B4880A34B4800774B48C0804B4800D74B48C0524B48C01E4C48F3
:4041800080314B48C07B4C48000B4B48C0674C4800074B4880DD4C48400A4B48800E4D4880294B48C0F14C4840494B4840364D48005A4B48C00A4D4840974B48C0E84C486E
:4041C000C0B54B4880C34C4840EF4B4800904C4800524C48C07D4C48409C4C48256600000300000001000000010000000000000005036000040000000100000000000000D6
:40420000010000000604600008000000B05202080D05081047656E6572617465645F536F757263655C50536F43365C70646C5C647269766572732F706572697068657261A9
:404240006C2F6970632F63795F6970635F6472762E68000047656E6572617465645F536F757263655C50536F43365C70646C5C647269766572735C70657269706865726127
:404280006C5C6970635C63795F6970635F6472762E68000047656E6572617465645F536F757263655C50536F43365C70646C5C647269766572735C7065726970686572618D
:4042C0006C5C6970635C63795F6970635F6472762E63000047656E6572617465645F536F757263655C50536F43365C70646C5C647269766572735C70657269706865726152
:404300006C5C6970635C63795F6970635F706970652E630047656E6572617465645F536F757263655C50536F43365C70646C5C647269766572735C706572697068657261AF
:404340006C5C737973696E745C63795F737973696E742E63000000000000204000002440000000400000000000002340000030400000314000009F40000022400000104020
:4043800002020202020202020210101D800017007500FF030602063604102000000000007FC0000000040000000000000019324B647D00804000080B100000000000FF018B
:4043C0002002001F00800004FF081018001000140018001C4044484C50000000081000000800000004000000041000000012000004210000002100000016000040114002D0
:40440000C41300138013A013200000001C0000000000214000002540000001400000344000002440000031400000324000001F410000234000001140010101010101010132
:4044400001101010800019005500F0000501053B04101C01010000000FC000000004000001010101011D3A57789600082000101208000000001F00000010000F002000026F
:404480003F06080E00080009000A000B24282C3034000000100000009000000088000000080000008000000004F0000000F00000400200002005A000D00100018001A00110
:4044C000200000001000000047656E6572617465645F536F757263655C50536F43365C70646C5C72746F735C4672656552544F535C31302E302E315C536F757263655C704D
:404500006F727461626C655C4743435C434D34465C706F72742E63004300232D302B2000686C4C0065666745464700303132333435363738394142434445460030313233B7
:40454000343536373839616263646566000000000000000000000810004002088C020000744508108C42020834060000544902082C0B0000FA000000010000000048E801C2
:4045800000127A0000093D0000127A0000127A0008000000401F00000000A00F00000000000000000000000000000000000000000000000000000000000000001845081086
:4045C000000000000000000000000000000000000000000000000000000000000000000000000000000000000000000000000000000000000000000000000000B4420208BB
:40460000B10208108D0208100000000080B2C10050B3164B1B681A6AB3F8B030C3EBC303D358002BF5DA3E22114B1A6041F61E7204331A60A3F584730622C3F8182521F018
:404640007F41C3F81C15D3F81C35084B1A68116AB2F8B030C3EBC3030B4400225A60054BD3F81C35002BFADA704700BF785402080401264000002640F8B5274B1B6893F844
:404680003130052B04D840F2C311244800F074FA214F3A68166AB2F8B03003EB83031E4452684FF26003D458A4B200F055FA05463B681968D3F890208A58013C032C27D875
:4046C000032A0CD1164A127812F0FF0F07D10822B2601968D3F890208A58032AF9D01968D3F884208B588858C0F307221B0E581C02FB00000B4B03FB00F00B4B1B680B4A33
:40470000A2FB03239B09B0FBF3F08230FFF77EFF284600F029FAF8BD78540208144208100B00001640420F0098420208D34D62104378FF2B23D110B500F00EFA0446104B82
:404740001B6893F83130042B04D840F2C3110D4800F012FA0A4B1A68136AB2F8B02003EB8203DB685A68136843F001031360136813F0010FFBD1204600F0F6F910BD7047DA
:4047800078540208144208102DE9F04707468846554B1B6893F83130012B04D840F2C311524800F0E9F9504B1B681C6AB3F8B0201444D3F8B420161993F85030002B79D000
:4047C0004B4B1B7813F0FF0F02D04FF0000901E04FF00109B9F1000F38D0434B1B6893F83130052B04D840F2C311404800F0C4F93D4B1A68116AB2F8B03003EB83030B4464
:40480000D2F8B420D358002B22DB002000F094F9384B98421ED00023374A12690121184600F0B2F918B1354D17E0013500E00025002000F081F92F4B984202D0304B9D42DE
:40484000F3D92F4B9D4207D92C4D06E0002504E02A4D02E0294D00E00025002D41D100F07BF98246274BD3F81C35002B10DA224A0121204600F068F960B94046FFF7C6FE4B
:4048800057B13368002BFCDB00F086F9054604E01A4D02E0194D00E01B4DB9F1000F05D00121002000F040F90028F9D1504600F05BF916E000F050F980460F4A0121204623
:4048C00000F042F938B947B13368002BFCDB00F063F9054602E0094D00E00B4D404600F043F92846BDE8F08778540208144208100B00001601018800D05202080500520052
:40490000EF4902000000264001005000F0B47F4B1A6855684FF0B0535B7813F0FF0F04D04FF0B0535B78DBB200E02123212B55D1116AB2F8B030C3EBC303CC18CB58002BFC
:40494000F6DAE36843F00103E360146AB2F8B030C3EBC3031C44E36813F0020F2DD0E3689EB21368D2F884105958090A090401F47F01D2F88870DB591B0A41EA036333438E
:40498000E3601168D2F884208B5823F47F4343F410638B505D4A13681C68D3F88810635823F47F4343F41063635013681A68D3F884105158D3F88830D358544B1A68116A43
:4049C000B2F8B030C3EBC3030B4400215960116AB2F8B030C3EBC3030B445B684B4B19680C68D1F894301C44494A136943F004031361012801D030BF07E020BF454B1B78FE
:404A000003B120BF0122434B1A70236803F00303022BE9D00A6AB1F8B030C3EBC303D018D358002BF6DA4FF0B0535B7813F0FF0F04D04FF0B0535B78DBB200E02123212BB3
:404A400030D1C36813F0020F1FD00C68D1F88410635823F47F42C3681B0C1B0203F47F4313436350294B19680C68D1F88800235823F47F420D6AB1F8B030C3EBC3032B4482
:404A8000DB681B0E42EA03232350204B1A68136AB2F8B020C2EBC2021344DA6822F00102DA6026E0D5F80C311BBB1B490E681B4BD3F818451A4A106841F61E770F600621FC
:404AC000C3F818153E2111604422C3F81C25134BD3F81C35002BFADA4FF0AA33C5F80C310D4B1E60A3F58473C3F8184503F582731860064B1A68116AB2F8B030C3EBC303DF
:404B00000B4400225A60F0BC704700BF7854020800ED00E0F85202080801264000002640040126400000000001B40248844601BC604700BF750A081001B40248844601BCE8
:404B4000604700BFFD0A081001B40248844601BC604700BFF108081001B40248844601BC604700BF4310081001B40248844601BC604700BF4B10081001B40248844601BC77
:404B8000604700BF6D0F081001B40248844601BC604700BFD10C081001B40248844601BC604700BFC907081000000000000000000000000000000000000000000000000046
:404BC00000000000000000000000000000000000000000000000000000000000000000000000000000000000000000000000000000000000000000000000000000000000B5
:0200000490303A
:02000000C8D066
:0200000490501A
:0C0000000005E20721002101E223E9D005
:00000001FF